{
  "contractName": "Exchange",
  "abi": [
    {
      "inputs": [
        {
          "internalType": "address",
          "name": "_system",
          "type": "address"
        }
      ],
      "stateMutability": "nonpayable",
      "type": "constructor"
    },
    {
      "anonymous": false,
      "inputs": [
        {
          "indexed": false,
          "internalType": "bytes32",
          "name": "orderId",
          "type": "bytes32"
        },
        {
          "indexed": false,
          "internalType": "address",
          "name": "maker",
          "type": "address"
        },
        {
          "indexed": false,
          "internalType": "address",
          "name": "token0",
          "type": "address"
        },
        {
          "indexed": false,
          "internalType": "address",
          "name": "token1",
          "type": "address"
        },
        {
          "indexed": false,
          "internalType": "uint256",
          "name": "amount",
          "type": "uint256"
        },
        {
          "indexed": false,
          "internalType": "uint256",
          "name": "_exchangeRate",
          "type": "uint256"
        },
        {
          "indexed": false,
          "internalType": "uint256",
          "name": "orderType",
          "type": "uint256"
        }
      ],
      "name": "OrderCreated",
      "type": "event"
    },
    {
      "anonymous": false,
      "inputs": [
        {
          "indexed": false,
          "internalType": "bytes32",
          "name": "pairId",
          "type": "bytes32"
        },
        {
          "indexed": false,
          "internalType": "address",
          "name": "token0",
          "type": "address"
        },
        {
          "indexed": false,
          "internalType": "address",
          "name": "token1",
          "type": "address"
        },
        {
          "indexed": false,
          "internalType": "uint256",
          "name": "exchangeRateDecimals",
          "type": "uint256"
        },
        {
          "indexed": false,
          "internalType": "uint256",
          "name": "minToken0Order",
          "type": "uint256"
        },
        {
          "indexed": false,
          "internalType": "uint256",
          "name": "minToken1Order",
          "type": "uint256"
        }
      ],
      "name": "PairCreated",
      "type": "event"
    },
    {
      "inputs": [
        {
          "internalType": "address",
          "name": "token0",
          "type": "address"
        },
        {
          "internalType": "address",
          "name": "token1",
          "type": "address"
        },
        {
          "internalType": "uint256",
          "name": "amount",
          "type": "uint256"
        },
        {
          "internalType": "uint256",
          "name": "orderType",
          "type": "uint256"
        },
        {
          "internalType": "uint256",
          "name": "exchangeRate",
          "type": "uint256"
        }
      ],
      "name": "createLimitOrder",
      "outputs": [],
      "stateMutability": "nonpayable",
      "type": "function"
    },
    {
      "inputs": [
        {
          "internalType": "address",
          "name": "token0",
          "type": "address"
        },
        {
          "internalType": "address",
          "name": "token1",
          "type": "address"
        },
        {
          "internalType": "uint256",
          "name": "exchangeRateDecimals",
          "type": "uint256"
        },
        {
          "internalType": "uint256",
          "name": "minToken0Order",
          "type": "uint256"
        },
        {
          "internalType": "uint256",
          "name": "minToken1Order",
          "type": "uint256"
        }
      ],
      "name": "createPair",
      "outputs": [],
      "stateMutability": "nonpayable",
      "type": "function"
    },
    {
      "inputs": [
        {
          "internalType": "bytes32",
          "name": "orderId",
          "type": "bytes32"
        },
        {
          "internalType": "uint256",
          "name": "fillAmount",
          "type": "uint256"
        }
      ],
      "name": "executeLimitOrder",
      "outputs": [],
      "stateMutability": "nonpayable",
      "type": "function"
    },
    {
      "inputs": [
        {
          "internalType": "bytes32",
          "name": "",
          "type": "bytes32"
        }
      ],
      "name": "pairs",
      "outputs": [
        {
          "internalType": "address",
          "name": "token0",
          "type": "address"
        },
        {
          "internalType": "address",
          "name": "token1",
          "type": "address"
        },
        {
          "internalType": "uint256",
          "name": "exchangeRateDecimals",
          "type": "uint256"
        },
        {
          "internalType": "uint256",
          "name": "minToken0Order",
          "type": "uint256"
        },
        {
          "internalType": "uint256",
          "name": "minToken1Order",
          "type": "uint256"
        }
      ],
      "stateMutability": "view",
      "type": "function"
    },
    {
      "inputs": [
        {
          "internalType": "bytes32",
          "name": "",
          "type": "bytes32"
        }
      ],
      "name": "placedOrders",
      "outputs": [
        {
          "internalType": "address",
          "name": "maker",
          "type": "address"
        },
        {
          "internalType": "address",
          "name": "token0",
          "type": "address"
        },
        {
          "internalType": "address",
          "name": "token1",
          "type": "address"
        },
        {
          "internalType": "uint256",
          "name": "orderType",
          "type": "uint256"
        },
        {
          "internalType": "uint256",
          "name": "exchangeRate",
          "type": "uint256"
        },
        {
          "internalType": "uint256",
          "name": "amount",
          "type": "uint256"
        },
        {
          "internalType": "uint256",
          "name": "fill",
          "type": "uint256"
        }
      ],
      "stateMutability": "view",
      "type": "function"
    },
    {
      "inputs": [],
      "name": "system",
      "outputs": [
        {
          "internalType": "contract System",
          "name": "",
          "type": "address"
        }
      ],
      "stateMutability": "view",
      "type": "function"
    },
    {
      "inputs": [
        {
          "internalType": "bytes32",
          "name": "orderId",
          "type": "bytes32"
        },
        {
          "internalType": "uint256",
          "name": "amount",
          "type": "uint256"
        }
      ],
      "name": "updateLimitOrder",
      "outputs": [],
      "stateMutability": "nonpayable",
      "type": "function"
    }
  ],
  "bytecode": "0x608060405234801561001057600080fd5b50d3801561001d57600080fd5b50d2801561002a57600080fd5b5060405162001a8a38038062001a8a83398101604081905261004b91610070565b600280546001600160a01b0319166001600160a01b03929092169190911790556100a9565b60006020828403121561008257600080fd5b81516001600160a81b038116811461009957600080fd5b6001600160a01b03169392505050565b6119d180620000b96000396000f3fe608060405234801561001057600080fd5b50d3801561001d57600080fd5b50d2801561002a57600080fd5b50600436106100975760003560e01c8063673e048111610075578063673e04811461016857806395bf75fd146101e5578063cd85fc2a14610210578063de1b983b1461022357600080fd5b80631e41be5a1461009c57806321a18818146101405780634b77fa8b14610155575b600080fd5b6100f56100aa3660046117d3565b60006020819052908152604090208054600182015460028301546003840154600485015460058601546006909601546001600160a01b03958616969486169590931693919290919087565b604080516001600160a01b039889168152968816602088015294909616938501939093526060840191909152608083015260a082015260c081019190915260e0015b60405180910390f35b61015361014e3660046117ec565b610236565b005b610153610163366004611775565b610688565b6101b26101763660046117d3565b6001602081905260009182526040909120805491810154600282015460038301546004909301546001600160a01b039485169490921692909185565b604080516001600160a01b039687168152959094166020860152928401919091526060830152608082015260a001610137565b6002546101f8906001600160a01b031681565b6040516001600160a01b039091168152602001610137565b61015361021e3660046117ec565b61082c565b610153610231366004611775565b61135b565b600082815260208190526040812090808260030154146102635760028201546001600160a01b0316610272565b60018201546001600160a01b03165b9050828260050154101561047c5760008260050154846102929190611948565b9050600260009054906101000a90046001600160a01b03166001600160a01b031663fbfa77cf6040518163ffffffff1660e01b815260040160206040518083038186803b1580156102e257600080fd5b505afa1580156102f6573d6000803e3d6000fd5b505050506040513d601f19601f8201168201806040525081019061031a9190611748565b60405163013d64e560e31b81526001600160a01b0384811660048301526024820184905233604483015291909116906309eb272890606401600060405180830381600087803b15801561036c57600080fd5b505af1158015610380573d6000803e3d6000fd5b50505050600260009054906101000a90046001600160a01b03166001600160a01b031663fbfa77cf6040518163ffffffff1660e01b815260040160206040518083038186803b1580156103d257600080fd5b505afa1580156103e6573d6000803e3d6000fd5b505050506040513d601f19601f8201168201806040525081019061040a9190611748565b8354604051632402285360e11b81526001600160a01b03858116600483015260248201859052918216604482015291169063480450a690606401600060405180830381600087803b15801561045e57600080fd5b505af1158015610472573d6000803e3d6000fd5b5050505050610680565b828260050154111561068057600083836005015461049a9190611948565b9050600260009054906101000a90046001600160a01b03166001600160a01b031663fbfa77cf6040518163ffffffff1660e01b815260040160206040518083038186803b1580156104ea57600080fd5b505afa1580156104fe573d6000803e3d6000fd5b505050506040513d601f19601f820116820180604052508101906105229190611748565b604051635a9c78ab60e01b81526001600160a01b038481166004830152602482018490523360448301529190911690635a9c78ab90606401600060405180830381600087803b15801561057457600080fd5b505af1158015610588573d6000803e3d6000fd5b50505050600260009054906101000a90046001600160a01b03166001600160a01b031663fbfa77cf6040518163ffffffff1660e01b815260040160206040518083038186803b1580156105da57600080fd5b505afa1580156105ee573d6000803e3d6000fd5b505050506040513d601f19601f820116820180604052508101906106129190611748565b835460405163f4ac627560e01b81526001600160a01b03858116600483015260248201859052918216604482015291169063f4ac627590606401600060405180830381600087803b15801561066657600080fd5b505af115801561067a573d6000803e3d6000fd5b50505050505b506005015550565b600260009054906101000a90046001600160a01b03166001600160a01b031663f851a4406040518163ffffffff1660e01b815260040160206040518083038186803b1580156106d657600080fd5b505afa1580156106ea573d6000803e3d6000fd5b505050506040513d601f19601f8201168201806040525081019061070e9190611748565b6001600160a01b0316336001600160a01b03161461072b57600080fd5b6040516bffffffffffffffffffffffff19606087811b8216602084015286901b16603482015260009060480160408051601f198184030181528282528051602091820120600081815260018084529084902080546001600160a01b038d811673ffffffffffffffffffffffffffffffffffffffff19928316811784559383018054918e16919092168117909155600282018b9055600382018a9055600482018990558387529386019190915292840191909152606083018790526080830186905260a083018590529250907f19632388279c0c3d924f06e382fbb88432419e969b0833e526c187129d0d243c9060c00160405180910390a150505050505050565b60008281526020818152604091829020825160e08101845281546001600160a01b039081168083526001840154821694830194909452600283015416938101939093526003810154606084015260048101546080840152600581015460a08401526006015460c083015261089f57600080fd5b818160c001518260a001516108b49190611948565b10156108bf57600080fd5b60006001600083602001518460400151604051602001610903929190606092831b6bffffffffffffffffffffffff1990811682529190921b16601482015260280190565b60408051601f1981840301815291815281516020928301208352828201939093529082016000908120835160a08101855281546001600160a01b039081168252600183015416938101939093526002810154938301849052600381015460608401526004015460808301529092509061097d90600a611873565b608084015161098c9086611929565b610996919061180e565b9050600083606001511415610e7757600260009054906101000a90046001600160a01b03166001600160a01b031663fbfa77cf6040518163ffffffff1660e01b815260040160206040518083038186803b1580156109f357600080fd5b505afa158015610a07573d6000803e3d6000fd5b505050506040513d601f19601f82011682018060405250810190610a2b9190611748565b60208401518451604051635a9c78ab60e01b81526001600160a01b039283166004820152602481018890529082166044820152911690635a9c78ab90606401600060405180830381600087803b158015610a8457600080fd5b505af1158015610a98573d6000803e3d6000fd5b50505050600260009054906101000a90046001600160a01b03166001600160a01b031663fbfa77cf6040518163ffffffff1660e01b815260040160206040518083038186803b158015610aea57600080fd5b505afa158015610afe573d6000803e3d6000fd5b505050506040513d601f19601f82011682018060405250810190610b229190611748565b60208401518451604051632402285360e11b81526001600160a01b03928316600482015260248101889052908216604482015291169063480450a690606401600060405180830381600087803b158015610b7b57600080fd5b505af1158015610b8f573d6000803e3d6000fd5b50505050600260009054906101000a90046001600160a01b03166001600160a01b031663fbfa77cf6040518163ffffffff1660e01b815260040160206040518083038186803b158015610be157600080fd5b505afa158015610bf5573d6000803e3d6000fd5b505050506040513d601f19601f82011682018060405250810190610c199190611748565b6040808501519051632402285360e11b81526001600160a01b0391821660048201526024810184905233604482015291169063480450a690606401600060405180830381600087803b158015610c6e57600080fd5b505af1158015610c82573d6000803e3d6000fd5b50505050600260009054906101000a90046001600160a01b03166001600160a01b031663fbfa77cf6040518163ffffffff1660e01b815260040160206040518083038186803b158015610cd457600080fd5b505afa158015610ce8573d6000803e3d6000fd5b505050506040513d601f19601f82011682018060405250810190610d0c9190611748565b602084015160405163f4ac627560e01b81526001600160a01b0391821660048201526024810187905233604482015291169063f4ac627590606401600060405180830381600087803b158015610d6157600080fd5b505af1158015610d75573d6000803e3d6000fd5b50505050600260009054906101000a90046001600160a01b03166001600160a01b031663fbfa77cf6040518163ffffffff1660e01b815260040160206040518083038186803b158015610dc757600080fd5b505afa158015610ddb573d6000803e3d6000fd5b505050506040513d601f19601f82011682018060405250810190610dff9190611748565b6040808501518551915163f4ac627560e01b81526001600160a01b039182166004820152602481018590529181166044830152919091169063f4ac627590606401600060405180830381600087803b158015610e5a57600080fd5b505af1158015610e6e573d6000803e3d6000fd5b50505050611354565b60018360600151141561135457600260009054906101000a90046001600160a01b03166001600160a01b031663fbfa77cf6040518163ffffffff1660e01b815260040160206040518083038186803b158015610ed257600080fd5b505afa158015610ee6573d6000803e3d6000fd5b505050506040513d601f19601f82011682018060405250810190610f0a9190611748565b60408085015185519151635a9c78ab60e01b81526001600160a01b0391821660048201526024810185905291811660448301529190911690635a9c78ab90606401600060405180830381600087803b158015610f6557600080fd5b505af1158015610f79573d6000803e3d6000fd5b50505050600260009054906101000a90046001600160a01b03166001600160a01b031663fbfa77cf6040518163ffffffff1660e01b815260040160206040518083038186803b158015610fcb57600080fd5b505afa158015610fdf573d6000803e3d6000fd5b505050506040513d601f19601f820116820180604052508101906110039190611748565b60408085015185519151632402285360e11b81526001600160a01b039182166004820152602481018590529181166044830152919091169063480450a690606401600060405180830381600087803b15801561105e57600080fd5b505af1158015611072573d6000803e3d6000fd5b50505050600260009054906101000a90046001600160a01b03166001600160a01b031663fbfa77cf6040518163ffffffff1660e01b815260040160206040518083038186803b1580156110c457600080fd5b505afa1580156110d8573d6000803e3d6000fd5b505050506040513d601f19601f820116820180604052508101906110fc9190611748565b6020840151604051632402285360e11b81526001600160a01b0391821660048201526024810187905233604482015291169063480450a690606401600060405180830381600087803b15801561115157600080fd5b505af1158015611165573d6000803e3d6000fd5b50505050600260009054906101000a90046001600160a01b03166001600160a01b031663fbfa77cf6040518163ffffffff1660e01b815260040160206040518083038186803b1580156111b757600080fd5b505afa1580156111cb573d6000803e3d6000fd5b505050506040513d601f19601f820116820180604052508101906111ef9190611748565b604080850151905163f4ac627560e01b81526001600160a01b0391821660048201526024810184905233604482015291169063f4ac627590606401600060405180830381600087803b15801561124457600080fd5b505af1158015611258573d6000803e3d6000fd5b50505050600260009054906101000a90046001600160a01b03166001600160a01b031663fbfa77cf6040518163ffffffff1660e01b815260040160206040518083038186803b1580156112aa57600080fd5b505afa1580156112be573d6000803e3d6000fd5b505050506040513d601f19601f820116820180604052508101906112e29190611748565b6020840151845160405163f4ac627560e01b81526001600160a01b03928316600482015260248101889052908216604482015291169063f4ac627590606401600060405180830381600087803b15801561133b57600080fd5b505af115801561134f573d6000803e3d6000fd5b505050505b5050505050565b60408051606087811b6bffffffffffffffffffffffff199081166020808501919091529188901b1660348301528251602881840301815260488301808552815191830191909120600090815260019283905284902060e8840190945283546001600160a01b039081168083529285015416606884015260028401546088840152600384015460a884015260049093015460c8909201919091526113fd57600080fd5b8161140757600080fd5b8261142257806060015184101561141d57600080fd5b61143c565b600183141561009757806080015184101561141d57600080fd5b604080513360208083018290526001600160a01b038a8116848601819052908a1660608501819052608085018a905260a0850189905260c08086018990528651808703909101815260e0909501865284519483019490942060008181529283905294909120805473ffffffffffffffffffffffffffffffffffffffff1990811690931781556001810180548416909217909155600281018054909216909217905560048101849055846115df57600581018690556002546040805163fbfa77cf60e01b815290516001600160a01b039092169163fbfa77cf91600480820192602092909190829003018186803b15801561153557600080fd5b505afa158015611549573d6000803e3d6000fd5b505050506040513d601f19601f8201168201806040525081019061156d9190611748565b600182015460405163013d64e560e31b81526001600160a01b039182166004820152602481018990523360448201529116906309eb272890606401600060405180830381600087803b1580156115c257600080fd5b505af11580156115d6573d6000803e3d6000fd5b505050506116da565b60018514156116da57600581018690556002546040805163fbfa77cf60e01b815290516001600160a01b039092169163fbfa77cf91600480820192602092909190829003018186803b15801561163457600080fd5b505afa158015611648573d6000803e3d6000fd5b505050506040513d601f19601f8201168201806040525081019061166c9190611748565b600282015460405163013d64e560e31b81526001600160a01b039182166004820152602481018990523360448201529116906309eb272890606401600060405180830381600087803b1580156116c157600080fd5b505af11580156116d5573d6000803e3d6000fd5b505050505b604080518381523360208201526001600160a01b038a811682840152891660608201526080810188905260a0810186905260c0810187905290517f46073215592608fb81a39b00bcf89bbe9eb3f7734139890b364ba516442356fd9181900360e00190a15050505050505050565b60006020828403121561175a57600080fd5b815161176581611975565b6001600160a01b03169392505050565b600080600080600060a0868803121561178d57600080fd5b853561179881611975565b6001600160a01b0390811695506020870135906117b482611975565b9598951696505050506040830135926060810135926080909101359150565b6000602082840312156117e557600080fd5b5035919050565b600080604083850312156117ff57600080fd5b50508035926020909101359150565b60008261182b57634e487b7160e01b600052601260045260246000fd5b500490565b600181815b8085111561186b5781600019048211156118515761185161195f565b8085161561185e57918102915b93841c9390800290611835565b509250929050565b600061187f8383611886565b9392505050565b60008261189557506001611923565b816118a257506000611923565b81600181146118b857600281146118c2576118de565b6001915050611923565b60ff8411156118d3576118d361195f565b50506001821b611923565b5060208310610133831016604e8410600b8410161715611901575081810a611923565b61190b8383611830565b806000190482111561191f5761191f61195f565b0290505b92915050565b60008160001904831182151516156119435761194361195f565b500290565b60008282101561195a5761195a61195f565b500390565b634e487b7160e01b600052601160045260246000fd5b74ffffffffffffffffffffffffffffffffffffffffff8116811461199857600080fd5b5056fea26474726f6e58221220f7c394b4d51b5258da201a7dfc314053e234a63dbbafd902683cf8ad866d117b64736f6c63430008060033",
  "source": "// SPDX-License-Identifier: MIT\npragma solidity ^0.8.6;\n\nimport \"@openzeppelin/contracts/token/ERC20/utils/SafeERC20.sol\";\nimport \"@openzeppelin/contracts/token/ERC20/IERC20.sol\";\n// import { Errors } from \"./libraries/Errors.sol\";\nimport \"./Vault.sol\";\nimport \"./System.sol\";\n\ncontract Exchange {\n    using SafeERC20 for IERC20;\n\n    event OrderCreated(\n        bytes32 orderId,\n        address maker,\n        address token0,\n        address token1,\n        uint256 amount,\n        uint256 _exchangeRate,\n        uint256 orderType\n    );\n\n    event PairCreated(\n        bytes32 pairId,\n        address token0,\n        address token1,\n        uint256 exchangeRateDecimals,\n        uint256 minToken0Order,\n        uint256 minToken1Order\n    );\n\n    enum OrderType {\n        LIMITSELL,\n        LIMITBUY\n    }\n\n    struct Order {\n        address maker;\n        address token0;\n        address token1;\n        uint256 orderType;\n        uint256 exchangeRate;\n        uint256 amount;\n        uint256 fill;\n    }\n\n    struct Pair {\n        address token0;\n        address token1;\n        uint256 exchangeRateDecimals;\n        uint256 minToken0Order;\n        uint256 minToken1Order;\n    }\n\n    mapping(bytes32 => Order) public placedOrders;\n    mapping(bytes32 => Pair) public pairs;\n    System public system;\n\n    constructor(address _system) {\n        system = System(_system);\n    }\n\n    function createPair(\n        address token0,\n        address token1,\n        uint256 exchangeRateDecimals,\n        uint256 minToken0Order,\n        uint256 minToken1Order\n    ) external {\n        if(msg.sender != system.admin()) revert(); //Errors.NotAuthorized();\n\n        bytes32 pairHash = keccak256(abi.encodePacked(token0, token1));\n        Pair storage pair = pairs[pairHash];\n        pair.token0 = token0;\n        pair.token1 = token1;\n        pair.exchangeRateDecimals = exchangeRateDecimals;\n        pair.minToken0Order = minToken0Order;\n        pair.minToken1Order = minToken1Order;\n\n        emit PairCreated(\n            pairHash,\n            token0,\n            token1,\n            exchangeRateDecimals,\n            minToken0Order,\n            minToken1Order\n        );\n    }\n\n    function createLimitOrder(\n        address token0,\n        address token1,\n        uint256 amount,\n        uint256 orderType,\n        uint256 exchangeRate\n    ) external {\n\n        Pair memory pair = pairs[keccak256(abi.encodePacked(token0, token1))];\n        if(pair.token0 == address(0)) revert(); // Errors.PairNotSupported();\n\n        /* -------------------------------------------------------------------------- */\n        /*                                 Validation                                 */\n        /* -------------------------------------------------------------------------- */\n\n        // exchange rate validation\n        if(exchangeRate == 0) revert(); // Errors.InvalidExchangeRate(exchangeRate);\n\n        // check for minimum order size\n        if (orderType == uint256(OrderType.LIMITSELL)) {\n            if (amount < pair.minToken0Order) revert(); // Errors.InvalidOrderAmount(amount);\n        } else if (orderType == uint256(OrderType.LIMITBUY)) {\n            if (amount < pair.minToken1Order) revert(); // Errors.InvalidOrderAmount(amount);\n        } else {\n            revert(); // Errors.InvalidOrderType(orderType);\n        }\n\n        // if (\n        //     orderType == uint256(OrderType.LIMITSELL) &&\n        //     uint256(token1Amt / token0Amt) != exchangeRate\n        // ) revert(); // Errors.InvalidExchangeRate();\n\n        bytes32 orderHash = keccak256(abi.encode(\n            msg.sender,         // maker\n            token0,             // token0\n            token1,             // token1\n            amount,             // amount\n            orderType,          // orderType\n            exchangeRate        // exchangeRate\n        ));\n\n        Order storage order = placedOrders[orderHash];\n        order.maker = msg.sender;\n        // order.srcAmount = token0Amt;\n        order.token0 = token0;\n        order.token1 = token1;\n        order.exchangeRate = exchangeRate;\n\n        if (orderType == uint256(OrderType.LIMITSELL)) {\n            order.amount = amount;\n            system.vault().lockToken(order.token0, amount, msg.sender);\n        } else if (orderType == uint256(OrderType.LIMITBUY)) {\n            order.amount = amount;\n            system.vault().lockToken(order.token1, amount, msg.sender);\n        }\n\n        emit OrderCreated(\n            orderHash,\n            msg.sender,\n            token0,\n            token1,\n            amount,\n            exchangeRate,\n            orderType\n        );\n    }\n\n    function updateLimitOrder(bytes32 orderId, uint256 amount) external {\n        Order storage order = placedOrders[orderId];\n\n        address token = order.orderType == uint256(OrderType.LIMITSELL)\n            ? order.token0\n            : order.token1;\n        \n        if (order.amount < amount) {\n            uint extraAmount = amount - order.amount;\n            system.vault().lockToken(token, extraAmount, msg.sender);\n            system.vault().decreaseBalance(token, extraAmount, order.maker);\n        } else if (order.amount > amount) {\n            uint lessAmount = order.amount - amount;\n            system.vault().unlockToken(token, lessAmount, msg.sender);\n            system.vault().increaseBalance(token, lessAmount, order.maker);\n        }\n\n        order.amount = amount;\n    }\n\n    function executeLimitOrder(bytes32 orderId, uint256 fillAmount) external {\n        // Order\n        Order memory order = placedOrders[orderId];\n        /* -------------------------------------------------------------------------- */\n        /*                                 Validation                                 */\n        /* -------------------------------------------------------------------------- */\n        if(order.maker == address(0)) revert(); // Errors.OrderNotFound(orderId);\n        if(order.amount - order.fill < fillAmount) revert(); // Errors.ZeroAmt();\n        \n        // Pair\n        Pair memory pair = pairs[keccak256(abi.encodePacked(order.token0, order.token1))];\n\n        uint256 token1Amount = fillAmount * order.exchangeRate / 10**pair.exchangeRateDecimals;\n\n        if (order.orderType == uint256(OrderType.LIMITSELL)) {\n            // decrement maker's token0 balance\n            system.vault().unlockToken(order.token0, fillAmount, order.maker);\n            system.vault().decreaseBalance(order.token0, fillAmount, order.maker);\n            // decrement msg.sender's token1 balance\n            system.vault().decreaseBalance(order.token1, token1Amount, msg.sender);\n            // increment msg.sender's token0 balance\n            system.vault().increaseBalance(order.token0, fillAmount, msg.sender);\n            // increment maker's token1 balance\n            system.vault().increaseBalance(order.token1, token1Amount, order.maker);\n        } else if (order.orderType == uint256(OrderType.LIMITBUY)) {\n            // decrement maker's token1 balance\n            system.vault().unlockToken(order.token1, token1Amount, order.maker);\n            system.vault().decreaseBalance(order.token1, token1Amount, order.maker);\n            // decrement msg.sender's token0 balance\n            system.vault().decreaseBalance(order.token0, fillAmount, msg.sender);\n            // increment msg.sender's token1 balance\n            system.vault().increaseBalance(order.token1, token1Amount, msg.sender);\n            // increment maker's token0 balance\n            system.vault().increaseBalance(order.token0, fillAmount, order.maker);\n        }\n    }\n}\n",
  "sourcePath": "/Users/prasad/projects/synthex/dex/contracts/Exchange.sol",
  "compiler": {
    "name": "solc",
    "version": "0.8.6+commit.0e36fba0.mod.Emscripten.clang"
  },
  "schemaVersion": "2.0.1",
  "updatedAt": "2022-10-31T07:02:14.450Z"
}