{
  "contractName": "Exchange",
  "abi": [
    {
      "inputs": [
        {
          "internalType": "address",
          "name": "_system",
          "type": "address"
        }
      ],
      "stateMutability": "nonpayable",
      "type": "constructor"
    },
    {
      "anonymous": false,
      "inputs": [
        {
          "indexed": false,
          "internalType": "bytes32",
          "name": "orderId",
          "type": "bytes32"
        },
        {
          "indexed": false,
          "internalType": "bytes32",
          "name": "pair",
          "type": "bytes32"
        },
        {
          "indexed": false,
          "internalType": "address",
          "name": "maker",
          "type": "address"
        },
        {
          "indexed": false,
          "internalType": "uint256",
          "name": "amount",
          "type": "uint256"
        },
        {
          "indexed": false,
          "internalType": "uint256",
          "name": "exchangeRate",
          "type": "uint256"
        },
        {
          "indexed": false,
          "internalType": "uint256",
          "name": "orderType",
          "type": "uint256"
        }
      ],
      "name": "OrderCreated",
      "type": "event"
    },
    {
      "anonymous": false,
      "inputs": [
        {
          "indexed": false,
          "internalType": "bytes32",
          "name": "orderId",
          "type": "bytes32"
        },
        {
          "indexed": false,
          "internalType": "address",
          "name": "taker",
          "type": "address"
        },
        {
          "indexed": false,
          "internalType": "uint256",
          "name": "fillAmount",
          "type": "uint256"
        }
      ],
      "name": "OrderExecuted",
      "type": "event"
    },
    {
      "anonymous": false,
      "inputs": [
        {
          "indexed": false,
          "internalType": "bytes32",
          "name": "orderId",
          "type": "bytes32"
        },
        {
          "indexed": false,
          "internalType": "uint256",
          "name": "amount",
          "type": "uint256"
        }
      ],
      "name": "OrderUpdated",
      "type": "event"
    },
    {
      "anonymous": false,
      "inputs": [
        {
          "indexed": false,
          "internalType": "bytes32",
          "name": "pairId",
          "type": "bytes32"
        },
        {
          "indexed": false,
          "internalType": "address",
          "name": "token0",
          "type": "address"
        },
        {
          "indexed": false,
          "internalType": "address",
          "name": "token1",
          "type": "address"
        },
        {
          "indexed": false,
          "internalType": "uint256",
          "name": "exchangeRateDecimals",
          "type": "uint256"
        },
        {
          "indexed": false,
          "internalType": "uint256",
          "name": "minToken0Order",
          "type": "uint256"
        }
      ],
      "name": "PairCreated",
      "type": "event"
    },
    {
      "inputs": [
        {
          "internalType": "address",
          "name": "token0",
          "type": "address"
        },
        {
          "internalType": "address",
          "name": "token1",
          "type": "address"
        },
        {
          "internalType": "uint256",
          "name": "amount",
          "type": "uint256"
        },
        {
          "internalType": "uint256",
          "name": "orderType",
          "type": "uint256"
        },
        {
          "internalType": "uint256",
          "name": "exchangeRate",
          "type": "uint256"
        },
        {
          "internalType": "uint256",
          "name": "salt",
          "type": "uint256"
        }
      ],
      "name": "createLimitOrder",
      "outputs": [],
      "stateMutability": "nonpayable",
      "type": "function"
    },
    {
      "inputs": [
        {
          "internalType": "address",
          "name": "token0",
          "type": "address"
        },
        {
          "internalType": "address",
          "name": "token1",
          "type": "address"
        },
        {
          "internalType": "uint256",
          "name": "exchangeRateDecimals",
          "type": "uint256"
        },
        {
          "internalType": "uint256",
          "name": "minToken0Order",
          "type": "uint256"
        }
      ],
      "name": "createPair",
      "outputs": [],
      "stateMutability": "nonpayable",
      "type": "function"
    },
    {
      "inputs": [
        {
          "internalType": "address",
          "name": "token0",
          "type": "address"
        },
        {
          "internalType": "address",
          "name": "token1",
          "type": "address"
        },
        {
          "internalType": "uint256",
          "name": "amount",
          "type": "uint256"
        },
        {
          "internalType": "uint256",
          "name": "exchangeRate",
          "type": "uint256"
        },
        {
          "internalType": "uint256",
          "name": "orderType",
          "type": "uint256"
        },
        {
          "internalType": "bytes32[]",
          "name": "ordersToExecute",
          "type": "bytes32[]"
        }
      ],
      "name": "executeAndPlaceOrder",
      "outputs": [],
      "stateMutability": "nonpayable",
      "type": "function"
    },
    {
      "inputs": [
        {
          "internalType": "bytes32",
          "name": "orderId",
          "type": "bytes32"
        },
        {
          "internalType": "uint256",
          "name": "fillAmount",
          "type": "uint256"
        }
      ],
      "name": "executeLimitOrder",
      "outputs": [
        {
          "internalType": "uint256",
          "name": "",
          "type": "uint256"
        }
      ],
      "stateMutability": "nonpayable",
      "type": "function"
    },
    {
      "inputs": [
        {
          "internalType": "bytes32",
          "name": "",
          "type": "bytes32"
        }
      ],
      "name": "pairs",
      "outputs": [
        {
          "internalType": "address",
          "name": "token0",
          "type": "address"
        },
        {
          "internalType": "address",
          "name": "token1",
          "type": "address"
        },
        {
          "internalType": "uint256",
          "name": "exchangeRateDecimals",
          "type": "uint256"
        },
        {
          "internalType": "uint256",
          "name": "minToken0Order",
          "type": "uint256"
        }
      ],
      "stateMutability": "view",
      "type": "function"
    },
    {
      "inputs": [
        {
          "internalType": "bytes32",
          "name": "",
          "type": "bytes32"
        }
      ],
      "name": "placedOrders",
      "outputs": [
        {
          "internalType": "address",
          "name": "maker",
          "type": "address"
        },
        {
          "internalType": "address",
          "name": "token0",
          "type": "address"
        },
        {
          "internalType": "address",
          "name": "token1",
          "type": "address"
        },
        {
          "internalType": "uint256",
          "name": "orderType",
          "type": "uint256"
        },
        {
          "internalType": "uint256",
          "name": "exchangeRate",
          "type": "uint256"
        },
        {
          "internalType": "uint256",
          "name": "amount",
          "type": "uint256"
        }
      ],
      "stateMutability": "view",
      "type": "function"
    },
    {
      "inputs": [],
      "name": "system",
      "outputs": [
        {
          "internalType": "contract System",
          "name": "",
          "type": "address"
        }
      ],
      "stateMutability": "view",
      "type": "function"
    },
    {
      "inputs": [
        {
          "internalType": "bytes32",
          "name": "orderId",
          "type": "bytes32"
        },
        {
          "internalType": "uint256",
          "name": "amount",
          "type": "uint256"
        }
      ],
      "name": "updateLimitOrder",
      "outputs": [],
      "stateMutability": "nonpayable",
      "type": "function"
    }
  ],
  "bytecode": "0x60806040523480156200001157600080fd5b50d380156200001f57600080fd5b50d280156200002d57600080fd5b50604051620026eb380380620026eb833981016040819052620000509162000076565b600280546001600160a01b0319166001600160a01b0392909216919091179055620000b1565b6000602082840312156200008957600080fd5b81516001600160a81b0381168114620000a157600080fd5b6001600160a01b03169392505050565b61262a80620000c16000396000f3fe608060405234801561001057600080fd5b50d3801561001d57600080fd5b50d2801561002a57600080fd5b50600436106100a25760003560e01c80635ed4e30f116100755780635ed4e30f14610176578063673e04811461018957806395bf75fd146101f8578063cd85fc2a1461022357600080fd5b8063035f962d146100a75780631e41be5a146100bc57806321a18818146101505780635d75cb3d14610163575b600080fd5b6100ba6100b5366004612225565b610244565b005b61010d6100ca3660046123f3565b6000602081905290815260409020805460018201546002830154600384015460048501546005909501546001600160a01b03948516959385169490921692909186565b604080516001600160a01b039788168152958716602087015293909516928401929092526060830152608082015260a081019190915260c0015b60405180910390f35b6100ba61015e36600461240c565b610411565b6100ba61017136600461238d565b6109df565b6100ba610184366004612278565b61107a565b6101cd6101973660046123f3565b600160208190526000918252604090912080549181015460028201546003909201546001600160a01b0393841693909116919084565b604080516001600160a01b039586168152949093166020850152918301526060820152608001610147565b60025461020b906001600160a01b031681565b6040516001600160a01b039091168152602001610147565b61023661023136600461240c565b61138a565b604051908152602001610147565b600260009054906101000a90046001600160a01b03166001600160a01b031663f851a4406040518163ffffffff1660e01b815260040160206040518083038186803b15801561029257600080fd5b505afa1580156102a6573d6000803e3d6000fd5b505050506040513d601f19601f820116820180604052508101906102ca91906121f8565b6001600160a01b0316336001600160a01b03161461031f5760405162461bcd60e51b815260206004820152600d60248201526c139bdd105d5d1a1bdc9a5e9959609a1b60448201526064015b60405180910390fd5b6040516bffffffffffffffffffffffff19606086811b8216602084015285901b16603482015260009060480160408051601f198184030181528282528051602091820120600081815260018084529084902080546001600160a01b038c811673ffffffffffffffffffffffffffffffffffffffff19928316811784559383018054918d16919092168117909155600282018a905560038201899055838752938601919091529284019190915260608301869052608083018590529250907f732bafb093086e9f79f6befb608725f1e4ce5f5047c12771a4a79aabd6f10f7a9060a00160405180910390a1505050505050565b600082815260208190526040902080546001600160a01b031633146104685760405162461bcd60e51b815260206004820152600d60248201526c139bdd105d5d1a1bdc9a5e9959609a1b6044820152606401610316565b600181810154600280840154604080516bffffffffffffffffffffffff19606086811b821660208085019190915294901b16603482015281518082036028018152604882018084528151918501919091206000908152938790529282902060c8820190925281546001600160a01b03908116845295820154861660688201529281015460888401526003015460a890920191909152600584015490929091169084111561075e5760006105288460050154866121b790919063ffffffff16565b905060018460030154141561057657600284015460408401516001600160a01b0390911692506105739061055d90600a612493565b600486015461056d9084906121ca565b906121d6565b90505b600260009054906101000a90046001600160a01b03166001600160a01b031663fbfa77cf6040518163ffffffff1660e01b815260040160206040518083038186803b1580156105c457600080fd5b505afa1580156105d8573d6000803e3d6000fd5b505050506040513d601f19601f820116820180604052508101906105fc91906121f8565b60405163013d64e560e31b81526001600160a01b0384811660048301526024820184905233604483015291909116906309eb272890606401600060405180830381600087803b15801561064e57600080fd5b505af1158015610662573d6000803e3d6000fd5b50505050600260009054906101000a90046001600160a01b03166001600160a01b031663fbfa77cf6040518163ffffffff1660e01b815260040160206040518083038186803b1580156106b457600080fd5b505afa1580156106c8573d6000803e3d6000fd5b505050506040513d601f19601f820116820180604052508101906106ec91906121f8565b8454604051632402285360e11b81526001600160a01b03858116600483015260248201859052918216604482015291169063480450a690606401600060405180830381600087803b15801561074057600080fd5b505af1158015610754573d6000803e3d6000fd5b5050505050610998565b838360050154111561099857600583015460009061077c90866121b7565b90506001846003015414156107b457600284015460408401516001600160a01b0390911692506107b19061055d90600a612493565b90505b600260009054906101000a90046001600160a01b03166001600160a01b031663fbfa77cf6040518163ffffffff1660e01b815260040160206040518083038186803b15801561080257600080fd5b505afa158015610816573d6000803e3d6000fd5b505050506040513d601f19601f8201168201806040525081019061083a91906121f8565b604051635a9c78ab60e01b81526001600160a01b038481166004830152602482018490523360448301529190911690635a9c78ab90606401600060405180830381600087803b15801561088c57600080fd5b505af11580156108a0573d6000803e3d6000fd5b50505050600260009054906101000a90046001600160a01b03166001600160a01b031663fbfa77cf6040518163ffffffff1660e01b815260040160206040518083038186803b1580156108f257600080fd5b505afa158015610906573d6000803e3d6000fd5b505050506040513d601f19601f8201168201806040525081019061092a91906121f8565b845460405163f4ac627560e01b81526001600160a01b03858116600483015260248201859052918216604482015291169063f4ac627590606401600060405180830381600087803b15801561097e57600080fd5b505af1158015610992573d6000803e3d6000fd5b50505050505b6005830184905560408051868152602081018690527f1bb494197f9246bf49bc5e335e8a79e33601e963e980da969cd930ff418275cf910160405180910390a15050505050565b6040516bffffffffffffffffffffffff19606088811b8216602084015287901b16603482015260009060480160408051601f198184030181528282528051602091820120600081815260018084529084902060808601855280546001600160a01b0390811680885292820154169386019390935260028301549385019390935260039091015460608401529250610ab85760405162461bcd60e51b815260206004820152601060248201527f506169724e6f74537570706f72746564000000000000000000000000000000006044820152606401610316565b83610b055760405162461bcd60e51b815260206004820152601360248201527f496e76616c696445786368616e676552617465000000000000000000000000006044820152606401610316565b8060600151861015610b595760405162461bcd60e51b815260206004820152601260248201527f496e76616c69644f72646572416d6f756e7400000000000000000000000000006044820152606401610316565b604080513360208083018290526001600160a01b038c8116848601819052908c1660608501819052608085018c905260a085018b905260c085018a905260e08086018a905286518087039091018152610100909501865284519483019490942060008181529283905294909120805473ffffffffffffffffffffffffffffffffffffffff1990811690931781556001810180548416909217909155600281018054909216909217905560048101869055600581018890556003810187905586610e0757600260009054906101000a90046001600160a01b03166001600160a01b031663fbfa77cf6040518163ffffffff1660e01b815260040160206040518083038186803b158015610c6a57600080fd5b505afa158015610c7e573d6000803e3d6000fd5b505050506040513d601f19601f82011682018060405250810190610ca291906121f8565b600182015460405163013d64e560e31b81526001600160a01b039182166004820152602481018b90523360448201529116906309eb272890606401600060405180830381600087803b158015610cf757600080fd5b505af1158015610d0b573d6000803e3d6000fd5b50505050600260009054906101000a90046001600160a01b03166001600160a01b031663fbfa77cf6040518163ffffffff1660e01b815260040160206040518083038186803b158015610d5d57600080fd5b505afa158015610d71573d6000803e3d6000fd5b505050506040513d601f19601f82011682018060405250810190610d9591906121f8565b6001820154604051632402285360e11b81526001600160a01b039182166004820152602481018b905233604482015291169063480450a690606401600060405180830381600087803b158015610dea57600080fd5b505af1158015610dfe573d6000803e3d6000fd5b5050505061101a565b600187141561101a576000610e308460400151600a610e269190612493565b61056d8b8a6121ca565b9050600260009054906101000a90046001600160a01b03166001600160a01b031663fbfa77cf6040518163ffffffff1660e01b815260040160206040518083038186803b158015610e8057600080fd5b505afa158015610e94573d6000803e3d6000fd5b505050506040513d601f19601f82011682018060405250810190610eb891906121f8565b600283015460405163013d64e560e31b81526001600160a01b039182166004820152602481018490523360448201529116906309eb272890606401600060405180830381600087803b158015610f0d57600080fd5b505af1158015610f21573d6000803e3d6000fd5b50505050600260009054906101000a90046001600160a01b03166001600160a01b031663fbfa77cf6040518163ffffffff1660e01b815260040160206040518083038186803b158015610f7357600080fd5b505afa158015610f87573d6000803e3d6000fd5b505050506040513d601f19601f82011682018060405250810190610fab91906121f8565b6002830154604051632402285360e11b81526001600160a01b0391821660048201526024810184905233604482015291169063480450a690606401600060405180830381600087803b15801561100057600080fd5b505af1158015611014573d6000803e3d6000fd5b50505050505b60408051838152602081018690523381830152606081018a90526080810188905260a0810189905290517fabccbdb72f604a66dd5a2b37770209badc71059d3f5396047334f7c95971eca99181900360c00190a150505050505050505050565b60005b815181101561137257600080600084848151811061109d5761109d6125a2565b6020908102919091018101518252818101929092526040908101600020815160c08101835281546001600160a01b039081168252600183015481169482018590526002830154811693820193909352600382015460608201526004820154608082015260059091015460a0820152925089161461115c5760405162461bcd60e51b815260206004820152600e60248201527f496e76616c696420546f6b656e300000000000000000000000000000000000006044820152606401610316565b866001600160a01b031681604001516001600160a01b0316146111c15760405162461bcd60e51b815260206004820152600e60248201527f496e76616c696420546f6b656e310000000000000000000000000000000000006044820152606401610316565b60028160600151106112155760405162461bcd60e51b815260206004820152601260248201527f496e76616c6964204f72646572205479706500000000000000000000000000006044820152606401610316565b83816060015114156112695760405162461bcd60e51b815260206004820152601260248201527f496e76616c6964204f72646572205479706500000000000000000000000000006044820152606401610316565b836112c75780608001518511156112c25760405162461bcd60e51b815260206004820152601560248201527f496e76616c69642045786368616e6765205261746500000000000000000000006044820152606401610316565b611324565b60018414156113245780608001518510156113245760405162461bcd60e51b815260206004820152601560248201527f496e76616c69642045786368616e6765205261746500000000000000000000006044820152606401610316565b61135161134a84848151811061133c5761133c6125a2565b60200260200101518861138a565b87906121b7565b95508561135f575050611382565b508061136a81612571565b91505061107d565b50611382868686858760006109df565b505050505050565b600082815260208190526040812080546001600160a01b03166113ef5760405162461bcd60e51b815260206004820152600d60248201527f4f726465724e6f74466f756e64000000000000000000000000000000000000006044820152606401610316565b600181810154600280840154604080516bffffffffffffffffffffffff19606095861b81166020808401919091529390951b909416603485015280518085036028018152604885018083528151918401919091206000908152928690529181902060c8850190915280546001600160a01b03908116835294810154909416606884015290830154608883015260039092015460a89091015260058201546114979085906121e2565b9350838260050160008282546114ad919061255a565b909155505060408101516000906114c590600a612493565b60048401546114d4908761253b565b6114de919061242e565b9050600083600301541415611b1d57600260009054906101000a90046001600160a01b03166001600160a01b031663fbfa77cf6040518163ffffffff1660e01b815260040160206040518083038186803b15801561153b57600080fd5b505afa15801561154f573d6000803e3d6000fd5b505050506040513d601f19601f8201168201806040525081019061157391906121f8565b60018401548454604051635a9c78ab60e01b81526001600160a01b039283166004820152602481018990529082166044820152911690635a9c78ab90606401600060405180830381600087803b1580156115cc57600080fd5b505af11580156115e0573d6000803e3d6000fd5b50505050600260009054906101000a90046001600160a01b03166001600160a01b031663fbfa77cf6040518163ffffffff1660e01b815260040160206040518083038186803b15801561163257600080fd5b505afa158015611646573d6000803e3d6000fd5b505050506040513d601f19601f8201168201806040525081019061166a91906121f8565b60018401548454604051632402285360e11b81526001600160a01b03928316600482015260248101899052908216604482015291169063480450a690606401600060405180830381600087803b1580156116c357600080fd5b505af11580156116d7573d6000803e3d6000fd5b50505050600260009054906101000a90046001600160a01b03166001600160a01b031663fbfa77cf6040518163ffffffff1660e01b815260040160206040518083038186803b15801561172957600080fd5b505afa15801561173d573d6000803e3d6000fd5b505050506040513d601f19601f8201168201806040525081019061176191906121f8565b600184015460405163f4ac627560e01b81526001600160a01b0391821660048201526024810188905233604482015291169063f4ac627590606401600060405180830381600087803b1580156117b657600080fd5b505af11580156117ca573d6000803e3d6000fd5b50505050600260009054906101000a90046001600160a01b03166001600160a01b031663fbfa77cf6040518163ffffffff1660e01b815260040160206040518083038186803b15801561181c57600080fd5b505afa158015611830573d6000803e3d6000fd5b505050506040513d601f19601f8201168201806040525081019061185491906121f8565b6002840154604051632402285360e11b81526001600160a01b0391821660048201526024810184905233604482015291169063480450a690606401600060405180830381600087803b1580156118a957600080fd5b505af11580156118bd573d6000803e3d6000fd5b50505050600260009054906101000a90046001600160a01b03166001600160a01b031663fbfa77cf6040518163ffffffff1660e01b815260040160206040518083038186803b15801561190f57600080fd5b505afa158015611923573d6000803e3d6000fd5b505050506040513d601f19601f8201168201806040525081019061194791906121f8565b6002840154845460405163f4ac627560e01b81526001600160a01b03928316600482015260248101859052908216604482015291169063f4ac627590606401600060405180830381600087803b1580156119a057600080fd5b505af11580156119b4573d6000803e3d6000fd5b50505050816060015183600501541015611b1857600260009054906101000a90046001600160a01b03166001600160a01b031663fbfa77cf6040518163ffffffff1660e01b815260040160206040518083038186803b158015611a1657600080fd5b505afa158015611a2a573d6000803e3d6000fd5b505050506040513d601f19601f82011682018060405250810190611a4e91906121f8565b600184015460058501548554604051635a9c78ab60e01b81526001600160a01b039384166004820152602481019290925282166044820152911690635a9c78ab906064015b600060405180830381600087803b158015611aad57600080fd5b505af1158015611ac1573d6000803e3d6000fd5b5050506000878152602081905260408120805473ffffffffffffffffffffffffffffffffffffffff199081168255600182018054821690556002820180549091169055600381018290556004810182905560050155505b61216a565b60018360030154141561212257600260009054906101000a90046001600160a01b03166001600160a01b031663fbfa77cf6040518163ffffffff1660e01b815260040160206040518083038186803b158015611b7857600080fd5b505afa158015611b8c573d6000803e3d6000fd5b505050506040513d601f19601f82011682018060405250810190611bb091906121f8565b6001840154604051632402285360e11b81526001600160a01b0391821660048201526024810188905233604482015291169063480450a690606401600060405180830381600087803b158015611c0557600080fd5b505af1158015611c19573d6000803e3d6000fd5b50505050600260009054906101000a90046001600160a01b03166001600160a01b031663fbfa77cf6040518163ffffffff1660e01b815260040160206040518083038186803b158015611c6b57600080fd5b505afa158015611c7f573d6000803e3d6000fd5b505050506040513d601f19601f82011682018060405250810190611ca391906121f8565b6001840154845460405163f4ac627560e01b81526001600160a01b03928316600482015260248101899052908216604482015291169063f4ac627590606401600060405180830381600087803b158015611cfc57600080fd5b505af1158015611d10573d6000803e3d6000fd5b50505050600260009054906101000a90046001600160a01b03166001600160a01b031663fbfa77cf6040518163ffffffff1660e01b815260040160206040518083038186803b158015611d6257600080fd5b505afa158015611d76573d6000803e3d6000fd5b505050506040513d601f19601f82011682018060405250810190611d9a91906121f8565b60028401548454604051635a9c78ab60e01b81526001600160a01b039283166004820152602481018590529082166044820152911690635a9c78ab90606401600060405180830381600087803b158015611df357600080fd5b505af1158015611e07573d6000803e3d6000fd5b50505050600260009054906101000a90046001600160a01b03166001600160a01b031663fbfa77cf6040518163ffffffff1660e01b815260040160206040518083038186803b158015611e5957600080fd5b505afa158015611e6d573d6000803e3d6000fd5b505050506040513d601f19601f82011682018060405250810190611e9191906121f8565b60028401548454604051632402285360e11b81526001600160a01b03928316600482015260248101859052908216604482015291169063480450a690606401600060405180830381600087803b158015611eea57600080fd5b505af1158015611efe573d6000803e3d6000fd5b50505050600260009054906101000a90046001600160a01b03166001600160a01b031663fbfa77cf6040518163ffffffff1660e01b815260040160206040518083038186803b158015611f5057600080fd5b505afa158015611f64573d6000803e3d6000fd5b505050506040513d601f19601f82011682018060405250810190611f8891906121f8565b600284015460405163f4ac627560e01b81526001600160a01b0391821660048201526024810184905233604482015291169063f4ac627590606401600060405180830381600087803b158015611fdd57600080fd5b505af1158015611ff1573d6000803e3d6000fd5b50505050816060015183600501541015611b1857600260009054906101000a90046001600160a01b03166001600160a01b031663fbfa77cf6040518163ffffffff1660e01b815260040160206040518083038186803b15801561205357600080fd5b505afa158015612067573d6000803e3d6000fd5b505050506040513d601f19601f8201168201806040525081019061208b91906121f8565b600284015460408401516001600160a01b0392831692635a9c78ab9216906120cb906120b890600a612493565b6004880154600589015461056d916121ca565b865460405160e085901b7fffffffff000000000000000000000000000000000000000000000000000000001681526001600160a01b0393841660048201526024810192909252919091166044820152606401611a93565b60405162461bcd60e51b815260206004820152601060248201527f496e76616c69644f7264657254797065000000000000000000000000000000006044820152606401610316565b604080518781523360208201529081018690527fe96da7d7f9b1253f3f855c25f35f32d0a83a96c1a75acdecf0f3bc7cc3bb1ccf9060600160405180910390a18493505050505b92915050565b60006121c3828461255a565b9392505050565b60006121c3828461253b565b60006121c3828461242e565b60008183106121f157816121c3565b5090919050565b60006020828403121561220a57600080fd5b8151612215816125ce565b6001600160a01b03169392505050565b6000806000806080858703121561223b57600080fd5b8435612246816125ce565b6001600160a01b039081169450602086013590612262826125ce565b9497941695505050506040820135916060013590565b60008060008060008060c0878903121561229157600080fd5b863561229c816125ce565b6001600160a01b039081169650602090888201356122b9816125ce565b16955060408801359450606088013593506080880135925060a088013567ffffffffffffffff808211156122ec57600080fd5b818a0191508a601f83011261230057600080fd5b813581811115612312576123126125b8565b8060051b604051601f19603f83011681018181108582111715612337576123376125b8565b604052828152858101935084860182860187018f101561235657600080fd5b600095505b8386101561237957803585526001959095019493860193860161235b565b508096505050505050509295509295509295565b60008060008060008060c087890312156123a657600080fd5b86356123b1816125ce565b6001600160a01b0390811696506020880135906123cd826125ce565b9699961697505050506040840135936060810135936080820135935060a0909101359150565b60006020828403121561240557600080fd5b5035919050565b6000806040838503121561241f57600080fd5b50508035926020909101359150565b60008261244b57634e487b7160e01b600052601260045260246000fd5b500490565b600181815b8085111561248b5781600019048211156124715761247161258c565b8085161561247e57918102915b93841c9390800290612455565b509250929050565b60006121c383836000826124a9575060016121b1565b816124b6575060006121b1565b81600181146124cc57600281146124d6576124f2565b60019150506121b1565b60ff8411156124e7576124e761258c565b50506001821b6121b1565b5060208310610133831016604e8410600b8410161715612515575081810a6121b1565b61251f8383612450565b80600019048211156125335761253361258c565b029392505050565b60008160001904831182151516156125555761255561258c565b500290565b60008282101561256c5761256c61258c565b500390565b60006000198214156125855761258561258c565b5060010190565b634e487b7160e01b600052601160045260246000fd5b634e487b7160e01b600052603260045260246000fd5b634e487b7160e01b600052604160045260246000fd5b74ffffffffffffffffffffffffffffffffffffffffff811681146125f157600080fd5b5056fea26474726f6e582212208ad998ddaff491c266ff73d9e1a75fcb44ffc2b917c56417ef9e73be6ec7c55d64736f6c63430008060033",
  "source": "// SPDX-License-Identifier: MIT\npragma solidity ^0.8.6;\n\nimport \"@openzeppelin/contracts/token/ERC20/utils/SafeERC20.sol\";\nimport \"@openzeppelin/contracts/token/ERC20/IERC20.sol\";\n// import { Errors } from \"./libraries/Errors.sol\";\nimport \"./Vault.sol\";\nimport \"./System.sol\";\nimport \"@openzeppelin/contracts/utils/math/SafeMath.sol\";\nimport \"@openzeppelin/contracts/utils/math/Math.sol\";\nimport 'hardhat/console.sol';\n\ncontract Exchange {\n    using SafeERC20 for IERC20;\n    using Math for uint256;\n    using SafeMath for uint256;\n    event OrderCreated(\n        bytes32 orderId,\n        bytes32 pair,\n        address maker,\n        uint256 amount,\n        uint256 exchangeRate,\n        uint256 orderType\n    );\n\n    event OrderUpdated(\n        bytes32 orderId,\n        uint256 amount\n    );\n\n    event OrderExecuted(bytes32 orderId, address taker, uint fillAmount);\n\n    event PairCreated(\n        bytes32 pairId,\n        address token0,\n        address token1,\n        uint256 exchangeRateDecimals,\n        uint256 minToken0Order\n    );\n\n    enum OrderType {\n        LIMITSELL,\n        LIMITBUY\n    }\n\n    struct Order {\n        address maker;\n        address token0;\n        address token1;\n        uint256 orderType;\n        uint256 exchangeRate;\n        uint256 amount; // amount of token0\n    }\n\n    struct Pair {\n        address token0;\n        address token1;\n        uint256 exchangeRateDecimals;\n        uint256 minToken0Order;\n    }\n\n    mapping(bytes32 => Order) public placedOrders;\n    mapping(bytes32 => Pair) public pairs;\n    System public system;\n\n    constructor(address _system) {\n        system = System(_system);\n    }\n\n    function createPair(\n        address token0,\n        address token1,\n        uint256 exchangeRateDecimals,\n        uint256 minToken0Order\n    ) external {\n        if(msg.sender != system.admin()) revert('NotAuthorized'); //Errors.NotAuthorized();\n\n        bytes32 pairHash = keccak256(abi.encodePacked(token0, token1));\n        Pair storage pair = pairs[pairHash];\n        pair.token0 = token0;\n        pair.token1 = token1;\n        pair.exchangeRateDecimals = exchangeRateDecimals;\n        pair.minToken0Order = minToken0Order;\n\n        emit PairCreated(\n            pairHash,\n            token0,\n            token1,\n            exchangeRateDecimals,\n            minToken0Order\n        );\n    }\n\n    function createLimitOrder(\n        address token0,\n        address token1,\n        uint256 amount, // amount of token0 to buy/sell\n        uint256 orderType,\n        uint256 exchangeRate,\n        uint256 salt\n    ) public {\n        bytes32 pairHash = keccak256(abi.encodePacked(token0, token1));\n        Pair memory pair = pairs[pairHash];\n        if(pair.token0 == address(0)) revert('PairNotSupported'); // Errors.PairNotSupported();\n\n        /* -------------------------------------------------------------------------- */\n        /*                                 Validation                                 */\n        /* -------------------------------------------------------------------------- */\n\n        // exchange rate validation\n        if(exchangeRate == 0) revert('InvalidExchangeRate'); // Errors.InvalidExchangeRate(exchangeRate);\n\n        // check for minimum order size        \n        if (amount < pair.minToken0Order) revert('InvalidOrderAmount'); // Errors.InvalidOrderAmount(amount);\n        \n        bytes32 orderHash = keccak256(abi.encode(\n            msg.sender,         // maker\n            token0,             // token0\n            token1,             // token1\n            amount,             // amount\n            orderType,          // orderType\n            exchangeRate,       // exchangeRate\n            salt                // salt\n        ));\n        \n        Order storage order = placedOrders[orderHash];\n        order.maker = msg.sender;\n        // order.srcAmount = token0Amt;\n        order.token0 = token0;\n        order.token1 = token1;\n        order.exchangeRate = exchangeRate;\n        order.amount = amount;\n        order.orderType = orderType;\n\n        // lock token0 or token1\n        if (orderType == uint256(OrderType.LIMITSELL)) {\n            system.vault().lockToken(order.token0, amount, msg.sender);\n            system.vault().decreaseBalance(order.token0, amount, msg.sender);\n        } else if (orderType == uint256(OrderType.LIMITBUY)) {\n            uint token1Amount = amount.mul(exchangeRate).div(10**pair.exchangeRateDecimals);\n            system.vault().lockToken(order.token1, token1Amount, msg.sender);\n            system.vault().decreaseBalance(order.token1, token1Amount, msg.sender);\n        }\n\n        emit OrderCreated(\n            orderHash,\n            pairHash,\n            msg.sender,\n            amount,\n            exchangeRate,\n            orderType\n        );\n    }\n\n    function updateLimitOrder(bytes32 orderId, uint256 amount) external {\n        Order storage order = placedOrders[orderId];\n        if(msg.sender != order.maker) revert('NotAuthorized'); // Errors.NotAuthorized();\n\n        Pair memory pair = pairs[keccak256(abi.encodePacked(order.token0, order.token1))];\n\n        address token = order.token0;\n        if (order.amount < amount) {\n            uint extraAmount = amount.sub(order.amount);\n            if(order.orderType == uint256(OrderType.LIMITBUY)){\n                token = order.token1;\n                extraAmount = extraAmount.mul(order.exchangeRate).div(10**pair.exchangeRateDecimals);\n            }\n            system.vault().lockToken(token, extraAmount, msg.sender);\n            system.vault().decreaseBalance(token, extraAmount, order.maker);\n        } else if (order.amount > amount) {\n            uint lessAmount = order.amount.sub(amount);\n            if(order.orderType == uint256(OrderType.LIMITBUY)){\n                token = order.token1;\n                lessAmount = lessAmount.mul(order.exchangeRate).div(10**pair.exchangeRateDecimals);\n            }\n            system.vault().unlockToken(token, lessAmount, msg.sender);\n            system.vault().increaseBalance(token, lessAmount, order.maker);\n        }\n        // update order amount\n        order.amount = amount;\n\n        emit OrderUpdated(orderId, amount);\n    }\n\n    function executeLimitOrder(bytes32 orderId, uint256 fillAmount) public returns(uint) {\n        // Order\n        Order storage order = placedOrders[orderId];\n        /* -------------------------------------------------------------------------- */\n        /*                                 Validation                                 */\n        /* -------------------------------------------------------------------------- */\n        if(order.maker == address(0)) revert('OrderNotFound'); // Errors.OrderNotFound(orderId);\n\n        // Pair\n        Pair memory pair = pairs[keccak256(abi.encodePacked(order.token0, order.token1))];\n\n\n        // minus fill amount from order\n        fillAmount = fillAmount.min(order.amount);\n        order.amount -= fillAmount;\n\n        uint256 token1FillAmount = fillAmount * order.exchangeRate / 10**pair.exchangeRateDecimals;\n        if (order.orderType == uint256(OrderType.LIMITSELL)) {\n            // unlock and decrement maker's token0 balance\n            // increment msg.sender's token0 balance\n            system.vault().unlockToken(order.token0, fillAmount, order.maker);\n            system.vault().decreaseBalance(order.token0, fillAmount, order.maker);\n            system.vault().increaseBalance(order.token0, fillAmount, msg.sender);\n            // decrement msg.sender's token1 balance\n            // increment maker's token1 balance\n            system.vault().decreaseBalance(order.token1, token1FillAmount, msg.sender);\n            system.vault().increaseBalance(order.token1, token1FillAmount, order.maker);\n\n            // delete order if remaining order amount is less than minOrderAmount\n            if (order.amount < pair.minToken0Order){\n                system.vault().unlockToken(order.token0, order.amount, order.maker);\n                delete placedOrders[orderId];\n            }\n        } else if (order.orderType == uint256(OrderType.LIMITBUY)) {\n            // decrement msg.sender's token0 balance\n            // increment maker's token0 balance\n            system.vault().decreaseBalance(order.token0, fillAmount, msg.sender);\n            system.vault().increaseBalance(order.token0, fillAmount, order.maker);\n            // unlock and decrement maker's token1 balance\n            // increment msg.sender's token1 balance\n            system.vault().unlockToken(order.token1, token1FillAmount, order.maker);\n            system.vault().decreaseBalance(order.token1, token1FillAmount, order.maker);\n            system.vault().increaseBalance(order.token1, token1FillAmount, msg.sender);\n\n            // delete order if remaining order amount is less than minOrderAmount\n            if (order.amount < pair.minToken0Order){\n                system.vault().unlockToken(order.token1, order.amount.mul(order.exchangeRate).div(10**pair.exchangeRateDecimals), order.maker);\n                delete placedOrders[orderId];\n            }\n        }\n        else {\n            revert('InvalidOrderType'); // Errors.InvalidOrderType(order.orderType);\n        }\n\n        emit OrderExecuted(orderId, msg.sender, fillAmount);\n        return fillAmount;\n    }\n\n    function executeAndPlaceOrder(address token0, address token1, uint amount, uint exchangeRate, uint orderType, bytes32[] memory ordersToExecute) external {\n        // execute orders\n        for (uint i = 0; i < ordersToExecute.length; i++) {\n            Order memory order = placedOrders[ordersToExecute[i]];\n            require(order.token0 == token0, 'Invalid Token0');\n            require(order.token1 == token1, 'Invalid Token1');\n            require(order.orderType < 2, 'Invalid Order Type');\n            require(order.orderType != orderType, 'Invalid Order Type');\n\n            // check exchange rate\n            if (orderType == uint256(OrderType.LIMITSELL)) {\n                require(exchangeRate <= order.exchangeRate, 'Invalid Exchange Rate');\n            } else if (orderType == uint256(OrderType.LIMITBUY)) {\n                require(exchangeRate >= order.exchangeRate, 'Invalid Exchange Rate');\n            }\n\n            amount = amount.sub(executeLimitOrder(ordersToExecute[i], amount));\n            if(amount == 0) return;\n        }\n\n        // place order\n        createLimitOrder(token0, token1, amount, orderType, exchangeRate, 0);\n    }\n}\n",
  "sourcePath": "/Users/prasad/projects/synthex/zexe/contracts/Exchange.sol",
  "compiler": {
    "name": "solc",
    "version": "0.8.6+commit.0e36fba0.mod.Emscripten.clang"
  },
  "schemaVersion": "2.0.1",
  "updatedAt": "2022-11-03T07:59:47.099Z"
}