{
  "contractName": "Exchange",
  "abi": [
    {
      "inputs": [
        {
          "internalType": "address",
          "name": "_system",
          "type": "address"
        }
      ],
      "stateMutability": "nonpayable",
      "type": "constructor"
    },
    {
      "anonymous": false,
      "inputs": [
        {
          "indexed": false,
          "internalType": "bytes32",
          "name": "orderId",
          "type": "bytes32"
        },
        {
          "indexed": false,
          "internalType": "bytes32",
          "name": "pair",
          "type": "bytes32"
        },
        {
          "indexed": false,
          "internalType": "address",
          "name": "maker",
          "type": "address"
        },
        {
          "indexed": false,
          "internalType": "uint256",
          "name": "amount",
          "type": "uint256"
        },
        {
          "indexed": false,
          "internalType": "uint256",
          "name": "exchangeRate",
          "type": "uint256"
        },
        {
          "indexed": false,
          "internalType": "uint256",
          "name": "orderType",
          "type": "uint256"
        }
      ],
      "name": "OrderCreated",
      "type": "event"
    },
    {
      "anonymous": false,
      "inputs": [
        {
          "indexed": false,
          "internalType": "bytes32",
          "name": "orderId",
          "type": "bytes32"
        },
        {
          "indexed": false,
          "internalType": "address",
          "name": "taker",
          "type": "address"
        },
        {
          "indexed": false,
          "internalType": "uint256",
          "name": "fillAmount",
          "type": "uint256"
        }
      ],
      "name": "OrderExecuted",
      "type": "event"
    },
    {
      "anonymous": false,
      "inputs": [
        {
          "indexed": false,
          "internalType": "bytes32",
          "name": "pairId",
          "type": "bytes32"
        },
        {
          "indexed": false,
          "internalType": "address",
          "name": "token0",
          "type": "address"
        },
        {
          "indexed": false,
          "internalType": "address",
          "name": "token1",
          "type": "address"
        },
        {
          "indexed": false,
          "internalType": "uint256",
          "name": "exchangeRateDecimals",
          "type": "uint256"
        },
        {
          "indexed": false,
          "internalType": "uint256",
          "name": "minToken0Order",
          "type": "uint256"
        }
      ],
      "name": "PairCreated",
      "type": "event"
    },
    {
      "inputs": [
        {
          "internalType": "address",
          "name": "token0",
          "type": "address"
        },
        {
          "internalType": "address",
          "name": "token1",
          "type": "address"
        },
        {
          "internalType": "uint256",
          "name": "amount",
          "type": "uint256"
        },
        {
          "internalType": "uint256",
          "name": "orderType",
          "type": "uint256"
        },
        {
          "internalType": "uint256",
          "name": "exchangeRate",
          "type": "uint256"
        }
      ],
      "name": "createLimitOrder",
      "outputs": [],
      "stateMutability": "nonpayable",
      "type": "function"
    },
    {
      "inputs": [
        {
          "internalType": "address",
          "name": "token0",
          "type": "address"
        },
        {
          "internalType": "address",
          "name": "token1",
          "type": "address"
        },
        {
          "internalType": "uint256",
          "name": "exchangeRateDecimals",
          "type": "uint256"
        },
        {
          "internalType": "uint256",
          "name": "minToken0Order",
          "type": "uint256"
        }
      ],
      "name": "createPair",
      "outputs": [],
      "stateMutability": "nonpayable",
      "type": "function"
    },
    {
      "inputs": [
        {
          "internalType": "bytes32",
          "name": "orderId",
          "type": "bytes32"
        },
        {
          "internalType": "uint256",
          "name": "fillAmount",
          "type": "uint256"
        }
      ],
      "name": "executeLimitOrder",
      "outputs": [],
      "stateMutability": "nonpayable",
      "type": "function"
    },
    {
      "inputs": [
        {
          "internalType": "bytes32",
          "name": "",
          "type": "bytes32"
        }
      ],
      "name": "pairs",
      "outputs": [
        {
          "internalType": "address",
          "name": "token0",
          "type": "address"
        },
        {
          "internalType": "address",
          "name": "token1",
          "type": "address"
        },
        {
          "internalType": "uint256",
          "name": "exchangeRateDecimals",
          "type": "uint256"
        },
        {
          "internalType": "uint256",
          "name": "minToken0Order",
          "type": "uint256"
        }
      ],
      "stateMutability": "view",
      "type": "function"
    },
    {
      "inputs": [
        {
          "internalType": "bytes32",
          "name": "",
          "type": "bytes32"
        }
      ],
      "name": "placedOrders",
      "outputs": [
        {
          "internalType": "address",
          "name": "maker",
          "type": "address"
        },
        {
          "internalType": "address",
          "name": "token0",
          "type": "address"
        },
        {
          "internalType": "address",
          "name": "token1",
          "type": "address"
        },
        {
          "internalType": "uint256",
          "name": "orderType",
          "type": "uint256"
        },
        {
          "internalType": "uint256",
          "name": "exchangeRate",
          "type": "uint256"
        },
        {
          "internalType": "uint256",
          "name": "amount",
          "type": "uint256"
        }
      ],
      "stateMutability": "view",
      "type": "function"
    },
    {
      "inputs": [],
      "name": "system",
      "outputs": [
        {
          "internalType": "contract System",
          "name": "",
          "type": "address"
        }
      ],
      "stateMutability": "view",
      "type": "function"
    },
    {
      "inputs": [
        {
          "internalType": "bytes32",
          "name": "orderId",
          "type": "bytes32"
        },
        {
          "internalType": "uint256",
          "name": "amount",
          "type": "uint256"
        }
      ],
      "name": "updateLimitOrder",
      "outputs": [],
      "stateMutability": "nonpayable",
      "type": "function"
    }
  ],
  "bytecode": "0x60806040523480156200001157600080fd5b50d380156200001f57600080fd5b50d280156200002d57600080fd5b506040516200215538038062002155833981016040819052620000509162000076565b600280546001600160a01b0319166001600160a01b0392909216919091179055620000b1565b6000602082840312156200008957600080fd5b81516001600160a81b0381168114620000a157600080fd5b6001600160a01b03169392505050565b61209480620000c16000396000f3fe608060405234801561001057600080fd5b50d3801561001d57600080fd5b50d2801561002a57600080fd5b50600436106100975760003560e01c8063673e048111610075578063673e04811461015857806395bf75fd146101c7578063cd85fc2a146101f2578063de1b983b1461020557600080fd5b8063035f962d1461009c5780631e41be5a146100b157806321a1881814610145575b600080fd5b6100af6100aa366004611df3565b610218565b005b6101026100bf366004611ea4565b6000602081905290815260409020805460018201546002830154600384015460048501546005909501546001600160a01b03948516959385169490921692909186565b604080516001600160a01b039788168152958716602087015293909516928401929092526060830152608082015260a081019190915260c0015b60405180910390f35b6100af610153366004611ebd565b6103f5565b61019c610166366004611ea4565b600160208190526000918252604090912080549181015460028201546003909201546001600160a01b0393841693909116919084565b604080516001600160a01b03958616815294909316602085015291830152606082015260800161013c565b6002546101da906001600160a01b031681565b6040516001600160a01b03909116815260200161013c565b6100af610200366004611ebd565b610937565b6100af610213366004611e46565b61170e565b600260009054906101000a90046001600160a01b03166001600160a01b031663f851a4406040518163ffffffff1660e01b815260040160206040518083038186803b15801561026657600080fd5b505afa15801561027a573d6000803e3d6000fd5b505050506040513d601f19601f8201168201806040525081019061029e9190611dc6565b6001600160a01b0316336001600160a01b0316146103035760405162461bcd60e51b815260206004820152600d60248201527f4e6f74417574686f72697a65640000000000000000000000000000000000000060448201526064015b60405180910390fd5b6040516bffffffffffffffffffffffff19606086811b8216602084015285901b16603482015260009060480160408051601f198184030181528282528051602091820120600081815260018084529084902080546001600160a01b038c811673ffffffffffffffffffffffffffffffffffffffff19928316811784559383018054918d16919092168117909155600282018a905560038201899055838752938601919091529284019190915260608301869052608083018590529250907f732bafb093086e9f79f6befb608725f1e4ce5f5047c12771a4a79aabd6f10f7a9060a00160405180910390a1505050505050565b6000828152602081815260408083206001808201546002808401548551606084811b6bffffffffffffffffffffffff19908116838b015292901b909116603482015285516028818303018152604882018088528151918901919091208952968490529685902060c8880190955284546001600160a01b0390811687529285015483166068880152840154608887015260039093015460a89095019490945260058101549093909116908411156106f45760006104be846005015486611d9990919063ffffffff16565b905060018460030154141561050c57600284015460408401516001600160a01b039091169250610509906104f390600a611f44565b6004860154610503908490611dae565b90611dba565b90505b600260009054906101000a90046001600160a01b03166001600160a01b031663fbfa77cf6040518163ffffffff1660e01b815260040160206040518083038186803b15801561055a57600080fd5b505afa15801561056e573d6000803e3d6000fd5b505050506040513d601f19601f820116820180604052508101906105929190611dc6565b60405163013d64e560e31b81526001600160a01b0384811660048301526024820184905233604483015291909116906309eb272890606401600060405180830381600087803b1580156105e457600080fd5b505af11580156105f8573d6000803e3d6000fd5b50505050600260009054906101000a90046001600160a01b03166001600160a01b031663fbfa77cf6040518163ffffffff1660e01b815260040160206040518083038186803b15801561064a57600080fd5b505afa15801561065e573d6000803e3d6000fd5b505050506040513d601f19601f820116820180604052508101906106829190611dc6565b8454604051632402285360e11b81526001600160a01b03858116600483015260248201859052918216604482015291169063480450a690606401600060405180830381600087803b1580156106d657600080fd5b505af11580156106ea573d6000803e3d6000fd5b505050505061092e565b838360050154111561092e5760058301546000906107129086611d99565b905060018460030154141561074a57600284015460408401516001600160a01b039091169250610747906104f390600a611f44565b90505b600260009054906101000a90046001600160a01b03166001600160a01b031663fbfa77cf6040518163ffffffff1660e01b815260040160206040518083038186803b15801561079857600080fd5b505afa1580156107ac573d6000803e3d6000fd5b505050506040513d601f19601f820116820180604052508101906107d09190611dc6565b604051635a9c78ab60e01b81526001600160a01b038481166004830152602482018490523360448301529190911690635a9c78ab90606401600060405180830381600087803b15801561082257600080fd5b505af1158015610836573d6000803e3d6000fd5b50505050600260009054906101000a90046001600160a01b03166001600160a01b031663fbfa77cf6040518163ffffffff1660e01b815260040160206040518083038186803b15801561088857600080fd5b505afa15801561089c573d6000803e3d6000fd5b505050506040513d601f19601f820116820180604052508101906108c09190611dc6565b845460405163f4ac627560e01b81526001600160a01b03858116600483015260248201859052918216604482015291169063f4ac627590606401600060405180830381600087803b15801561091457600080fd5b505af1158015610928573d6000803e3d6000fd5b50505050505b50506005015550565b600082815260208190526040902080546001600160a01b031661099c5760405162461bcd60e51b815260206004820152600d60248201527f4f726465724e6f74466f756e640000000000000000000000000000000000000060448201526064016102fa565b600181810154600280840154604080516bffffffffffffffffffffffff19606095861b81166020808401919091529390951b9094166034850152805180850360280181526048850180835281519184019190912060009081529286905281832060c8860190925281546001600160a01b03908116825295820154909516606885015291820154608884015260039091015460a890920191909152600583018054859290610a4a90849061200b565b90915550506040810151600090610a6290600a611f44565b6004840154610a719086611fec565b610a7b9190611edf565b90506000836003015414156110ba57600260009054906101000a90046001600160a01b03166001600160a01b031663fbfa77cf6040518163ffffffff1660e01b815260040160206040518083038186803b158015610ad857600080fd5b505afa158015610aec573d6000803e3d6000fd5b505050506040513d601f19601f82011682018060405250810190610b109190611dc6565b60018401548454604051635a9c78ab60e01b81526001600160a01b039283166004820152602481018890529082166044820152911690635a9c78ab90606401600060405180830381600087803b158015610b6957600080fd5b505af1158015610b7d573d6000803e3d6000fd5b50505050600260009054906101000a90046001600160a01b03166001600160a01b031663fbfa77cf6040518163ffffffff1660e01b815260040160206040518083038186803b158015610bcf57600080fd5b505afa158015610be3573d6000803e3d6000fd5b505050506040513d601f19601f82011682018060405250810190610c079190611dc6565b60018401548454604051632402285360e11b81526001600160a01b03928316600482015260248101889052908216604482015291169063480450a690606401600060405180830381600087803b158015610c6057600080fd5b505af1158015610c74573d6000803e3d6000fd5b50505050600260009054906101000a90046001600160a01b03166001600160a01b031663fbfa77cf6040518163ffffffff1660e01b815260040160206040518083038186803b158015610cc657600080fd5b505afa158015610cda573d6000803e3d6000fd5b505050506040513d601f19601f82011682018060405250810190610cfe9190611dc6565b600184015460405163f4ac627560e01b81526001600160a01b0391821660048201526024810187905233604482015291169063f4ac627590606401600060405180830381600087803b158015610d5357600080fd5b505af1158015610d67573d6000803e3d6000fd5b50505050600260009054906101000a90046001600160a01b03166001600160a01b031663fbfa77cf6040518163ffffffff1660e01b815260040160206040518083038186803b158015610db957600080fd5b505afa158015610dcd573d6000803e3d6000fd5b505050506040513d601f19601f82011682018060405250810190610df19190611dc6565b6002840154604051632402285360e11b81526001600160a01b0391821660048201526024810184905233604482015291169063480450a690606401600060405180830381600087803b158015610e4657600080fd5b505af1158015610e5a573d6000803e3d6000fd5b50505050600260009054906101000a90046001600160a01b03166001600160a01b031663fbfa77cf6040518163ffffffff1660e01b815260040160206040518083038186803b158015610eac57600080fd5b505afa158015610ec0573d6000803e3d6000fd5b505050506040513d601f19601f82011682018060405250810190610ee49190611dc6565b6002840154845460405163f4ac627560e01b81526001600160a01b03928316600482015260248101859052908216604482015291169063f4ac627590606401600060405180830381600087803b158015610f3d57600080fd5b505af1158015610f51573d6000803e3d6000fd5b505050508160600151836005015410156110b557600260009054906101000a90046001600160a01b03166001600160a01b031663fbfa77cf6040518163ffffffff1660e01b815260040160206040518083038186803b158015610fb357600080fd5b505afa158015610fc7573d6000803e3d6000fd5b505050506040513d601f19601f82011682018060405250810190610feb9190611dc6565b600184015460058501548554604051635a9c78ab60e01b81526001600160a01b039384166004820152602481019290925282166044820152911690635a9c78ab906064015b600060405180830381600087803b15801561104a57600080fd5b505af115801561105e573d6000803e3d6000fd5b5050506000868152602081905260408120805473ffffffffffffffffffffffffffffffffffffffff199081168255600182018054821690556002820180549091169055600381018290556004810182905560050155505b611707565b6001836003015414156116bf57600260009054906101000a90046001600160a01b03166001600160a01b031663fbfa77cf6040518163ffffffff1660e01b815260040160206040518083038186803b15801561111557600080fd5b505afa158015611129573d6000803e3d6000fd5b505050506040513d601f19601f8201168201806040525081019061114d9190611dc6565b6001840154604051632402285360e11b81526001600160a01b0391821660048201526024810187905233604482015291169063480450a690606401600060405180830381600087803b1580156111a257600080fd5b505af11580156111b6573d6000803e3d6000fd5b50505050600260009054906101000a90046001600160a01b03166001600160a01b031663fbfa77cf6040518163ffffffff1660e01b815260040160206040518083038186803b15801561120857600080fd5b505afa15801561121c573d6000803e3d6000fd5b505050506040513d601f19601f820116820180604052508101906112409190611dc6565b6001840154845460405163f4ac627560e01b81526001600160a01b03928316600482015260248101889052908216604482015291169063f4ac627590606401600060405180830381600087803b15801561129957600080fd5b505af11580156112ad573d6000803e3d6000fd5b50505050600260009054906101000a90046001600160a01b03166001600160a01b031663fbfa77cf6040518163ffffffff1660e01b815260040160206040518083038186803b1580156112ff57600080fd5b505afa158015611313573d6000803e3d6000fd5b505050506040513d601f19601f820116820180604052508101906113379190611dc6565b60028401548454604051635a9c78ab60e01b81526001600160a01b039283166004820152602481018590529082166044820152911690635a9c78ab90606401600060405180830381600087803b15801561139057600080fd5b505af11580156113a4573d6000803e3d6000fd5b50505050600260009054906101000a90046001600160a01b03166001600160a01b031663fbfa77cf6040518163ffffffff1660e01b815260040160206040518083038186803b1580156113f657600080fd5b505afa15801561140a573d6000803e3d6000fd5b505050506040513d601f19601f8201168201806040525081019061142e9190611dc6565b60028401548454604051632402285360e11b81526001600160a01b03928316600482015260248101859052908216604482015291169063480450a690606401600060405180830381600087803b15801561148757600080fd5b505af115801561149b573d6000803e3d6000fd5b50505050600260009054906101000a90046001600160a01b03166001600160a01b031663fbfa77cf6040518163ffffffff1660e01b815260040160206040518083038186803b1580156114ed57600080fd5b505afa158015611501573d6000803e3d6000fd5b505050506040513d601f19601f820116820180604052508101906115259190611dc6565b600284015460405163f4ac627560e01b81526001600160a01b0391821660048201526024810184905233604482015291169063f4ac627590606401600060405180830381600087803b15801561157a57600080fd5b505af115801561158e573d6000803e3d6000fd5b505050508160600151836005015410156110b557600260009054906101000a90046001600160a01b03166001600160a01b031663fbfa77cf6040518163ffffffff1660e01b815260040160206040518083038186803b1580156115f057600080fd5b505afa158015611604573d6000803e3d6000fd5b505050506040513d601f19601f820116820180604052508101906116289190611dc6565b600284015460408401516001600160a01b0392831692635a9c78ab9216906116689061165590600a611f44565b6004880154600589015461050391611dae565b865460405160e085901b7fffffffff000000000000000000000000000000000000000000000000000000001681526001600160a01b0393841660048201526024810192909252919091166044820152606401611030565b60405162461bcd60e51b815260206004820152601060248201527f496e76616c69644f72646572547970650000000000000000000000000000000060448201526064016102fa565b5050505050565b6040516bffffffffffffffffffffffff19606087811b8216602084015286901b16603482015260009060480160408051601f198184030181528282528051602091820120600081815260018084529084902060808601855280546001600160a01b03908116808852928201541693860193909352600283015493850193909352600390910154606084015292506117e75760405162461bcd60e51b815260206004820152601060248201527f506169724e6f74537570706f727465640000000000000000000000000000000060448201526064016102fa565b826118345760405162461bcd60e51b815260206004820152601360248201527f496e76616c696445786368616e6765526174650000000000000000000000000060448201526064016102fa565b80606001518510156118885760405162461bcd60e51b815260206004820152601260248201527f496e76616c69644f72646572416d6f756e74000000000000000000000000000060448201526064016102fa565b604080513360208083018290526001600160a01b038b8116848601819052908b1660608501819052608085018b905260a085018a905260c08086018a90528651808703909101815260e0909501865284519483019490942060008181529283905294909120805473ffffffffffffffffffffffffffffffffffffffff19908116909317815560018101805484169092179091556002810180549092169092179055600481018590556005810187905585611b2757600260009054906101000a90046001600160a01b03166001600160a01b031663fbfa77cf6040518163ffffffff1660e01b815260040160206040518083038186803b15801561198a57600080fd5b505afa15801561199e573d6000803e3d6000fd5b505050506040513d601f19601f820116820180604052508101906119c29190611dc6565b600182015460405163013d64e560e31b81526001600160a01b039182166004820152602481018a90523360448201529116906309eb272890606401600060405180830381600087803b158015611a1757600080fd5b505af1158015611a2b573d6000803e3d6000fd5b50505050600260009054906101000a90046001600160a01b03166001600160a01b031663fbfa77cf6040518163ffffffff1660e01b815260040160206040518083038186803b158015611a7d57600080fd5b505afa158015611a91573d6000803e3d6000fd5b505050506040513d601f19601f82011682018060405250810190611ab59190611dc6565b6001820154604051632402285360e11b81526001600160a01b039182166004820152602481018a905233604482015291169063480450a690606401600060405180830381600087803b158015611b0a57600080fd5b505af1158015611b1e573d6000803e3d6000fd5b50505050611d3a565b6001861415611d3a576000611b508460400151600a611b469190611f44565b6105038a89611dae565b9050600260009054906101000a90046001600160a01b03166001600160a01b031663fbfa77cf6040518163ffffffff1660e01b815260040160206040518083038186803b158015611ba057600080fd5b505afa158015611bb4573d6000803e3d6000fd5b505050506040513d601f19601f82011682018060405250810190611bd89190611dc6565b600283015460405163013d64e560e31b81526001600160a01b039182166004820152602481018490523360448201529116906309eb272890606401600060405180830381600087803b158015611c2d57600080fd5b505af1158015611c41573d6000803e3d6000fd5b50505050600260009054906101000a90046001600160a01b03166001600160a01b031663fbfa77cf6040518163ffffffff1660e01b815260040160206040518083038186803b158015611c9357600080fd5b505afa158015611ca7573d6000803e3d6000fd5b505050506040513d601f19601f82011682018060405250810190611ccb9190611dc6565b6002830154604051632402285360e11b81526001600160a01b0391821660048201526024810184905233604482015291169063480450a690606401600060405180830381600087803b158015611d2057600080fd5b505af1158015611d34573d6000803e3d6000fd5b50505050505b60408051838152602081018690523381830152606081018990526080810187905260a0810188905290517fabccbdb72f604a66dd5a2b37770209badc71059d3f5396047334f7c95971eca99181900360c00190a1505050505050505050565b6000611da5828461200b565b90505b92915050565b6000611da58284611fec565b6000611da58284611edf565b600060208284031215611dd857600080fd5b8151611de381612038565b6001600160a01b03169392505050565b60008060008060808587031215611e0957600080fd5b8435611e1481612038565b6001600160a01b039081169450602086013590611e3082612038565b9497941695505050506040820135916060013590565b600080600080600060a08688031215611e5e57600080fd5b8535611e6981612038565b6001600160a01b039081169550602087013590611e8582612038565b9598951696505050506040830135926060810135926080909101359150565b600060208284031215611eb657600080fd5b5035919050565b60008060408385031215611ed057600080fd5b50508035926020909101359150565b600082611efc57634e487b7160e01b600052601260045260246000fd5b500490565b600181815b80851115611f3c578160001904821115611f2257611f22612022565b80851615611f2f57918102915b93841c9390800290611f06565b509250929050565b6000611da58383600082611f5a57506001611da8565b81611f6757506000611da8565b8160018114611f7d5760028114611f8757611fa3565b6001915050611da8565b60ff841115611f9857611f98612022565b50506001821b611da8565b5060208310610133831016604e8410600b8410161715611fc6575081810a611da8565b611fd08383611f01565b8060001904821115611fe457611fe4612022565b029392505050565b600081600019048311821515161561200657612006612022565b500290565b60008282101561201d5761201d612022565b500390565b634e487b7160e01b600052601160045260246000fd5b74ffffffffffffffffffffffffffffffffffffffffff8116811461205b57600080fd5b5056fea26474726f6e5822122087beebc5f2b1a047c6c46cc9a5206de9f893b70d6f44414dd332f5d0fa559c8264736f6c63430008060033",
  "source": "// SPDX-License-Identifier: MIT\npragma solidity ^0.8.6;\n\nimport \"@openzeppelin/contracts/token/ERC20/utils/SafeERC20.sol\";\nimport \"@openzeppelin/contracts/token/ERC20/IERC20.sol\";\n// import { Errors } from \"./libraries/Errors.sol\";\nimport \"./Vault.sol\";\nimport \"./System.sol\";\nimport \"@openzeppelin/contracts/utils/math/SafeMath.sol\";\n\ncontract Exchange {\n    using SafeERC20 for IERC20;\n    using SafeMath for uint256;\n    event OrderCreated(\n        bytes32 orderId,\n        bytes32 pair,\n        address maker,\n        uint256 amount,\n        uint256 exchangeRate,\n        uint256 orderType\n    );\n\n    event OrderExecuted(bytes32 orderId, address taker, uint fillAmount);\n\n    event PairCreated(\n        bytes32 pairId,\n        address token0,\n        address token1,\n        uint256 exchangeRateDecimals,\n        uint256 minToken0Order\n    );\n\n    enum OrderType {\n        LIMITSELL,\n        LIMITBUY\n    }\n\n    struct Order {\n        address maker;\n        address token0;\n        address token1;\n        uint256 orderType;\n        uint256 exchangeRate;\n        uint256 amount; // amount of token0\n    }\n\n    struct Pair {\n        address token0;\n        address token1;\n        uint256 exchangeRateDecimals;\n        uint256 minToken0Order;\n    }\n\n    mapping(bytes32 => Order) public placedOrders;\n    mapping(bytes32 => Pair) public pairs;\n    System public system;\n\n    constructor(address _system) {\n        system = System(_system);\n    }\n\n    function createPair(\n        address token0,\n        address token1,\n        uint256 exchangeRateDecimals,\n        uint256 minToken0Order\n    ) external {\n        if(msg.sender != system.admin()) revert('NotAuthorized'); //Errors.NotAuthorized();\n\n        bytes32 pairHash = keccak256(abi.encodePacked(token0, token1));\n        Pair storage pair = pairs[pairHash];\n        pair.token0 = token0;\n        pair.token1 = token1;\n        pair.exchangeRateDecimals = exchangeRateDecimals;\n        pair.minToken0Order = minToken0Order;\n\n        emit PairCreated(\n            pairHash,\n            token0,\n            token1,\n            exchangeRateDecimals,\n            minToken0Order\n        );\n    }\n\n    function createLimitOrder(\n        address token0,\n        address token1,\n        uint256 amount, // amount of token0 to buy/sell\n        uint256 orderType,\n        uint256 exchangeRate\n    ) external {\n        bytes32 pairHash = keccak256(abi.encodePacked(token0, token1));\n        Pair memory pair = pairs[pairHash];\n        if(pair.token0 == address(0)) revert('PairNotSupported'); // Errors.PairNotSupported();\n\n        /* -------------------------------------------------------------------------- */\n        /*                                 Validation                                 */\n        /* -------------------------------------------------------------------------- */\n\n        // exchange rate validation\n        if(exchangeRate == 0) revert('InvalidExchangeRate'); // Errors.InvalidExchangeRate(exchangeRate);\n\n        // check for minimum order size        \n        if (amount < pair.minToken0Order) revert('InvalidOrderAmount'); // Errors.InvalidOrderAmount(amount);\n        \n        bytes32 orderHash = keccak256(abi.encode(\n            msg.sender,         // maker\n            token0,             // token0\n            token1,             // token1\n            amount,             // amount\n            orderType,          // orderType\n            exchangeRate        // exchangeRate\n        ));\n\n        Order storage order = placedOrders[orderHash];\n        order.maker = msg.sender;\n        // order.srcAmount = token0Amt;\n        order.token0 = token0;\n        order.token1 = token1;\n        order.exchangeRate = exchangeRate;\n        order.amount = amount;\n\n        // lock token0 or token1\n        if (orderType == uint256(OrderType.LIMITSELL)) {\n            system.vault().lockToken(order.token0, amount, msg.sender);\n            system.vault().decreaseBalance(order.token0, amount, msg.sender);\n        } else if (orderType == uint256(OrderType.LIMITBUY)) {\n            uint token1Amount = amount.mul(exchangeRate).div(10**pair.exchangeRateDecimals);\n            system.vault().lockToken(order.token1, token1Amount, msg.sender);\n            system.vault().decreaseBalance(order.token1, token1Amount, msg.sender);\n        }\n\n        emit OrderCreated(\n            orderHash,\n            pairHash,\n            msg.sender,\n            amount,\n            exchangeRate,\n            orderType\n        );\n    }\n\n    function updateLimitOrder(bytes32 orderId, uint256 amount) external {\n        Order storage order = placedOrders[orderId];\n        Pair memory pair = pairs[keccak256(abi.encodePacked(order.token0, order.token1))];\n\n        address token = order.token0;\n        \n        if (order.amount < amount) {\n            uint extraAmount = amount.sub(order.amount);\n            if(order.orderType == uint256(OrderType.LIMITBUY)){\n                token = order.token1;\n                extraAmount = extraAmount.mul(order.exchangeRate).div(10**pair.exchangeRateDecimals);\n            }\n            system.vault().lockToken(token, extraAmount, msg.sender);\n            system.vault().decreaseBalance(token, extraAmount, order.maker);\n        } else if (order.amount > amount) {\n            uint lessAmount = order.amount.sub(amount);\n            if(order.orderType == uint256(OrderType.LIMITBUY)){\n                token = order.token1;\n                lessAmount = lessAmount.mul(order.exchangeRate).div(10**pair.exchangeRateDecimals);\n            }\n            system.vault().unlockToken(token, lessAmount, msg.sender);\n            system.vault().increaseBalance(token, lessAmount, order.maker);\n        }\n        // update order amount\n        order.amount = amount;\n    }\n\n    function executeLimitOrder(bytes32 orderId, uint256 fillAmount) external {\n        // Order\n        Order storage order = placedOrders[orderId];\n        /* -------------------------------------------------------------------------- */\n        /*                                 Validation                                 */\n        /* -------------------------------------------------------------------------- */\n        if(order.maker == address(0)) revert('OrderNotFound'); // Errors.OrderNotFound(orderId);\n\n        // Pair\n        Pair memory pair = pairs[keccak256(abi.encodePacked(order.token0, order.token1))];\n\n        // minus fill amount from order\n        order.amount -= fillAmount;\n        \n\n        uint256 token1FillAmount = fillAmount * order.exchangeRate / 10**pair.exchangeRateDecimals;\n        if (order.orderType == uint256(OrderType.LIMITSELL)) {\n            // unlock and decrement maker's token0 balance\n            // increment msg.sender's token0 balance\n            system.vault().unlockToken(order.token0, fillAmount, order.maker);\n            system.vault().decreaseBalance(order.token0, fillAmount, order.maker);\n            system.vault().increaseBalance(order.token0, fillAmount, msg.sender);\n            // decrement msg.sender's token1 balance\n            // increment maker's token1 balance\n            system.vault().decreaseBalance(order.token1, token1FillAmount, msg.sender);\n            system.vault().increaseBalance(order.token1, token1FillAmount, order.maker);\n\n            // delete order if remaining order amount is less than minOrderAmount\n            if (order.amount < pair.minToken0Order){\n                system.vault().unlockToken(order.token0, order.amount, order.maker);\n                delete placedOrders[orderId];\n            }\n        } else if (order.orderType == uint256(OrderType.LIMITBUY)) {\n            // decrement msg.sender's token0 balance\n            // increment maker's token0 balance\n            system.vault().decreaseBalance(order.token0, fillAmount, msg.sender);\n            system.vault().increaseBalance(order.token0, fillAmount, order.maker);\n            // unlock and decrement maker's token1 balance\n            // increment msg.sender's token1 balance\n            system.vault().unlockToken(order.token1, token1FillAmount, order.maker);\n            system.vault().decreaseBalance(order.token1, token1FillAmount, order.maker);\n            system.vault().increaseBalance(order.token1, token1FillAmount, msg.sender);\n\n            // delete order if remaining order amount is less than minOrderAmount\n            if (order.amount < pair.minToken0Order){\n                system.vault().unlockToken(order.token1, order.amount.mul(order.exchangeRate).div(10**pair.exchangeRateDecimals), order.maker);\n                delete placedOrders[orderId];\n            }\n        }\n        else {\n            revert('InvalidOrderType'); // Errors.InvalidOrderType(order.orderType);\n        }        \n    }\n}\n",
  "sourcePath": "/Users/prasad/projects/synthex/dex/contracts/Exchange.sol",
  "compiler": {
    "name": "solc",
    "version": "0.8.6+commit.0e36fba0.mod.Emscripten.clang"
  },
  "schemaVersion": "2.0.1",
  "updatedAt": "2022-10-31T08:59:55.672Z"
}