{
  "contractName": "Exchange",
  "abi": [
    {
      "inputs": [
        {
          "internalType": "address",
          "name": "_system",
          "type": "address"
        }
      ],
      "stateMutability": "nonpayable",
      "type": "constructor"
    },
    {
      "anonymous": false,
      "inputs": [
        {
          "indexed": false,
          "internalType": "bytes32",
          "name": "orderId",
          "type": "bytes32"
        },
        {
          "indexed": false,
          "internalType": "bytes32",
          "name": "pair",
          "type": "bytes32"
        },
        {
          "indexed": false,
          "internalType": "address",
          "name": "maker",
          "type": "address"
        },
        {
          "indexed": false,
          "internalType": "uint256",
          "name": "amount",
          "type": "uint256"
        },
        {
          "indexed": false,
          "internalType": "uint256",
          "name": "exchangeRate",
          "type": "uint256"
        },
        {
          "indexed": false,
          "internalType": "uint256",
          "name": "orderType",
          "type": "uint256"
        }
      ],
      "name": "OrderCreated",
      "type": "event"
    },
    {
      "anonymous": false,
      "inputs": [
        {
          "indexed": false,
          "internalType": "bytes32",
          "name": "orderId",
          "type": "bytes32"
        },
        {
          "indexed": false,
          "internalType": "address",
          "name": "taker",
          "type": "address"
        },
        {
          "indexed": false,
          "internalType": "uint256",
          "name": "fillAmount",
          "type": "uint256"
        }
      ],
      "name": "OrderExecuted",
      "type": "event"
    },
    {
      "anonymous": false,
      "inputs": [
        {
          "indexed": false,
          "internalType": "bytes32",
          "name": "orderId",
          "type": "bytes32"
        },
        {
          "indexed": false,
          "internalType": "uint256",
          "name": "amount",
          "type": "uint256"
        }
      ],
      "name": "OrderUpdated",
      "type": "event"
    },
    {
      "anonymous": false,
      "inputs": [
        {
          "indexed": false,
          "internalType": "bytes32",
          "name": "pairId",
          "type": "bytes32"
        },
        {
          "indexed": false,
          "internalType": "address",
          "name": "token0",
          "type": "address"
        },
        {
          "indexed": false,
          "internalType": "address",
          "name": "token1",
          "type": "address"
        },
        {
          "indexed": false,
          "internalType": "uint256",
          "name": "exchangeRateDecimals",
          "type": "uint256"
        },
        {
          "indexed": false,
          "internalType": "uint256",
          "name": "minToken0Order",
          "type": "uint256"
        }
      ],
      "name": "PairCreated",
      "type": "event"
    },
    {
      "inputs": [
        {
          "internalType": "address",
          "name": "token0",
          "type": "address"
        },
        {
          "internalType": "address",
          "name": "token1",
          "type": "address"
        },
        {
          "internalType": "uint256",
          "name": "amount",
          "type": "uint256"
        },
        {
          "internalType": "uint256",
          "name": "orderType",
          "type": "uint256"
        },
        {
          "internalType": "uint256",
          "name": "exchangeRate",
          "type": "uint256"
        }
      ],
      "name": "createLimitOrder",
      "outputs": [],
      "stateMutability": "nonpayable",
      "type": "function"
    },
    {
      "inputs": [
        {
          "internalType": "address",
          "name": "token0",
          "type": "address"
        },
        {
          "internalType": "address",
          "name": "token1",
          "type": "address"
        },
        {
          "internalType": "uint256",
          "name": "exchangeRateDecimals",
          "type": "uint256"
        },
        {
          "internalType": "uint256",
          "name": "minToken0Order",
          "type": "uint256"
        }
      ],
      "name": "createPair",
      "outputs": [],
      "stateMutability": "nonpayable",
      "type": "function"
    },
    {
      "inputs": [
        {
          "internalType": "address",
          "name": "token0",
          "type": "address"
        },
        {
          "internalType": "address",
          "name": "token1",
          "type": "address"
        },
        {
          "internalType": "uint256",
          "name": "amount",
          "type": "uint256"
        },
        {
          "internalType": "uint256",
          "name": "exchangeRate",
          "type": "uint256"
        },
        {
          "internalType": "uint256",
          "name": "orderType",
          "type": "uint256"
        },
        {
          "internalType": "bytes32[]",
          "name": "ordersToExecute",
          "type": "bytes32[]"
        }
      ],
      "name": "executeAndPlaceOrder",
      "outputs": [],
      "stateMutability": "nonpayable",
      "type": "function"
    },
    {
      "inputs": [
        {
          "internalType": "bytes32",
          "name": "orderId",
          "type": "bytes32"
        },
        {
          "internalType": "uint256",
          "name": "fillAmount",
          "type": "uint256"
        }
      ],
      "name": "executeLimitOrder",
      "outputs": [
        {
          "internalType": "uint256",
          "name": "",
          "type": "uint256"
        }
      ],
      "stateMutability": "nonpayable",
      "type": "function"
    },
    {
      "inputs": [
        {
          "internalType": "bytes32",
          "name": "",
          "type": "bytes32"
        }
      ],
      "name": "pairs",
      "outputs": [
        {
          "internalType": "address",
          "name": "token0",
          "type": "address"
        },
        {
          "internalType": "address",
          "name": "token1",
          "type": "address"
        },
        {
          "internalType": "uint256",
          "name": "exchangeRateDecimals",
          "type": "uint256"
        },
        {
          "internalType": "uint256",
          "name": "minToken0Order",
          "type": "uint256"
        }
      ],
      "stateMutability": "view",
      "type": "function"
    },
    {
      "inputs": [
        {
          "internalType": "bytes32",
          "name": "",
          "type": "bytes32"
        }
      ],
      "name": "placedOrders",
      "outputs": [
        {
          "internalType": "address",
          "name": "maker",
          "type": "address"
        },
        {
          "internalType": "address",
          "name": "token0",
          "type": "address"
        },
        {
          "internalType": "address",
          "name": "token1",
          "type": "address"
        },
        {
          "internalType": "uint256",
          "name": "orderType",
          "type": "uint256"
        },
        {
          "internalType": "uint256",
          "name": "exchangeRate",
          "type": "uint256"
        },
        {
          "internalType": "uint256",
          "name": "amount",
          "type": "uint256"
        }
      ],
      "stateMutability": "view",
      "type": "function"
    },
    {
      "inputs": [],
      "name": "system",
      "outputs": [
        {
          "internalType": "contract System",
          "name": "",
          "type": "address"
        }
      ],
      "stateMutability": "view",
      "type": "function"
    },
    {
      "inputs": [
        {
          "internalType": "bytes32",
          "name": "orderId",
          "type": "bytes32"
        },
        {
          "internalType": "uint256",
          "name": "amount",
          "type": "uint256"
        }
      ],
      "name": "updateLimitOrder",
      "outputs": [],
      "stateMutability": "nonpayable",
      "type": "function"
    }
  ],
  "bytecode": "0x60806040523480156200001157600080fd5b50d380156200001f57600080fd5b50d280156200002d57600080fd5b506040516200252f3803806200252f833981016040819052620000509162000076565b600280546001600160a01b0319166001600160a01b0392909216919091179055620000b1565b6000602082840312156200008957600080fd5b81516001600160a81b0381168114620000a157600080fd5b6001600160a01b03169392505050565b61246e80620000c16000396000f3fe608060405234801561001057600080fd5b50d3801561001d57600080fd5b50d2801561002a57600080fd5b50600436106100a25760003560e01c8063673e048111610075578063673e04811461017657806395bf75fd146101e5578063cd85fc2a14610210578063de1b983b1461023157600080fd5b8063035f962d146100a75780631e41be5a146100bc57806321a18818146101505780635ed4e30f14610163575b600080fd5b6100ba6100b5366004612071565b610244565b005b61010d6100ca366004612237565b6000602081905290815260409020805460018201546002830154600384015460048501546005909501546001600160a01b03948516959385169490921692909186565b604080516001600160a01b039788168152958716602087015293909516928401929092526060830152608082015260a081019190915260c0015b60405180910390f35b6100ba61015e366004612250565b610411565b6100ba610171366004612122565b6109df565b6101ba610184366004612237565b600160208190526000918252604090912080549181015460028201546003909201546001600160a01b0393841693909116919084565b604080516001600160a01b039586168152949093166020850152918301526060820152608001610147565b6002546101f8906001600160a01b031681565b6040516001600160a01b039091168152602001610147565b61022361021e366004612250565b610b4a565b604051908152602001610147565b6100ba61023f3660046120c4565b611977565b600260009054906101000a90046001600160a01b03166001600160a01b031663f851a4406040518163ffffffff1660e01b815260040160206040518083038186803b15801561029257600080fd5b505afa1580156102a6573d6000803e3d6000fd5b505050506040513d601f19601f820116820180604052508101906102ca9190612044565b6001600160a01b0316336001600160a01b03161461031f5760405162461bcd60e51b815260206004820152600d60248201526c139bdd105d5d1a1bdc9a5e9959609a1b60448201526064015b60405180910390fd5b6040516bffffffffffffffffffffffff19606086811b8216602084015285901b16603482015260009060480160408051601f198184030181528282528051602091820120600081815260018084529084902080546001600160a01b038c811673ffffffffffffffffffffffffffffffffffffffff19928316811784559383018054918d16919092168117909155600282018a905560038201899055838752938601919091529284019190915260608301869052608083018590529250907f732bafb093086e9f79f6befb608725f1e4ce5f5047c12771a4a79aabd6f10f7a9060a00160405180910390a1505050505050565b600082815260208190526040902080546001600160a01b031633146104685760405162461bcd60e51b815260206004820152600d60248201526c139bdd105d5d1a1bdc9a5e9959609a1b6044820152606401610316565b600181810154600280840154604080516bffffffffffffffffffffffff19606086811b821660208085019190915294901b16603482015281518082036028018152604882018084528151918501919091206000908152938790529282902060c8820190925281546001600160a01b03908116845295820154861660688201529281015460888401526003015460a890920191909152600584015490929091169084111561075e57600061052884600501548661200290919063ffffffff16565b905060018460030154141561057657600284015460408401516001600160a01b0390911692506105739061055d90600a6122d7565b600486015461056d908490612015565b90612021565b90505b600260009054906101000a90046001600160a01b03166001600160a01b031663fbfa77cf6040518163ffffffff1660e01b815260040160206040518083038186803b1580156105c457600080fd5b505afa1580156105d8573d6000803e3d6000fd5b505050506040513d601f19601f820116820180604052508101906105fc9190612044565b60405163013d64e560e31b81526001600160a01b0384811660048301526024820184905233604483015291909116906309eb272890606401600060405180830381600087803b15801561064e57600080fd5b505af1158015610662573d6000803e3d6000fd5b50505050600260009054906101000a90046001600160a01b03166001600160a01b031663fbfa77cf6040518163ffffffff1660e01b815260040160206040518083038186803b1580156106b457600080fd5b505afa1580156106c8573d6000803e3d6000fd5b505050506040513d601f19601f820116820180604052508101906106ec9190612044565b8454604051632402285360e11b81526001600160a01b03858116600483015260248201859052918216604482015291169063480450a690606401600060405180830381600087803b15801561074057600080fd5b505af1158015610754573d6000803e3d6000fd5b5050505050610998565b838360050154111561099857600583015460009061077c9086612002565b90506001846003015414156107b457600284015460408401516001600160a01b0390911692506107b19061055d90600a6122d7565b90505b600260009054906101000a90046001600160a01b03166001600160a01b031663fbfa77cf6040518163ffffffff1660e01b815260040160206040518083038186803b15801561080257600080fd5b505afa158015610816573d6000803e3d6000fd5b505050506040513d601f19601f8201168201806040525081019061083a9190612044565b604051635a9c78ab60e01b81526001600160a01b038481166004830152602482018490523360448301529190911690635a9c78ab90606401600060405180830381600087803b15801561088c57600080fd5b505af11580156108a0573d6000803e3d6000fd5b50505050600260009054906101000a90046001600160a01b03166001600160a01b031663fbfa77cf6040518163ffffffff1660e01b815260040160206040518083038186803b1580156108f257600080fd5b505afa158015610906573d6000803e3d6000fd5b505050506040513d601f19601f8201168201806040525081019061092a9190612044565b845460405163f4ac627560e01b81526001600160a01b03858116600483015260248201859052918216604482015291169063f4ac627590606401600060405180830381600087803b15801561097e57600080fd5b505af1158015610992573d6000803e3d6000fd5b50505050505b6005830184905560408051868152602081018690527f1bb494197f9246bf49bc5e335e8a79e33601e963e980da969cd930ff418275cf910160405180910390a15050505050565b60005b8151811015610b3457866001600160a01b0316600080848481518110610a0a57610a0a6123e6565b6020908102919091018101518252810191909152604001600020600101546001600160a01b03161415610a6f5760405162461bcd60e51b815260206004820152600d60248201526c24b73b30b634b21027b93232b960991b6044820152606401610316565b856001600160a01b0316600080848481518110610a8e57610a8e6123e6565b6020908102919091018101518252810191909152604001600020600201546001600160a01b03161415610af35760405162461bcd60e51b815260206004820152600d60248201526c24b73b30b634b21027b93232b960991b6044820152606401610316565b610b20610b19838381518110610b0b57610b0b6123e6565b602002602001015187610b4a565b8690612002565b945080610b2c816123b5565b9150506109e2565b50610b428686868587611977565b505050505050565b600082815260208190526040812080546001600160a01b0316610baf5760405162461bcd60e51b815260206004820152600d60248201527f4f726465724e6f74466f756e64000000000000000000000000000000000000006044820152606401610316565b600181810154600280840154604080516bffffffffffffffffffffffff19606095861b81166020808401919091529390951b909416603485015280518085036028018152604885018083528151918401919091206000908152928690529181902060c8850190915280546001600160a01b03908116835294810154909416606884015290830154608883015260039092015460a8909101526005820154610c5790859061202d565b935083826005016000828254610c6d919061239e565b90915550506040810151600090610c8590600a6122d7565b6004840154610c94908761237f565b610c9e9190612272565b90506000836003015414156112dd57600260009054906101000a90046001600160a01b03166001600160a01b031663fbfa77cf6040518163ffffffff1660e01b815260040160206040518083038186803b158015610cfb57600080fd5b505afa158015610d0f573d6000803e3d6000fd5b505050506040513d601f19601f82011682018060405250810190610d339190612044565b60018401548454604051635a9c78ab60e01b81526001600160a01b039283166004820152602481018990529082166044820152911690635a9c78ab90606401600060405180830381600087803b158015610d8c57600080fd5b505af1158015610da0573d6000803e3d6000fd5b50505050600260009054906101000a90046001600160a01b03166001600160a01b031663fbfa77cf6040518163ffffffff1660e01b815260040160206040518083038186803b158015610df257600080fd5b505afa158015610e06573d6000803e3d6000fd5b505050506040513d601f19601f82011682018060405250810190610e2a9190612044565b60018401548454604051632402285360e11b81526001600160a01b03928316600482015260248101899052908216604482015291169063480450a690606401600060405180830381600087803b158015610e8357600080fd5b505af1158015610e97573d6000803e3d6000fd5b50505050600260009054906101000a90046001600160a01b03166001600160a01b031663fbfa77cf6040518163ffffffff1660e01b815260040160206040518083038186803b158015610ee957600080fd5b505afa158015610efd573d6000803e3d6000fd5b505050506040513d601f19601f82011682018060405250810190610f219190612044565b600184015460405163f4ac627560e01b81526001600160a01b0391821660048201526024810188905233604482015291169063f4ac627590606401600060405180830381600087803b158015610f7657600080fd5b505af1158015610f8a573d6000803e3d6000fd5b50505050600260009054906101000a90046001600160a01b03166001600160a01b031663fbfa77cf6040518163ffffffff1660e01b815260040160206040518083038186803b158015610fdc57600080fd5b505afa158015610ff0573d6000803e3d6000fd5b505050506040513d601f19601f820116820180604052508101906110149190612044565b6002840154604051632402285360e11b81526001600160a01b0391821660048201526024810184905233604482015291169063480450a690606401600060405180830381600087803b15801561106957600080fd5b505af115801561107d573d6000803e3d6000fd5b50505050600260009054906101000a90046001600160a01b03166001600160a01b031663fbfa77cf6040518163ffffffff1660e01b815260040160206040518083038186803b1580156110cf57600080fd5b505afa1580156110e3573d6000803e3d6000fd5b505050506040513d601f19601f820116820180604052508101906111079190612044565b6002840154845460405163f4ac627560e01b81526001600160a01b03928316600482015260248101859052908216604482015291169063f4ac627590606401600060405180830381600087803b15801561116057600080fd5b505af1158015611174573d6000803e3d6000fd5b505050508160600151836005015410156112d857600260009054906101000a90046001600160a01b03166001600160a01b031663fbfa77cf6040518163ffffffff1660e01b815260040160206040518083038186803b1580156111d657600080fd5b505afa1580156111ea573d6000803e3d6000fd5b505050506040513d601f19601f8201168201806040525081019061120e9190612044565b600184015460058501548554604051635a9c78ab60e01b81526001600160a01b039384166004820152602481019290925282166044820152911690635a9c78ab906064015b600060405180830381600087803b15801561126d57600080fd5b505af1158015611281573d6000803e3d6000fd5b5050506000878152602081905260408120805473ffffffffffffffffffffffffffffffffffffffff199081168255600182018054821690556002820180549091169055600381018290556004810182905560050155505b61192a565b6001836003015414156118e257600260009054906101000a90046001600160a01b03166001600160a01b031663fbfa77cf6040518163ffffffff1660e01b815260040160206040518083038186803b15801561133857600080fd5b505afa15801561134c573d6000803e3d6000fd5b505050506040513d601f19601f820116820180604052508101906113709190612044565b6001840154604051632402285360e11b81526001600160a01b0391821660048201526024810188905233604482015291169063480450a690606401600060405180830381600087803b1580156113c557600080fd5b505af11580156113d9573d6000803e3d6000fd5b50505050600260009054906101000a90046001600160a01b03166001600160a01b031663fbfa77cf6040518163ffffffff1660e01b815260040160206040518083038186803b15801561142b57600080fd5b505afa15801561143f573d6000803e3d6000fd5b505050506040513d601f19601f820116820180604052508101906114639190612044565b6001840154845460405163f4ac627560e01b81526001600160a01b03928316600482015260248101899052908216604482015291169063f4ac627590606401600060405180830381600087803b1580156114bc57600080fd5b505af11580156114d0573d6000803e3d6000fd5b50505050600260009054906101000a90046001600160a01b03166001600160a01b031663fbfa77cf6040518163ffffffff1660e01b815260040160206040518083038186803b15801561152257600080fd5b505afa158015611536573d6000803e3d6000fd5b505050506040513d601f19601f8201168201806040525081019061155a9190612044565b60028401548454604051635a9c78ab60e01b81526001600160a01b039283166004820152602481018590529082166044820152911690635a9c78ab90606401600060405180830381600087803b1580156115b357600080fd5b505af11580156115c7573d6000803e3d6000fd5b50505050600260009054906101000a90046001600160a01b03166001600160a01b031663fbfa77cf6040518163ffffffff1660e01b815260040160206040518083038186803b15801561161957600080fd5b505afa15801561162d573d6000803e3d6000fd5b505050506040513d601f19601f820116820180604052508101906116519190612044565b60028401548454604051632402285360e11b81526001600160a01b03928316600482015260248101859052908216604482015291169063480450a690606401600060405180830381600087803b1580156116aa57600080fd5b505af11580156116be573d6000803e3d6000fd5b50505050600260009054906101000a90046001600160a01b03166001600160a01b031663fbfa77cf6040518163ffffffff1660e01b815260040160206040518083038186803b15801561171057600080fd5b505afa158015611724573d6000803e3d6000fd5b505050506040513d601f19601f820116820180604052508101906117489190612044565b600284015460405163f4ac627560e01b81526001600160a01b0391821660048201526024810184905233604482015291169063f4ac627590606401600060405180830381600087803b15801561179d57600080fd5b505af11580156117b1573d6000803e3d6000fd5b505050508160600151836005015410156112d857600260009054906101000a90046001600160a01b03166001600160a01b031663fbfa77cf6040518163ffffffff1660e01b815260040160206040518083038186803b15801561181357600080fd5b505afa158015611827573d6000803e3d6000fd5b505050506040513d601f19601f8201168201806040525081019061184b9190612044565b600284015460408401516001600160a01b0392831692635a9c78ab92169061188b9061187890600a6122d7565b6004880154600589015461056d91612015565b865460405160e085901b7fffffffff000000000000000000000000000000000000000000000000000000001681526001600160a01b0393841660048201526024810192909252919091166044820152606401611253565b60405162461bcd60e51b815260206004820152601060248201527f496e76616c69644f7264657254797065000000000000000000000000000000006044820152606401610316565b604080518781523360208201529081018690527fe96da7d7f9b1253f3f855c25f35f32d0a83a96c1a75acdecf0f3bc7cc3bb1ccf9060600160405180910390a18493505050505b92915050565b6040516bffffffffffffffffffffffff19606087811b8216602084015286901b16603482015260009060480160408051601f198184030181528282528051602091820120600081815260018084529084902060808601855280546001600160a01b0390811680885292820154169386019390935260028301549385019390935260039091015460608401529250611a505760405162461bcd60e51b815260206004820152601060248201527f506169724e6f74537570706f72746564000000000000000000000000000000006044820152606401610316565b82611a9d5760405162461bcd60e51b815260206004820152601360248201527f496e76616c696445786368616e676552617465000000000000000000000000006044820152606401610316565b8060600151851015611af15760405162461bcd60e51b815260206004820152601260248201527f496e76616c69644f72646572416d6f756e7400000000000000000000000000006044820152606401610316565b604080513360208083018290526001600160a01b038b8116848601819052908b1660608501819052608085018b905260a085018a905260c08086018a90528651808703909101815260e0909501865284519483019490942060008181529283905294909120805473ffffffffffffffffffffffffffffffffffffffff19908116909317815560018101805484169092179091556002810180549092169092179055600481018590556005810187905585611d9057600260009054906101000a90046001600160a01b03166001600160a01b031663fbfa77cf6040518163ffffffff1660e01b815260040160206040518083038186803b158015611bf357600080fd5b505afa158015611c07573d6000803e3d6000fd5b505050506040513d601f19601f82011682018060405250810190611c2b9190612044565b600182015460405163013d64e560e31b81526001600160a01b039182166004820152602481018a90523360448201529116906309eb272890606401600060405180830381600087803b158015611c8057600080fd5b505af1158015611c94573d6000803e3d6000fd5b50505050600260009054906101000a90046001600160a01b03166001600160a01b031663fbfa77cf6040518163ffffffff1660e01b815260040160206040518083038186803b158015611ce657600080fd5b505afa158015611cfa573d6000803e3d6000fd5b505050506040513d601f19601f82011682018060405250810190611d1e9190612044565b6001820154604051632402285360e11b81526001600160a01b039182166004820152602481018a905233604482015291169063480450a690606401600060405180830381600087803b158015611d7357600080fd5b505af1158015611d87573d6000803e3d6000fd5b50505050611fa3565b6001861415611fa3576000611db98460400151600a611daf91906122d7565b61056d8a89612015565b9050600260009054906101000a90046001600160a01b03166001600160a01b031663fbfa77cf6040518163ffffffff1660e01b815260040160206040518083038186803b158015611e0957600080fd5b505afa158015611e1d573d6000803e3d6000fd5b505050506040513d601f19601f82011682018060405250810190611e419190612044565b600283015460405163013d64e560e31b81526001600160a01b039182166004820152602481018490523360448201529116906309eb272890606401600060405180830381600087803b158015611e9657600080fd5b505af1158015611eaa573d6000803e3d6000fd5b50505050600260009054906101000a90046001600160a01b03166001600160a01b031663fbfa77cf6040518163ffffffff1660e01b815260040160206040518083038186803b158015611efc57600080fd5b505afa158015611f10573d6000803e3d6000fd5b505050506040513d601f19601f82011682018060405250810190611f349190612044565b6002830154604051632402285360e11b81526001600160a01b0391821660048201526024810184905233604482015291169063480450a690606401600060405180830381600087803b158015611f8957600080fd5b505af1158015611f9d573d6000803e3d6000fd5b50505050505b60408051838152602081018690523381830152606081018990526080810187905260a0810188905290517fabccbdb72f604a66dd5a2b37770209badc71059d3f5396047334f7c95971eca99181900360c00190a1505050505050505050565b600061200e828461239e565b9392505050565b600061200e828461237f565b600061200e8284612272565b60008183101561203d578161200e565b5090919050565b60006020828403121561205657600080fd5b815161206181612412565b6001600160a01b03169392505050565b6000806000806080858703121561208757600080fd5b843561209281612412565b6001600160a01b0390811694506020860135906120ae82612412565b9497941695505050506040820135916060013590565b600080600080600060a086880312156120dc57600080fd5b85356120e781612412565b6001600160a01b03908116955060208701359061210382612412565b9598951696505050506040830135926060810135926080909101359150565b60008060008060008060c0878903121561213b57600080fd5b863561214681612412565b6001600160a01b0390811696506020908882013561216381612412565b16955060408801359450606088013593506080880135925060a088013567ffffffffffffffff8082111561219657600080fd5b818a0191508a601f8301126121aa57600080fd5b8135818111156121bc576121bc6123fc565b8060051b604051601f19603f830116810181811085821117156121e1576121e16123fc565b604052828152858101935084860182860187018f101561220057600080fd5b600095505b83861015612223578035855260019590950194938601938601612205565b508096505050505050509295509295509295565b60006020828403121561224957600080fd5b5035919050565b6000806040838503121561226357600080fd5b50508035926020909101359150565b60008261228f57634e487b7160e01b600052601260045260246000fd5b500490565b600181815b808511156122cf5781600019048211156122b5576122b56123d0565b808516156122c257918102915b93841c9390800290612299565b509250929050565b600061200e83836000826122ed57506001611971565b816122fa57506000611971565b8160018114612310576002811461231a57612336565b6001915050611971565b60ff84111561232b5761232b6123d0565b50506001821b611971565b5060208310610133831016604e8410600b8410161715612359575081810a611971565b6123638383612294565b8060001904821115612377576123776123d0565b029392505050565b6000816000190483118215151615612399576123996123d0565b500290565b6000828210156123b0576123b06123d0565b500390565b60006000198214156123c9576123c96123d0565b5060010190565b634e487b7160e01b600052601160045260246000fd5b634e487b7160e01b600052603260045260246000fd5b634e487b7160e01b600052604160045260246000fd5b74ffffffffffffffffffffffffffffffffffffffffff8116811461243557600080fd5b5056fea26474726f6e58221220147e0d219af775a4ef91dcb16c6a0f3b96bd92992efdac526deae738a6b36e5d64736f6c63430008060033",
  "source": "// SPDX-License-Identifier: MIT\npragma solidity ^0.8.6;\n\nimport \"@openzeppelin/contracts/token/ERC20/utils/SafeERC20.sol\";\nimport \"@openzeppelin/contracts/token/ERC20/IERC20.sol\";\n// import { Errors } from \"./libraries/Errors.sol\";\nimport \"./Vault.sol\";\nimport \"./System.sol\";\nimport \"@openzeppelin/contracts/utils/math/SafeMath.sol\";\nimport \"@openzeppelin/contracts/utils/math/Math.sol\";\n\ncontract Exchange {\n    using SafeERC20 for IERC20;\n    using Math for uint256;\n    using SafeMath for uint256;\n    event OrderCreated(\n        bytes32 orderId,\n        bytes32 pair,\n        address maker,\n        uint256 amount,\n        uint256 exchangeRate,\n        uint256 orderType\n    );\n\n    event OrderUpdated(\n        bytes32 orderId,\n        uint256 amount\n    );\n\n    event OrderExecuted(bytes32 orderId, address taker, uint fillAmount);\n\n    event PairCreated(\n        bytes32 pairId,\n        address token0,\n        address token1,\n        uint256 exchangeRateDecimals,\n        uint256 minToken0Order\n    );\n\n    enum OrderType {\n        LIMITSELL,\n        LIMITBUY\n    }\n\n    struct Order {\n        address maker;\n        address token0;\n        address token1;\n        uint256 orderType;\n        uint256 exchangeRate;\n        uint256 amount; // amount of token0\n    }\n\n    struct Pair {\n        address token0;\n        address token1;\n        uint256 exchangeRateDecimals;\n        uint256 minToken0Order;\n    }\n\n    mapping(bytes32 => Order) public placedOrders;\n    mapping(bytes32 => Pair) public pairs;\n    System public system;\n\n    constructor(address _system) {\n        system = System(_system);\n    }\n\n    function createPair(\n        address token0,\n        address token1,\n        uint256 exchangeRateDecimals,\n        uint256 minToken0Order\n    ) external {\n        if(msg.sender != system.admin()) revert('NotAuthorized'); //Errors.NotAuthorized();\n\n        bytes32 pairHash = keccak256(abi.encodePacked(token0, token1));\n        Pair storage pair = pairs[pairHash];\n        pair.token0 = token0;\n        pair.token1 = token1;\n        pair.exchangeRateDecimals = exchangeRateDecimals;\n        pair.minToken0Order = minToken0Order;\n\n        emit PairCreated(\n            pairHash,\n            token0,\n            token1,\n            exchangeRateDecimals,\n            minToken0Order\n        );\n    }\n\n    function createLimitOrder(\n        address token0,\n        address token1,\n        uint256 amount, // amount of token0 to buy/sell\n        uint256 orderType,\n        uint256 exchangeRate\n    ) public {\n        bytes32 pairHash = keccak256(abi.encodePacked(token0, token1));\n        Pair memory pair = pairs[pairHash];\n        if(pair.token0 == address(0)) revert('PairNotSupported'); // Errors.PairNotSupported();\n\n        /* -------------------------------------------------------------------------- */\n        /*                                 Validation                                 */\n        /* -------------------------------------------------------------------------- */\n\n        // exchange rate validation\n        if(exchangeRate == 0) revert('InvalidExchangeRate'); // Errors.InvalidExchangeRate(exchangeRate);\n\n        // check for minimum order size        \n        if (amount < pair.minToken0Order) revert('InvalidOrderAmount'); // Errors.InvalidOrderAmount(amount);\n        \n        bytes32 orderHash = keccak256(abi.encode(\n            msg.sender,         // maker\n            token0,             // token0\n            token1,             // token1\n            amount,             // amount\n            orderType,          // orderType\n            exchangeRate        // exchangeRate\n        ));\n\n        Order storage order = placedOrders[orderHash];\n        order.maker = msg.sender;\n        // order.srcAmount = token0Amt;\n        order.token0 = token0;\n        order.token1 = token1;\n        order.exchangeRate = exchangeRate;\n        order.amount = amount;\n\n        // lock token0 or token1\n        if (orderType == uint256(OrderType.LIMITSELL)) {\n            system.vault().lockToken(order.token0, amount, msg.sender);\n            system.vault().decreaseBalance(order.token0, amount, msg.sender);\n        } else if (orderType == uint256(OrderType.LIMITBUY)) {\n            uint token1Amount = amount.mul(exchangeRate).div(10**pair.exchangeRateDecimals);\n            system.vault().lockToken(order.token1, token1Amount, msg.sender);\n            system.vault().decreaseBalance(order.token1, token1Amount, msg.sender);\n        }\n\n        emit OrderCreated(\n            orderHash,\n            pairHash,\n            msg.sender,\n            amount,\n            exchangeRate,\n            orderType\n        );\n    }\n\n    function updateLimitOrder(bytes32 orderId, uint256 amount) external {\n        Order storage order = placedOrders[orderId];\n        if(msg.sender != order.maker) revert('NotAuthorized'); // Errors.NotAuthorized();\n\n        Pair memory pair = pairs[keccak256(abi.encodePacked(order.token0, order.token1))];\n\n        address token = order.token0;\n        if (order.amount < amount) {\n            uint extraAmount = amount.sub(order.amount);\n            if(order.orderType == uint256(OrderType.LIMITBUY)){\n                token = order.token1;\n                extraAmount = extraAmount.mul(order.exchangeRate).div(10**pair.exchangeRateDecimals);\n            }\n            system.vault().lockToken(token, extraAmount, msg.sender);\n            system.vault().decreaseBalance(token, extraAmount, order.maker);\n        } else if (order.amount > amount) {\n            uint lessAmount = order.amount.sub(amount);\n            if(order.orderType == uint256(OrderType.LIMITBUY)){\n                token = order.token1;\n                lessAmount = lessAmount.mul(order.exchangeRate).div(10**pair.exchangeRateDecimals);\n            }\n            system.vault().unlockToken(token, lessAmount, msg.sender);\n            system.vault().increaseBalance(token, lessAmount, order.maker);\n        }\n        // update order amount\n        order.amount = amount;\n\n        emit OrderUpdated(orderId, amount);\n    }\n\n    function executeLimitOrder(bytes32 orderId, uint256 fillAmount) public returns(uint) {\n        // Order\n        Order storage order = placedOrders[orderId];\n        /* -------------------------------------------------------------------------- */\n        /*                                 Validation                                 */\n        /* -------------------------------------------------------------------------- */\n        if(order.maker == address(0)) revert('OrderNotFound'); // Errors.OrderNotFound(orderId);\n\n        // Pair\n        Pair memory pair = pairs[keccak256(abi.encodePacked(order.token0, order.token1))];\n\n\n        // minus fill amount from order\n        fillAmount = fillAmount.max(order.amount);\n        order.amount -= fillAmount;\n\n        uint256 token1FillAmount = fillAmount * order.exchangeRate / 10**pair.exchangeRateDecimals;\n        if (order.orderType == uint256(OrderType.LIMITSELL)) {\n            // unlock and decrement maker's token0 balance\n            // increment msg.sender's token0 balance\n            system.vault().unlockToken(order.token0, fillAmount, order.maker);\n            system.vault().decreaseBalance(order.token0, fillAmount, order.maker);\n            system.vault().increaseBalance(order.token0, fillAmount, msg.sender);\n            // decrement msg.sender's token1 balance\n            // increment maker's token1 balance\n            system.vault().decreaseBalance(order.token1, token1FillAmount, msg.sender);\n            system.vault().increaseBalance(order.token1, token1FillAmount, order.maker);\n\n            // delete order if remaining order amount is less than minOrderAmount\n            if (order.amount < pair.minToken0Order){\n                system.vault().unlockToken(order.token0, order.amount, order.maker);\n                delete placedOrders[orderId];\n            }\n        } else if (order.orderType == uint256(OrderType.LIMITBUY)) {\n            // decrement msg.sender's token0 balance\n            // increment maker's token0 balance\n            system.vault().decreaseBalance(order.token0, fillAmount, msg.sender);\n            system.vault().increaseBalance(order.token0, fillAmount, order.maker);\n            // unlock and decrement maker's token1 balance\n            // increment msg.sender's token1 balance\n            system.vault().unlockToken(order.token1, token1FillAmount, order.maker);\n            system.vault().decreaseBalance(order.token1, token1FillAmount, order.maker);\n            system.vault().increaseBalance(order.token1, token1FillAmount, msg.sender);\n\n            // delete order if remaining order amount is less than minOrderAmount\n            if (order.amount < pair.minToken0Order){\n                system.vault().unlockToken(order.token1, order.amount.mul(order.exchangeRate).div(10**pair.exchangeRateDecimals), order.maker);\n                delete placedOrders[orderId];\n            }\n        }\n        else {\n            revert('InvalidOrderType'); // Errors.InvalidOrderType(order.orderType);\n        }\n\n        emit OrderExecuted(orderId, msg.sender, fillAmount);\n        return fillAmount;\n    }\n\n    function executeAndPlaceOrder(address token0, address token1, uint amount, uint exchangeRate, uint orderType, bytes32[] memory ordersToExecute) external {\n        // execute orders\n        for (uint i = 0; i < ordersToExecute.length; i++) {\n            require(placedOrders[ordersToExecute[i]].token0 != token0, 'Invalid Order');\n            require(placedOrders[ordersToExecute[i]].token1 != token1, 'Invalid Order'); \n            amount = amount.sub(executeLimitOrder(ordersToExecute[i], amount));\n        }\n\n        // place order\n        createLimitOrder(token0, token1, amount, orderType, exchangeRate);\n    }\n}\n",
  "sourcePath": "/Users/prasad/projects/synthex/zexe/contracts/Exchange.sol",
  "compiler": {
    "name": "solc",
    "version": "0.8.6+commit.0e36fba0.mod.Emscripten.clang"
  },
  "schemaVersion": "2.0.1",
  "updatedAt": "2022-11-02T11:18:25.300Z"
}