{
  "contractName": "Helper",
  "abi": [
    {
      "inputs": [
        {
          "components": [
            {
              "internalType": "address",
              "name": "target",
              "type": "address"
            },
            {
              "internalType": "bytes",
              "name": "callData",
              "type": "bytes"
            }
          ],
          "internalType": "struct Multicall.Call[]",
          "name": "calls",
          "type": "tuple[]"
        }
      ],
      "name": "aggregate",
      "outputs": [
        {
          "internalType": "uint256",
          "name": "blockNumber",
          "type": "uint256"
        },
        {
          "internalType": "bytes[]",
          "name": "returnData",
          "type": "bytes[]"
        }
      ],
      "stateMutability": "payable",
      "type": "function"
    },
    {
      "inputs": [
        {
          "components": [
            {
              "internalType": "address",
              "name": "target",
              "type": "address"
            },
            {
              "internalType": "bool",
              "name": "allowFailure",
              "type": "bool"
            },
            {
              "internalType": "bytes",
              "name": "callData",
              "type": "bytes"
            }
          ],
          "internalType": "struct Multicall.Call3[]",
          "name": "calls",
          "type": "tuple[]"
        }
      ],
      "name": "aggregate3",
      "outputs": [
        {
          "components": [
            {
              "internalType": "bool",
              "name": "success",
              "type": "bool"
            },
            {
              "internalType": "bytes",
              "name": "returnData",
              "type": "bytes"
            }
          ],
          "internalType": "struct Multicall.Result[]",
          "name": "returnData",
          "type": "tuple[]"
        }
      ],
      "stateMutability": "payable",
      "type": "function"
    },
    {
      "inputs": [
        {
          "components": [
            {
              "internalType": "address",
              "name": "target",
              "type": "address"
            },
            {
              "internalType": "bool",
              "name": "allowFailure",
              "type": "bool"
            },
            {
              "internalType": "uint256",
              "name": "value",
              "type": "uint256"
            },
            {
              "internalType": "bytes",
              "name": "callData",
              "type": "bytes"
            }
          ],
          "internalType": "struct Multicall.Call3Value[]",
          "name": "calls",
          "type": "tuple[]"
        }
      ],
      "name": "aggregate3Value",
      "outputs": [
        {
          "components": [
            {
              "internalType": "bool",
              "name": "success",
              "type": "bool"
            },
            {
              "internalType": "bytes",
              "name": "returnData",
              "type": "bytes"
            }
          ],
          "internalType": "struct Multicall.Result[]",
          "name": "returnData",
          "type": "tuple[]"
        }
      ],
      "stateMutability": "payable",
      "type": "function"
    },
    {
      "inputs": [
        {
          "internalType": "address[]",
          "name": "tokens",
          "type": "address[]"
        },
        {
          "internalType": "address",
          "name": "user",
          "type": "address"
        }
      ],
      "name": "balanceOf",
      "outputs": [
        {
          "internalType": "uint256[]",
          "name": "balance",
          "type": "uint256[]"
        }
      ],
      "stateMutability": "view",
      "type": "function"
    },
    {
      "inputs": [
        {
          "components": [
            {
              "internalType": "address",
              "name": "target",
              "type": "address"
            },
            {
              "internalType": "bytes",
              "name": "callData",
              "type": "bytes"
            }
          ],
          "internalType": "struct Multicall.Call[]",
          "name": "calls",
          "type": "tuple[]"
        }
      ],
      "name": "blockAndAggregate",
      "outputs": [
        {
          "internalType": "uint256",
          "name": "blockNumber",
          "type": "uint256"
        },
        {
          "internalType": "bytes32",
          "name": "blockHash",
          "type": "bytes32"
        },
        {
          "components": [
            {
              "internalType": "bool",
              "name": "success",
              "type": "bool"
            },
            {
              "internalType": "bytes",
              "name": "returnData",
              "type": "bytes"
            }
          ],
          "internalType": "struct Multicall.Result[]",
          "name": "returnData",
          "type": "tuple[]"
        }
      ],
      "stateMutability": "payable",
      "type": "function"
    },
    {
      "inputs": [
        {
          "internalType": "uint256",
          "name": "blockNumber",
          "type": "uint256"
        }
      ],
      "name": "getBlockHash",
      "outputs": [
        {
          "internalType": "bytes32",
          "name": "blockHash",
          "type": "bytes32"
        }
      ],
      "stateMutability": "view",
      "type": "function"
    },
    {
      "inputs": [],
      "name": "getBlockNumber",
      "outputs": [
        {
          "internalType": "uint256",
          "name": "blockNumber",
          "type": "uint256"
        }
      ],
      "stateMutability": "view",
      "type": "function"
    },
    {
      "inputs": [],
      "name": "getChainId",
      "outputs": [
        {
          "internalType": "uint256",
          "name": "chainid",
          "type": "uint256"
        }
      ],
      "stateMutability": "view",
      "type": "function"
    },
    {
      "inputs": [],
      "name": "getCurrentBlockCoinbase",
      "outputs": [
        {
          "internalType": "address",
          "name": "coinbase",
          "type": "address"
        }
      ],
      "stateMutability": "view",
      "type": "function"
    },
    {
      "inputs": [],
      "name": "getCurrentBlockDifficulty",
      "outputs": [
        {
          "internalType": "uint256",
          "name": "difficulty",
          "type": "uint256"
        }
      ],
      "stateMutability": "view",
      "type": "function"
    },
    {
      "inputs": [],
      "name": "getCurrentBlockGasLimit",
      "outputs": [
        {
          "internalType": "uint256",
          "name": "gaslimit",
          "type": "uint256"
        }
      ],
      "stateMutability": "view",
      "type": "function"
    },
    {
      "inputs": [],
      "name": "getCurrentBlockTimestamp",
      "outputs": [
        {
          "internalType": "uint256",
          "name": "timestamp",
          "type": "uint256"
        }
      ],
      "stateMutability": "view",
      "type": "function"
    },
    {
      "inputs": [
        {
          "internalType": "address",
          "name": "addr",
          "type": "address"
        }
      ],
      "name": "getEthBalance",
      "outputs": [
        {
          "internalType": "uint256",
          "name": "balance",
          "type": "uint256"
        }
      ],
      "stateMutability": "view",
      "type": "function"
    },
    {
      "inputs": [],
      "name": "getLastBlockHash",
      "outputs": [
        {
          "internalType": "bytes32",
          "name": "blockHash",
          "type": "bytes32"
        }
      ],
      "stateMutability": "view",
      "type": "function"
    },
    {
      "inputs": [
        {
          "internalType": "address",
          "name": "vault",
          "type": "address"
        },
        {
          "internalType": "address[]",
          "name": "tokens",
          "type": "address[]"
        },
        {
          "internalType": "address",
          "name": "user",
          "type": "address"
        }
      ],
      "name": "tradingBalanceOf",
      "outputs": [
        {
          "internalType": "uint256[]",
          "name": "balance",
          "type": "uint256[]"
        }
      ],
      "stateMutability": "view",
      "type": "function"
    },
    {
      "inputs": [
        {
          "internalType": "bool",
          "name": "requireSuccess",
          "type": "bool"
        },
        {
          "components": [
            {
              "internalType": "address",
              "name": "target",
              "type": "address"
            },
            {
              "internalType": "bytes",
              "name": "callData",
              "type": "bytes"
            }
          ],
          "internalType": "struct Multicall.Call[]",
          "name": "calls",
          "type": "tuple[]"
        }
      ],
      "name": "tryAggregate",
      "outputs": [
        {
          "components": [
            {
              "internalType": "bool",
              "name": "success",
              "type": "bool"
            },
            {
              "internalType": "bytes",
              "name": "returnData",
              "type": "bytes"
            }
          ],
          "internalType": "struct Multicall.Result[]",
          "name": "returnData",
          "type": "tuple[]"
        }
      ],
      "stateMutability": "payable",
      "type": "function"
    },
    {
      "inputs": [
        {
          "internalType": "bool",
          "name": "requireSuccess",
          "type": "bool"
        },
        {
          "components": [
            {
              "internalType": "address",
              "name": "target",
              "type": "address"
            },
            {
              "internalType": "bytes",
              "name": "callData",
              "type": "bytes"
            }
          ],
          "internalType": "struct Multicall.Call[]",
          "name": "calls",
          "type": "tuple[]"
        }
      ],
      "name": "tryBlockAndAggregate",
      "outputs": [
        {
          "internalType": "uint256",
          "name": "blockNumber",
          "type": "uint256"
        },
        {
          "internalType": "bytes32",
          "name": "blockHash",
          "type": "bytes32"
        },
        {
          "components": [
            {
              "internalType": "bool",
              "name": "success",
              "type": "bool"
            },
            {
              "internalType": "bytes",
              "name": "returnData",
              "type": "bytes"
            }
          ],
          "internalType": "struct Multicall.Result[]",
          "name": "returnData",
          "type": "tuple[]"
        }
      ],
      "stateMutability": "payable",
      "type": "function"
    }
  ],
  "bytecode": "0x608060405234801561001057600080fd5b50d3801561001d57600080fd5b50d2801561002a57600080fd5b506112da8061003a6000396000f3fe60806040526004361061010e5760003560e01c80634d2301cc116100a5578063a8b0574e11610074578063c3077fa911610059578063c3077fa91461037c578063ee82ac5e1461038f578063fd6e0e40146103c857600080fd5b8063a8b0574e14610334578063bce38bd71461036957600080fd5b80634d2301cc1461028557806372425d9d146102c757806382ad56cb146102f457806386d516e81461030757600080fd5b80633408e470116100e15780633408e470146101c257806337fd25c7146101ef578063399542e91461023657806342cbb15c1461025857600080fd5b80630f28c97d14610113578063174dea711461014f578063252dba421461016f57806327e86d6e14610190575b600080fd5b34801561011f57600080fd5b50d3801561012c57600080fd5b50d2801561013957600080fd5b50425b6040519081526020015b60405180910390f35b61016261015d366004610f3a565b610402565b60405161014691906110d3565b61018261017d366004610f3a565b6105f6565b60405161014692919061112a565b34801561019c57600080fd5b50d380156101a957600080fd5b50d280156101b657600080fd5b5043600019014061013c565b3480156101ce57600080fd5b50d380156101db57600080fd5b50d280156101e857600080fd5b504661013c565b3480156101fb57600080fd5b50d3801561020857600080fd5b50d2801561021557600080fd5b50610229610224366004610eec565b610770565b60405161014691906110e6565b610249610244366004610f7c565b6108ad565b60405161014693929190611194565b34801561026457600080fd5b50d3801561027157600080fd5b50d2801561027e57600080fd5b504361013c565b34801561029157600080fd5b50d3801561029e57600080fd5b50d280156102ab57600080fd5b5061013c6102ba366004610e6c565b6001600160a01b03163190565b3480156102d357600080fd5b50d380156102e057600080fd5b50d280156102ed57600080fd5b504461013c565b610162610302366004610f3a565b6108c8565b34801561031357600080fd5b50d3801561032057600080fd5b50d2801561032d57600080fd5b504561013c565b34801561034057600080fd5b50d3801561034d57600080fd5b50d2801561035a57600080fd5b50604051418152602001610146565b610162610377366004610f7c565b610a50565b61024961038a366004610f3a565b610be9565b34801561039b57600080fd5b50d380156103a857600080fd5b50d280156103b557600080fd5b5061013c6103c4366004610fd6565b4090565b3480156103d457600080fd5b50d380156103e157600080fd5b50d280156103ee57600080fd5b506102296103fd366004610e8e565b610c08565b60606000828067ffffffffffffffff8111156104205761042061128e565b60405190808252806020026020018201604052801561046657816020015b60408051808201909152600081526060602082015281526020019060019003908161043e5790505b5092503660005b8281101561059857600085828151811061048957610489611278565b602002602001015190508787838181106104a5576104a5611278565b90506020028101906104b79190611203565b6040810135958601959093506104d06020850185610e6c565b6001600160a01b0316816104e760608701876111bc565b6040516104f59291906110c3565b60006040518083038185875af1925050503d8060008114610532576040519150601f19603f3d011682016040523d82523d6000602084013e610537565b606091505b50602080850191909152901515808452908501351761058e5762461bcd60e51b600052602060045260176024527f4d756c746963616c6c333a2063616c6c206661696c656400000000000000000060445260846000fd5b505060010161046d565b508234146105ed5760405162461bcd60e51b815260206004820152601a60248201527f4d756c746963616c6c333a2076616c7565206d69736d6174636800000000000060448201526064015b60405180910390fd5b50505092915050565b436060828067ffffffffffffffff8111156106135761061361128e565b60405190808252806020026020018201604052801561064657816020015b60608152602001906001900390816106315790505b5091503660005b8281101561076657600087878381811061066957610669611278565b905060200281019061067b9190611239565b925061068a6020840184610e6c565b6001600160a01b03166106a060208501856111bc565b6040516106ae9291906110c3565b6000604051808303816000865af19150503d80600081146106eb576040519150601f19603f3d011682016040523d82523d6000602084013e6106f0565b606091505b5086848151811061070357610703611278565b602090810291909101015290508061075d5760405162461bcd60e51b815260206004820152601760248201527f4d756c746963616c6c333a2063616c6c206661696c656400000000000000000060448201526064016105e4565b5060010161064d565b5050509250929050565b60606000835167ffffffffffffffff81111561078e5761078e61128e565b6040519080825280602002602001820160405280156107b7578160200160208202803683370190505b50905060005b84518110156108a5578481815181106107d8576107d8611278565b60209081029190910101516040517f70a082310000000000000000000000000000000000000000000000000000000081526001600160a01b038681166004830152909116906370a082319060240160206040518083038186803b15801561083e57600080fd5b505afa158015610852573d6000803e3d6000fd5b505050506040513d601f19601f820116820180604052508101906108769190610fef565b82828151811061088857610888611278565b60209081029190910101528061089d8161124f565b9150506107bd565b509392505050565b43804060606108bd868686610a50565b905093509350939050565b6060818067ffffffffffffffff8111156108e4576108e461128e565b60405190808252806020026020018201604052801561092a57816020015b6040805180820190915260008152606060208201528152602001906001900390816109025790505b5091503660005b828110156105ed57600084828151811061094d5761094d611278565b6020026020010151905086868381811061096957610969611278565b905060200281019061097b9190611223565b925061098a6020840184610e6c565b6001600160a01b03166109a060408501856111bc565b6040516109ae9291906110c3565b6000604051808303816000865af19150503d80600081146109eb576040519150601f19603f3d011682016040523d82523d6000602084013e6109f0565b606091505b506020808401919091529015158083529084013517610a475762461bcd60e51b600052602060045260176024527f4d756c746963616c6c333a2063616c6c206661696c656400000000000000000060445260646000fd5b50600101610931565b6060818067ffffffffffffffff811115610a6c57610a6c61128e565b604051908082528060200260200182016040528015610ab257816020015b604080518082019091526000815260606020820152815260200190600190039081610a8a5790505b5091503660005b82811015610bdf576000848281518110610ad557610ad5611278565b60200260200101519050868683818110610af157610af1611278565b9050602002810190610b039190611239565b9250610b126020840184610e6c565b6001600160a01b0316610b2860208501856111bc565b604051610b369291906110c3565b6000604051808303816000865af19150503d8060008114610b73576040519150601f19603f3d011682016040523d82523d6000602084013e610b78565b606091505b506020830152151581528715610bd6578051610bd65760405162461bcd60e51b815260206004820152601760248201527f4d756c746963616c6c333a2063616c6c206661696c656400000000000000000060448201526064016105e4565b50600101610ab9565b5050509392505050565b6000806060610bfa600186866108ad565b919790965090945092505050565b60606000835167ffffffffffffffff811115610c2657610c2661128e565b604051908082528060200260200182016040528015610c4f578160200160208202803683370190505b50905060005b8451811015610d3957856001600160a01b031663b47064c885878481518110610c8057610c80611278565b60200260200101516040518363ffffffff1660e01b8152600401610cba9291906001600160a01b0392831681529116602082015260400190565b60206040518083038186803b158015610cd257600080fd5b505afa158015610ce6573d6000803e3d6000fd5b505050506040513d601f19601f82011682018060405250810190610d0a9190610fef565b828281518110610d1c57610d1c611278565b602090810291909101015280610d318161124f565b915050610c55565b50949350505050565b6000813574ffffffffffffffffffffffffffffffffffffffffff81168114610d6957600080fd5b6001600160a01b031692915050565b600082601f830112610d8957600080fd5b8135602067ffffffffffffffff80831115610da657610da661128e565b8260051b604051601f19603f83011681018181108482111715610dcb57610dcb61128e565b60405284815283810192508684018288018501891015610dea57600080fd5b600092505b85831015610e1457610e0081610d42565b845292840192600192909201918401610def565b50979650505050505050565b60008083601f840112610e3257600080fd5b50813567ffffffffffffffff811115610e4a57600080fd5b6020830191508360208260051b8501011115610e6557600080fd5b9250929050565b600060208284031215610e7e57600080fd5b610e8782610d42565b9392505050565b600080600060608486031215610ea357600080fd5b610eac84610d42565b9250602084013567ffffffffffffffff811115610ec857600080fd5b610ed486828701610d78565b925050610ee360408501610d42565b90509250925092565b60008060408385031215610eff57600080fd5b823567ffffffffffffffff811115610f1657600080fd5b610f2285828601610d78565b925050610f3160208401610d42565b90509250929050565b60008060208385031215610f4d57600080fd5b823567ffffffffffffffff811115610f6457600080fd5b610f7085828601610e20565b90969095509350505050565b600080600060408486031215610f9157600080fd5b83358015158114610fa157600080fd5b9250602084013567ffffffffffffffff811115610fbd57600080fd5b610fc986828701610e20565b9497909650939450505050565b600060208284031215610fe857600080fd5b5035919050565b60006020828403121561100157600080fd5b5051919050565b600082825180855260208086019550808260051b84010181860160005b8481101561106957858303601f190189528151805115158452840151604085850181905261105581860183611076565b9a86019a9450505090830190600101611025565b5090979650505050505050565b6000815180845260005b8181101561109c57602081850181015186830182015201611080565b818111156110ae576000602083870101525b50601f01601f19169290920160200192915050565b8183823760009101908152919050565b602081526000610e876020830184611008565b6020808252825182820181905260009190848201906040850190845b8181101561111e57835183529284019291840191600101611102565b50909695505050505050565b600060408201848352602060408185015281855180845260608601915060608160051b870101935082870160005b8281101561118657605f19888703018452611174868351611076565b95509284019290840190600101611158565b509398975050505050505050565b8381528260208201526060604082015260006111b36060830184611008565b95945050505050565b6000808335601e198436030181126111d357600080fd5b83018035915067ffffffffffffffff8211156111ee57600080fd5b602001915036819003821315610e6557600080fd5b60008235607e1983360301811261121957600080fd5b9190910192915050565b60008235605e1983360301811261121957600080fd5b60008235603e1983360301811261121957600080fd5b600060001982141561127157634e487b7160e01b600052601160045260246000fd5b5060010190565b634e487b7160e01b600052603260045260246000fd5b634e487b7160e01b600052604160045260246000fdfea26474726f6e582212201f856d1bab216f514bd135f713837f3d8dac4890f373ddaf689907bb241cc95c64736f6c63430008060033",
  "source": "// SPDX-License-Identifier: MIT\npragma solidity ^0.8.6;\nimport \"@openzeppelin/contracts/token/ERC20/ERC20.sol\";\nimport \"./Vault.sol\";\n\n\n\n/// @title Multicall3\n/// @notice Aggregate results from multiple function calls\n/// @dev Multicall & Multicall2 backwards-compatible\n/// @dev Aggregate methods are marked `payable` to save 24 gas per call\n/// @author Michael Elliot <mike@makerdao.com>\n/// @author Joshua Levine <joshua@makerdao.com>\n/// @author Nick Johnson <arachnid@notdot.net>\n/// @author Andreas Bigger <andreas@nascent.xyz>\n/// @author Matt Solomon <matt@mattsolomon.dev>\ncontract Multicall {\n    struct Call {\n        address target;\n        bytes callData;\n    }\n\n    struct Call3 {\n        address target;\n        bool allowFailure;\n        bytes callData;\n    }\n\n    struct Call3Value {\n        address target;\n        bool allowFailure;\n        uint256 value;\n        bytes callData;\n    }\n\n    struct Result {\n        bool success;\n        bytes returnData;\n    }\n\n    /// @notice Backwards-compatible call aggregation with Multicall\n    /// @param calls An array of Call structs\n    /// @return blockNumber The block number where the calls were executed\n    /// @return returnData An array of bytes containing the responses\n    function aggregate(Call[] calldata calls) public payable returns (uint256 blockNumber, bytes[] memory returnData) {\n        blockNumber = block.number;\n        uint256 length = calls.length;\n        returnData = new bytes[](length);\n        Call calldata call;\n        for (uint256 i = 0; i < length;) {\n            bool success;\n            call = calls[i];\n            (success, returnData[i]) = call.target.call(call.callData);\n            require(success, \"Multicall3: call failed\");\n            unchecked { ++i; }\n        }\n    }\n\n    /// @notice Backwards-compatible with Multicall2\n    /// @notice Aggregate calls without requiring success\n    /// @param requireSuccess If true, require all calls to succeed\n    /// @param calls An array of Call structs\n    /// @return returnData An array of Result structs\n    function tryAggregate(bool requireSuccess, Call[] calldata calls) public payable returns (Result[] memory returnData) {\n        uint256 length = calls.length;\n        returnData = new Result[](length);\n        Call calldata call;\n        for (uint256 i = 0; i < length;) {\n            Result memory result = returnData[i];\n            call = calls[i];\n            (result.success, result.returnData) = call.target.call(call.callData);\n            if (requireSuccess) require(result.success, \"Multicall3: call failed\");\n            unchecked { ++i; }\n        }\n    }\n\n    /// @notice Backwards-compatible with Multicall2\n    /// @notice Aggregate calls and allow failures using tryAggregate\n    /// @param calls An array of Call structs\n    /// @return blockNumber The block number where the calls were executed\n    /// @return blockHash The hash of the block where the calls were executed\n    /// @return returnData An array of Result structs\n    function tryBlockAndAggregate(bool requireSuccess, Call[] calldata calls) public payable returns (uint256 blockNumber, bytes32 blockHash, Result[] memory returnData) {\n        blockNumber = block.number;\n        blockHash = blockhash(block.number);\n        returnData = tryAggregate(requireSuccess, calls);\n    }\n\n    /// @notice Backwards-compatible with Multicall2\n    /// @notice Aggregate calls and allow failures using tryAggregate\n    /// @param calls An array of Call structs\n    /// @return blockNumber The block number where the calls were executed\n    /// @return blockHash The hash of the block where the calls were executed\n    /// @return returnData An array of Result structs\n    function blockAndAggregate(Call[] calldata calls) public payable returns (uint256 blockNumber, bytes32 blockHash, Result[] memory returnData) {\n        (blockNumber, blockHash, returnData) = tryBlockAndAggregate(true, calls);\n    }\n\n    /// @notice Aggregate calls, ensuring each returns success if required\n    /// @param calls An array of Call3 structs\n    /// @return returnData An array of Result structs\n    function aggregate3(Call3[] calldata calls) public payable returns (Result[] memory returnData) {\n        uint256 length = calls.length;\n        returnData = new Result[](length);\n        Call3 calldata calli;\n        for (uint256 i = 0; i < length;) {\n            Result memory result = returnData[i];\n            calli = calls[i];\n            (result.success, result.returnData) = calli.target.call(calli.callData);\n            assembly {\n                // Revert if the call fails and failure is not allowed\n                // `allowFailure := calldataload(add(calli, 0x20))` and `success := mload(result)`\n                if iszero(or(calldataload(add(calli, 0x20)), mload(result))) {\n                    // set \"Error(string)\" signature: bytes32(bytes4(keccak256(\"Error(string)\")))\n                    mstore(0x00, 0x08c379a000000000000000000000000000000000000000000000000000000000)\n                    // set data offset\n                    mstore(0x04, 0x0000000000000000000000000000000000000000000000000000000000000020)\n                    // set length of revert string\n                    mstore(0x24, 0x0000000000000000000000000000000000000000000000000000000000000017)\n                    // set revert string: bytes32(abi.encodePacked(\"Multicall3: call failed\"))\n                    mstore(0x44, 0x4d756c746963616c6c333a2063616c6c206661696c6564000000000000000000)\n                    revert(0x00, 0x64)\n                }\n            }\n            unchecked { ++i; }\n        }\n    }\n\n    /// @notice Aggregate calls with a msg value\n    /// @notice Reverts if msg.value is less than the sum of the call values\n    /// @param calls An array of Call3Value structs\n    /// @return returnData An array of Result structs\n    function aggregate3Value(Call3Value[] calldata calls) public payable returns (Result[] memory returnData) {\n        uint256 valAccumulator;\n        uint256 length = calls.length;\n        returnData = new Result[](length);\n        Call3Value calldata calli;\n        for (uint256 i = 0; i < length;) {\n            Result memory result = returnData[i];\n            calli = calls[i];\n            uint256 val = calli.value;\n            // Humanity will be a Type V Kardashev Civilization before this overflows - andreas\n            // ~ 10^25 Wei in existence << ~ 10^76 size uint fits in a uint256\n            unchecked { valAccumulator += val; }\n            (result.success, result.returnData) = calli.target.call{value: val}(calli.callData);\n            assembly {\n                // Revert if the call fails and failure is not allowed\n                // `allowFailure := calldataload(add(calli, 0x20))` and `success := mload(result)`\n                if iszero(or(calldataload(add(calli, 0x20)), mload(result))) {\n                    // set \"Error(string)\" signature: bytes32(bytes4(keccak256(\"Error(string)\")))\n                    mstore(0x00, 0x08c379a000000000000000000000000000000000000000000000000000000000)\n                    // set data offset\n                    mstore(0x04, 0x0000000000000000000000000000000000000000000000000000000000000020)\n                    // set length of revert string\n                    mstore(0x24, 0x0000000000000000000000000000000000000000000000000000000000000017)\n                    // set revert string: bytes32(abi.encodePacked(\"Multicall3: call failed\"))\n                    mstore(0x44, 0x4d756c746963616c6c333a2063616c6c206661696c6564000000000000000000)\n                    revert(0x00, 0x84)\n                }\n            }\n            unchecked { ++i; }\n        }\n        // Finally, make sure the msg.value = SUM(call[0...i].value)\n        require(msg.value == valAccumulator, \"Multicall3: value mismatch\");\n    }\n\n    /// @notice Returns the block hash for the given block number\n    /// @param blockNumber The block number\n    function getBlockHash(uint256 blockNumber) public view returns (bytes32 blockHash) {\n        blockHash = blockhash(blockNumber);\n    }\n\n    /// @notice Returns the block number\n    function getBlockNumber() public view returns (uint256 blockNumber) {\n        blockNumber = block.number;\n    }\n\n    /// @notice Returns the block coinbase\n    function getCurrentBlockCoinbase() public view returns (address coinbase) {\n        coinbase = block.coinbase;\n    }\n\n    /// @notice Returns the block difficulty\n    function getCurrentBlockDifficulty() public view returns (uint256 difficulty) {\n        difficulty = block.difficulty;\n    }\n\n    /// @notice Returns the block gas limit\n    function getCurrentBlockGasLimit() public view returns (uint256 gaslimit) {\n        gaslimit = block.gaslimit;\n    }\n\n    /// @notice Returns the block timestamp\n    function getCurrentBlockTimestamp() public view returns (uint256 timestamp) {\n        timestamp = block.timestamp;\n    }\n\n    /// @notice Returns the (ETH) balance of a given address\n    function getEthBalance(address addr) public view returns (uint256 balance) {\n        balance = addr.balance;\n    }\n\n    /// @notice Returns the block hash of the last block\n    function getLastBlockHash() public view returns (bytes32 blockHash) {\n        unchecked {\n            blockHash = blockhash(block.number - 1);\n        }\n    }\n\n    /// @notice Returns the chain id\n    function getChainId() public view returns (uint256 chainid) {\n        chainid = block.chainid;\n    }\n}\n\n// extend multicall with support for tronweb response\ncontract Helper is Multicall {\n    function balanceOf(address[] memory tokens, address user) public view returns (uint[] memory balance) {\n        uint[] memory returnData = new uint[](tokens.length);\n        for(uint256 i = 0; i < tokens.length; i++) {\n            returnData[i] = IERC20(tokens[i]).balanceOf(user);\n        }\n        return returnData;\n    }\n    \n    function tradingBalanceOf(address vault, address[] memory tokens, address user) public view returns(uint[] memory balance){\n        uint[] memory returnData = new uint[](tokens.length);\n        for(uint256 i = 0; i < tokens.length; i++) {\n            returnData[i] = Vault(vault).userTokenBalance(user, tokens[i]);\n        }\n        return returnData;\n    }\n}",
  "sourcePath": "/Users/prasad/projects/synthex/zexe/contracts/Helper.sol",
  "compiler": {
    "name": "solc",
    "version": "0.8.6+commit.0e36fba0.mod.Emscripten.clang"
  },
  "schemaVersion": "2.0.1",
  "updatedAt": "2022-11-02T11:18:21.102Z"
}