{
  "contractName": "LimoPair",
  "abi": [
    {
      "inputs": [
        {
          "internalType": "address",
          "name": "_token0",
          "type": "address"
        },
        {
          "internalType": "address",
          "name": "_token1",
          "type": "address"
        }
      ],
      "stateMutability": "nonpayable",
      "type": "constructor"
    },
    {
      "inputs": [
        {
          "internalType": "address",
          "name": "maker",
          "type": "address"
        },
        {
          "internalType": "address",
          "name": "taker",
          "type": "address"
        },
        {
          "internalType": "bytes32",
          "name": "digest",
          "type": "bytes32"
        },
        {
          "internalType": "uint256",
          "name": "exchangeRate",
          "type": "uint256"
        },
        {
          "internalType": "uint256",
          "name": "makerAmount",
          "type": "uint256"
        },
        {
          "internalType": "uint256",
          "name": "fillAmount",
          "type": "uint256"
        }
      ],
      "name": "exchange",
      "outputs": [],
      "stateMutability": "nonpayable",
      "type": "function"
    },
    {
      "inputs": [],
      "name": "exchangeRateDecimals",
      "outputs": [
        {
          "internalType": "uint256",
          "name": "",
          "type": "uint256"
        }
      ],
      "stateMutability": "view",
      "type": "function"
    },
    {
      "inputs": [],
      "name": "limo",
      "outputs": [
        {
          "internalType": "address",
          "name": "",
          "type": "address"
        }
      ],
      "stateMutability": "view",
      "type": "function"
    },
    {
      "inputs": [],
      "name": "minToken0Order",
      "outputs": [
        {
          "internalType": "uint256",
          "name": "",
          "type": "uint256"
        }
      ],
      "stateMutability": "view",
      "type": "function"
    },
    {
      "inputs": [],
      "name": "minToken1Order",
      "outputs": [
        {
          "internalType": "uint256",
          "name": "",
          "type": "uint256"
        }
      ],
      "stateMutability": "view",
      "type": "function"
    },
    {
      "inputs": [
        {
          "internalType": "bytes32",
          "name": "",
          "type": "bytes32"
        }
      ],
      "name": "orderFills",
      "outputs": [
        {
          "internalType": "uint256",
          "name": "",
          "type": "uint256"
        }
      ],
      "stateMutability": "view",
      "type": "function"
    },
    {
      "inputs": [],
      "name": "token0",
      "outputs": [
        {
          "internalType": "address",
          "name": "",
          "type": "address"
        }
      ],
      "stateMutability": "view",
      "type": "function"
    },
    {
      "inputs": [],
      "name": "token1",
      "outputs": [
        {
          "internalType": "address",
          "name": "",
          "type": "address"
        }
      ],
      "stateMutability": "view",
      "type": "function"
    }
  ],
  "bytecode": "0x608060405234801561001057600080fd5b50d3801561001d57600080fd5b50d2801561002a57600080fd5b506040516107b23803806107b2833981016040819052610049916100b3565b600080546001600160a01b039384166001600160a01b03199182161790915560018054929093169181169190911790915560058054909116331790556100e6565b80516000906001600160a81b03811681146100a457600080fd5b6001600160a01b031692915050565b600080604083850312156100c657600080fd5b6100cf8361008a565b91506100dd6020840161008a565b90509250929050565b6106bd806100f56000396000f3fe608060405234801561001057600080fd5b50d3801561001d57600080fd5b50d2801561002a57600080fd5b50600436106100a25760003560e01c8063d21220a711610075578063d21220a71461010a578063de83058c1461011d578063f7213db614610132578063fda72a3d1461015257600080fd5b80630dfe1681146100a75780631527037c146100d75780632b513601146100ee578063d1099e1f146100f7575b600080fd5b6000546100ba906001600160a01b031681565b6040516001600160a01b0390911681526020015b60405180910390f35b6100e060025481565b6040519081526020016100ce565b6100e060045481565b6005546100ba906001600160a01b031681565b6001546100ba906001600160a01b031681565b61013061012b366004610496565b61015b565b005b6100e0610140366004610514565b60066020526000908152604090205481565b6100e060035481565b6005546001600160a01b031633146101ba5760405162461bcd60e51b815260206004820181905260248201527f4f6e6c79206c696d6f2063616e2063616c6c20746869732066756e6374696f6e60448201526064015b60405180910390fd5b8181111561020a5760405162461bcd60e51b815260206004820181905260248201527f46696c6c20616d6f756e742065786365656473206d616b657220616d6f756e7460448201526064016101b1565b6000848152600660205260408120805483929061022890849061052d565b90915550506000848152600660205260409020548210156102b15760405162461bcd60e51b815260206004820152602660248201527f4f726465722066696c6c20616d6f756e742065786365656473206f726465722060448201527f616d6f756e74000000000000000000000000000000000000000000000000000060648201526084016101b1565b6000546040517f23b872dd0000000000000000000000000000000000000000000000000000000081526001600160a01b038881166004830152878116602483015260448201849052909116906323b872dd90606401602060405180830381600087803b15801561032057600080fd5b505af1158015610334573d6000803e3d6000fd5b505050506040513d601f19601f8201168201806040525081019061035891906104eb565b506001546004546001600160a01b03909116906323b872dd90879089906103979088906103919061038a90600a6105aa565b889061043f565b90610454565b6040517fffffffff0000000000000000000000000000000000000000000000000000000060e086901b1681526001600160a01b0393841660048201529290911660248301526044820152606401602060405180830381600087803b1580156103fe57600080fd5b505af1158015610412573d6000803e3d6000fd5b505050506040513d601f19601f8201168201806040525081019061043691906104eb565b50505050505050565b600061044b8284610652565b90505b92915050565b600061044b8284610545565b6000813574ffffffffffffffffffffffffffffffffffffffffff8116811461048757600080fd5b6001600160a01b031692915050565b60008060008060008060c087890312156104af57600080fd5b6104b887610460565b95506104c660208801610460565b95989597505050506040840135936060810135936080820135935060a0909101359150565b6000602082840312156104fd57600080fd5b8151801515811461050d57600080fd5b9392505050565b60006020828403121561052657600080fd5b5035919050565b6000821982111561054057610540610671565b500190565b60008261056257634e487b7160e01b600052601260045260246000fd5b500490565b600181815b808511156105a257816000190482111561058857610588610671565b8085161561059557918102915b93841c939080029061056c565b509250929050565b600061044b83836000826105c05750600161044e565b816105cd5750600061044e565b81600181146105e357600281146105ed57610609565b600191505061044e565b60ff8411156105fe576105fe610671565b50506001821b61044e565b5060208310610133831016604e8410600b841016171561062c575081810a61044e565b6106368383610567565b806000190482111561064a5761064a610671565b029392505050565b600081600019048311821515161561066c5761066c610671565b500290565b634e487b7160e01b600052601160045260246000fdfea26474726f6e582212204ef8d8bc391506c5fb7a96506fcaa70a2ac590b298b9b162c705e8d8868cbcd464736f6c63430008060033",
  "source": "// SPDX-License-Identifier: MIT\npragma solidity ^0.8.6;\n\nimport \"@openzeppelin/contracts/utils/cryptography/ECDSA.sol\";\nimport \"@openzeppelin/contracts/utils/cryptography/SignatureChecker.sol\";\nimport \"@openzeppelin/contracts/interfaces/IERC20.sol\";\nimport \"@openzeppelin/contracts/utils/math/SafeMath.sol\";\n\ncontract LimoPair {\n    using SafeMath for uint256;\n    \n    address public token0;\n    address public token1;\n\n    uint256 public minToken0Order;\n    uint256 public minToken1Order;\n    uint256 public exchangeRateDecimals;\n\n    address public limo;\n\n    mapping(bytes32 => uint) public orderFills;\n\n    constructor(address _token0, address _token1) {\n        token0 = _token0;\n        token1 = _token1;\n        limo = msg.sender;\n    }\n\n    function exchange(address maker, address taker, bytes32 digest, uint256 exchangeRate, uint256 makerAmount, uint256 fillAmount) public {\n        require(msg.sender == limo, \"Only limo can call this function\");\n        // check amount\n        require(fillAmount <= makerAmount, \"Fill amount exceeds maker amount\");\n\n        // check fill amount\n        orderFills[digest] += fillAmount;\n        require(orderFills[digest] <= makerAmount, \"Order fill amount exceeds order amount\");\n\n        // transfer tokens\n        IERC20(token0).transferFrom(maker, taker, fillAmount);\n        IERC20(token1).transferFrom(taker, maker, fillAmount.mul(10**exchangeRateDecimals).div(exchangeRate));\n    }   \n}",
  "sourcePath": "/Users/prasad/projects/synthex/zexe/contracts/archieve/LimoPair.sol",
  "compiler": {
    "name": "solc",
    "version": "0.8.6+commit.0e36fba0.mod.Emscripten.clang"
  },
  "schemaVersion": "2.0.1",
  "updatedAt": "2022-11-02T06:50:45.683Z"
}