{
  "contractName": "Limo",
  "abi": [
    {
      "inputs": [],
      "stateMutability": "nonpayable",
      "type": "constructor"
    },
    {
      "anonymous": false,
      "inputs": [
        {
          "indexed": true,
          "internalType": "address",
          "name": "token0",
          "type": "address"
        },
        {
          "indexed": true,
          "internalType": "address",
          "name": "token1",
          "type": "address"
        },
        {
          "indexed": false,
          "internalType": "address",
          "name": "pair",
          "type": "address"
        }
      ],
      "name": "NewPair",
      "type": "event"
    },
    {
      "anonymous": false,
      "inputs": [
        {
          "indexed": true,
          "internalType": "address",
          "name": "previousOwner",
          "type": "address"
        },
        {
          "indexed": true,
          "internalType": "address",
          "name": "newOwner",
          "type": "address"
        }
      ],
      "name": "OwnershipTransferred",
      "type": "event"
    },
    {
      "inputs": [
        {
          "internalType": "address",
          "name": "maker",
          "type": "address"
        },
        {
          "internalType": "address",
          "name": "token0",
          "type": "address"
        },
        {
          "internalType": "address",
          "name": "token1",
          "type": "address"
        },
        {
          "internalType": "uint256",
          "name": "orderType",
          "type": "uint256"
        },
        {
          "internalType": "uint256",
          "name": "exchangeRate",
          "type": "uint256"
        },
        {
          "internalType": "uint256",
          "name": "srcAmount",
          "type": "uint256"
        },
        {
          "internalType": "uint256",
          "name": "fillAmount",
          "type": "uint256"
        },
        {
          "internalType": "bytes",
          "name": "signature",
          "type": "bytes"
        }
      ],
      "name": "executeOrder",
      "outputs": [],
      "stateMutability": "nonpayable",
      "type": "function"
    },
    {
      "inputs": [
        {
          "internalType": "bytes32",
          "name": "",
          "type": "bytes32"
        }
      ],
      "name": "orderFills",
      "outputs": [
        {
          "internalType": "uint256",
          "name": "",
          "type": "uint256"
        }
      ],
      "stateMutability": "view",
      "type": "function"
    },
    {
      "inputs": [],
      "name": "owner",
      "outputs": [
        {
          "internalType": "address",
          "name": "",
          "type": "address"
        }
      ],
      "stateMutability": "view",
      "type": "function"
    },
    {
      "inputs": [
        {
          "internalType": "bytes32",
          "name": "",
          "type": "bytes32"
        }
      ],
      "name": "pairs",
      "outputs": [
        {
          "internalType": "address",
          "name": "",
          "type": "address"
        }
      ],
      "stateMutability": "view",
      "type": "function"
    },
    {
      "inputs": [],
      "name": "renounceOwnership",
      "outputs": [],
      "stateMutability": "nonpayable",
      "type": "function"
    },
    {
      "inputs": [
        {
          "internalType": "address",
          "name": "newOwner",
          "type": "address"
        }
      ],
      "name": "transferOwnership",
      "outputs": [],
      "stateMutability": "nonpayable",
      "type": "function"
    }
  ],
  "bytecode": "0x61014060405234801561001157600080fd5b50d3801561001e57600080fd5b50d2801561002b57600080fd5b506040805180820182526011815270098929a9e98d2dad2e89ee4c8cae4888ab607b1b602080830191825283518085019094526005845264302e302e3160d81b908401528151902060e08190527fae209a0b48f21c054280f2455d32cf309387644879d9acbd8ffc1991638118856101008190524660a0529192917f8b73c3c69bb8fe3d512ecc4cf759cc79239f7b179b0ffacaa9a75d522b39400f6101168184846040805160208101859052908101839052606081018290524660808201523060a082015260009060c0016040516020818303038152906040528051906020012090509392505050565b6080523060601b60c052610120525061013992506101349150503390565b61013e565b61018e565b600080546001600160a01b038381166001600160a01b0319831681178455604051919092169283917f8be0079c531659141344cd1fd0a4f28419497f9722a3daafe3b4186f6b6457e09190a35050565b60805160a05160c05160601c60e0516101005161012051610e6e6101e06000396000610998015260006109e7015260006109c20152600061091b015260006109450152600061096f0152610e6e6000f3fe608060405234801561001057600080fd5b50d3801561001d57600080fd5b50d2801561002a57600080fd5b506004361061008c5760003560e01c80638da5cb5b1161006a5780638da5cb5b146100f4578063f2fde38b14610105578063f7213db61461011857600080fd5b80633984eb0314610091578063673e0481146100a6578063715018a6146100ec575b600080fd5b6100a461009f366004610bb9565b610146565b005b6100cf6100b4366004610ce5565b6001602052600090815260409020546001600160a01b031681565b6040516001600160a01b0390911681526020015b60405180910390f35b6100a4610597565b6000546001600160a01b03166100cf565b6100a4610113366004610b9e565b6105ab565b610138610126366004610ce5565b60026020526000908152604090205481565b6040519081526020016100e3565b604080517f84ad853d942d6c6a5a1b327111a1fb1a372afc17685f3f3932ae9d6acaf68aac60208201526001600160a01b03808b16928201929092528189166060820152908716608082015260a0810186905260c0810185905260e081018490526000906101cd90610100016040516020818303038152906040528051906020012061063b565b90506101da8982846106aa565b61022b5760405162461bcd60e51b815260206004820152601160248201527f496e76616c6964207369676e617475726500000000000000000000000000000060448201526064015b60405180910390fd5b60008181526002602052604081208054859290610249908490610d6d565b90915550506000818152600260205260409020548410156102d25760405162461bcd60e51b815260206004820152602660248201527f4f726465722066696c6c20616d6f756e742065786365656473206f726465722060448201527f616d6f756e7400000000000000000000000000000000000000000000000000006064820152608401610222565b85610432576040516323b872dd60e01b81523360048201526001600160a01b038a81166024830152604482018590528916906323b872dd90606401602060405180830381600087803b15801561032757600080fd5b505af115801561033b573d6000803e3d6000fd5b505050506040513d601f19601f8201168201806040525081019061035f9190610cc3565b506001600160a01b0387166323b872dd8a3361038d8961038789670de0b6b3a7640000610834565b90610840565b6040517fffffffff0000000000000000000000000000000000000000000000000000000060e086901b1681526001600160a01b0393841660048201529290911660248301526044820152606401602060405180830381600087803b1580156103f457600080fd5b505af1158015610408573d6000803e3d6000fd5b505050506040513d601f19601f8201168201806040525081019061042c9190610cc3565b5061058c565b600186141561058c576040516323b872dd60e01b81526001600160a01b038a81166004830152336024830152604482018590528916906323b872dd90606401602060405180830381600087803b15801561048b57600080fd5b505af115801561049f573d6000803e3d6000fd5b505050506040513d601f19601f820116820180604052508101906104c39190610cc3565b506001600160a01b0387166323b872dd338b6104eb8961038789670de0b6b3a7640000610834565b6040517fffffffff0000000000000000000000000000000000000000000000000000000060e086901b1681526001600160a01b0393841660048201529290911660248301526044820152606401602060405180830381600087803b15801561055257600080fd5b505af1158015610566573d6000803e3d6000fd5b505050506040513d601f19601f8201168201806040525081019061058a9190610cc3565b505b505050505050505050565b61059f61084c565b6105a960006108a6565b565b6105b361084c565b6001600160a01b03811661062f5760405162461bcd60e51b815260206004820152602660248201527f4f776e61626c653a206e6577206f776e657220697320746865207a65726f206160448201527f64647265737300000000000000000000000000000000000000000000000000006064820152608401610222565b610638816108a6565b50565b60006106a461064861090e565b836040517f19010000000000000000000000000000000000000000000000000000000000006020820152602281018390526042810182905260009060620160405160208183030381529060405280519060200120905092915050565b92915050565b60008060006106b98585610a35565b909250905060008160048111156106d2576106d2610e0c565b1480156106f05750856001600160a01b0316826001600160a01b0316145b156107005760019250505061082d565b600080876001600160a01b0316631626ba7e60e01b8888604051602401610728929190610d33565b60408051601f198184030181529181526020820180517bffffffffffffffffffffffffffffffffffffffffffffffffffffffff167fffffffff000000000000000000000000000000000000000000000000000000009094169390931790925290516107939190610d17565b600060405180830381855afa9150503d80600081146107ce576040519150601f19603f3d011682016040523d82523d6000602084013e6107d3565b606091505b50915091508180156107e6575080516020145b8015610826575080517f1626ba7e00000000000000000000000000000000000000000000000000000000906108249083016020908101908401610cfe565b145b9450505050505b9392505050565b600061082d8284610da7565b600061082d8284610d85565b6000546001600160a01b031633146105a95760405162461bcd60e51b815260206004820181905260248201527f4f776e61626c653a2063616c6c6572206973206e6f7420746865206f776e65726044820152606401610222565b600080546001600160a01b038381167fffffffffffffffffffffffff0000000000000000000000000000000000000000831681178455604051919092169283917f8be0079c531659141344cd1fd0a4f28419497f9722a3daafe3b4186f6b6457e09190a35050565b6000306001600160a01b037f00000000000000000000000000000000000000000000000000000000000000001614801561096757507f000000000000000000000000000000000000000000000000000000000000000046145b1561099157507f000000000000000000000000000000000000000000000000000000000000000090565b50604080517f00000000000000000000000000000000000000000000000000000000000000006020808301919091527f0000000000000000000000000000000000000000000000000000000000000000828401527f000000000000000000000000000000000000000000000000000000000000000060608301524660808301523060a0808401919091528351808403909101815260c0909201909252805191012090565b600080825160411415610a6c5760208301516040840151606085015160001a610a6087828585610a7b565b94509450505050610a74565b506000905060025b9250929050565b6000807f7fffffffffffffffffffffffffffffff5d576e7357a4501ddfe92f46681b20a0831115610ab25750600090506003610b5f565b8460ff16601b14158015610aca57508460ff16601c14155b15610adb5750600090506004610b5f565b6040805160008082526020820180845289905260ff881692820192909252606081018690526080810185905260019060a0016020604051602081039080840390855afa158015610b2f573d6000803e3d6000fd5b5050604051601f1901519150506001600160a01b038116610b5857600060019250925050610b5f565b9150600090505b94509492505050565b6000813574ffffffffffffffffffffffffffffffffffffffffff81168114610b8f57600080fd5b6001600160a01b031692915050565b600060208284031215610bb057600080fd5b61082d82610b68565b600080600080600080600080610100898b031215610bd657600080fd5b610bdf89610b68565b9750610bed60208a01610b68565b9650610bfb60408a01610b68565b9550606089013594506080890135935060a0890135925060c0890135915060e089013567ffffffffffffffff80821115610c3457600080fd5b818b0191508b601f830112610c4857600080fd5b813581811115610c5a57610c5a610e22565b604051601f8201601f19908116603f01168101908382118183101715610c8257610c82610e22565b816040528281528e6020848701011115610c9b57600080fd5b8260208601602083013760006020848301015280955050505050509295985092959890939650565b600060208284031215610cd557600080fd5b8151801515811461082d57600080fd5b600060208284031215610cf757600080fd5b5035919050565b600060208284031215610d1057600080fd5b5051919050565b60008251610d29818460208701610dc6565b9190910192915050565b8281526040602082015260008251806040840152610d58816060850160208701610dc6565b601f01601f1916919091016060019392505050565b60008219821115610d8057610d80610df6565b500190565b600082610da257634e487b7160e01b600052601260045260246000fd5b500490565b6000816000190483118215151615610dc157610dc1610df6565b500290565b60005b83811015610de1578181015183820152602001610dc9565b83811115610df0576000848401525b50505050565b634e487b7160e01b600052601160045260246000fd5b634e487b7160e01b600052602160045260246000fd5b634e487b7160e01b600052604160045260246000fdfea26474726f6e58221220b412b6b9d62c49f583766e16b2c7fc23c31370fad92e43f2a0f768d0f38b30a464736f6c63430008060033",
  "source": "// SPDX-License-Identifier: MIT\npragma solidity ^0.8.6;\n\nimport \"@openzeppelin/contracts/utils/cryptography/ECDSA.sol\";\nimport \"@openzeppelin/contracts/utils/cryptography/SignatureChecker.sol\";\nimport \"@openzeppelin/contracts/utils/cryptography/draft-EIP712.sol\";\nimport \"@openzeppelin/contracts/interfaces/IERC20.sol\";\nimport \"@openzeppelin/contracts/utils/math/SafeMath.sol\";\nimport \"@openzeppelin/contracts/access/Ownable.sol\";\nimport \"./LimoPair.sol\";\n\ncontract Limo is EIP712, Ownable {\n    using SafeMath for uint256;\n\n    event NewPair(address indexed token0, address indexed token1, address pair);\n\n    enum OrderType {\n        LIMITSELL,\n        LIMITBUY\n    }\n\n    struct Order {\n        address maker;\n        address token0;\n        address token1;\n        uint256 orderType;\n        uint256 exchangeRate;\n        uint256 srcAmount;\n    }\n\n    mapping(bytes32 => address) public pairs;\n    mapping(bytes32 => uint) public orderFills;\n\n    constructor() EIP712(\"LIMOLimitOrderDEX\", \"0.0.1\") {}\n\n    function executeOrder(address maker, address token0, address token1, uint orderType, uint256 exchangeRate, uint256 srcAmount, uint256 fillAmount, bytes memory signature) external {\n        // check signature\n        bytes32 digest = _hashTypedDataV4(keccak256(abi.encode(\n            keccak256(\"Order(address maker,address token0,address token1,uint256 orderType,uint256 exchangeRate,uint256 srcAmount)\"),\n            maker,\n            token0,\n            token1,\n            orderType,\n            exchangeRate,\n            srcAmount\n        )));\n        // verify signature\n        require(SignatureChecker.isValidSignatureNow(maker, digest, signature), \"Invalid signature\");\n\n        // check fill amount\n        orderFills[digest] += fillAmount;\n        require(orderFills[digest] <= srcAmount, \"Order fill amount exceeds order amount\");\n\n        \n        // transfer tokens\n        // sell => taker(msg.sender) sells token0 to maker for token1\n        // buy => taker(msg.sender) buys token0 from maker for token1\n        if (orderType == uint256(OrderType.LIMITSELL)) {\n            IERC20(token0).transferFrom(msg.sender, maker, fillAmount);\n            IERC20(token1).transferFrom(maker, msg.sender, fillAmount.mul(10**18).div(exchangeRate));\n        } else if (orderType == uint256(OrderType.LIMITBUY)) {\n            IERC20(token0).transferFrom(maker, msg.sender, fillAmount);\n            IERC20(token1).transferFrom(msg.sender, maker, fillAmount.mul(10**18).div(exchangeRate));\n        }\n    }\n}",
  "sourcePath": "/Users/prasad/projects/synthex/dex/contracts/archieve/Limo.sol",
  "compiler": {
    "name": "solc",
    "version": "0.8.6+commit.0e36fba0.mod.Emscripten.clang"
  },
  "schemaVersion": "2.0.1",
  "updatedAt": "2022-10-31T06:35:08.451Z"
}