{
  "contractName": "Multicall",
  "abi": [
    {
      "inputs": [
        {
          "components": [
            {
              "internalType": "address",
              "name": "target",
              "type": "address"
            },
            {
              "internalType": "bytes",
              "name": "callData",
              "type": "bytes"
            }
          ],
          "internalType": "struct Multicall.Call[]",
          "name": "calls",
          "type": "tuple[]"
        }
      ],
      "name": "aggregate",
      "outputs": [
        {
          "internalType": "uint256",
          "name": "blockNumber",
          "type": "uint256"
        },
        {
          "internalType": "bytes[]",
          "name": "returnData",
          "type": "bytes[]"
        }
      ],
      "stateMutability": "payable",
      "type": "function"
    },
    {
      "inputs": [
        {
          "components": [
            {
              "internalType": "address",
              "name": "target",
              "type": "address"
            },
            {
              "internalType": "bool",
              "name": "allowFailure",
              "type": "bool"
            },
            {
              "internalType": "bytes",
              "name": "callData",
              "type": "bytes"
            }
          ],
          "internalType": "struct Multicall.Call3[]",
          "name": "calls",
          "type": "tuple[]"
        }
      ],
      "name": "aggregate3",
      "outputs": [
        {
          "components": [
            {
              "internalType": "bool",
              "name": "success",
              "type": "bool"
            },
            {
              "internalType": "bytes",
              "name": "returnData",
              "type": "bytes"
            }
          ],
          "internalType": "struct Multicall.Result[]",
          "name": "returnData",
          "type": "tuple[]"
        }
      ],
      "stateMutability": "payable",
      "type": "function"
    },
    {
      "inputs": [
        {
          "components": [
            {
              "internalType": "address",
              "name": "target",
              "type": "address"
            },
            {
              "internalType": "bool",
              "name": "allowFailure",
              "type": "bool"
            },
            {
              "internalType": "uint256",
              "name": "value",
              "type": "uint256"
            },
            {
              "internalType": "bytes",
              "name": "callData",
              "type": "bytes"
            }
          ],
          "internalType": "struct Multicall.Call3Value[]",
          "name": "calls",
          "type": "tuple[]"
        }
      ],
      "name": "aggregate3Value",
      "outputs": [
        {
          "components": [
            {
              "internalType": "bool",
              "name": "success",
              "type": "bool"
            },
            {
              "internalType": "bytes",
              "name": "returnData",
              "type": "bytes"
            }
          ],
          "internalType": "struct Multicall.Result[]",
          "name": "returnData",
          "type": "tuple[]"
        }
      ],
      "stateMutability": "payable",
      "type": "function"
    },
    {
      "inputs": [
        {
          "components": [
            {
              "internalType": "address",
              "name": "target",
              "type": "address"
            },
            {
              "internalType": "bytes",
              "name": "callData",
              "type": "bytes"
            }
          ],
          "internalType": "struct Multicall.Call[]",
          "name": "calls",
          "type": "tuple[]"
        }
      ],
      "name": "blockAndAggregate",
      "outputs": [
        {
          "internalType": "uint256",
          "name": "blockNumber",
          "type": "uint256"
        },
        {
          "internalType": "bytes32",
          "name": "blockHash",
          "type": "bytes32"
        },
        {
          "components": [
            {
              "internalType": "bool",
              "name": "success",
              "type": "bool"
            },
            {
              "internalType": "bytes",
              "name": "returnData",
              "type": "bytes"
            }
          ],
          "internalType": "struct Multicall.Result[]",
          "name": "returnData",
          "type": "tuple[]"
        }
      ],
      "stateMutability": "payable",
      "type": "function"
    },
    {
      "inputs": [
        {
          "internalType": "uint256",
          "name": "blockNumber",
          "type": "uint256"
        }
      ],
      "name": "getBlockHash",
      "outputs": [
        {
          "internalType": "bytes32",
          "name": "blockHash",
          "type": "bytes32"
        }
      ],
      "stateMutability": "view",
      "type": "function"
    },
    {
      "inputs": [],
      "name": "getBlockNumber",
      "outputs": [
        {
          "internalType": "uint256",
          "name": "blockNumber",
          "type": "uint256"
        }
      ],
      "stateMutability": "view",
      "type": "function"
    },
    {
      "inputs": [],
      "name": "getChainId",
      "outputs": [
        {
          "internalType": "uint256",
          "name": "chainid",
          "type": "uint256"
        }
      ],
      "stateMutability": "view",
      "type": "function"
    },
    {
      "inputs": [],
      "name": "getCurrentBlockCoinbase",
      "outputs": [
        {
          "internalType": "address",
          "name": "coinbase",
          "type": "address"
        }
      ],
      "stateMutability": "view",
      "type": "function"
    },
    {
      "inputs": [],
      "name": "getCurrentBlockDifficulty",
      "outputs": [
        {
          "internalType": "uint256",
          "name": "difficulty",
          "type": "uint256"
        }
      ],
      "stateMutability": "view",
      "type": "function"
    },
    {
      "inputs": [],
      "name": "getCurrentBlockGasLimit",
      "outputs": [
        {
          "internalType": "uint256",
          "name": "gaslimit",
          "type": "uint256"
        }
      ],
      "stateMutability": "view",
      "type": "function"
    },
    {
      "inputs": [],
      "name": "getCurrentBlockTimestamp",
      "outputs": [
        {
          "internalType": "uint256",
          "name": "timestamp",
          "type": "uint256"
        }
      ],
      "stateMutability": "view",
      "type": "function"
    },
    {
      "inputs": [
        {
          "internalType": "address",
          "name": "addr",
          "type": "address"
        }
      ],
      "name": "getEthBalance",
      "outputs": [
        {
          "internalType": "uint256",
          "name": "balance",
          "type": "uint256"
        }
      ],
      "stateMutability": "view",
      "type": "function"
    },
    {
      "inputs": [],
      "name": "getLastBlockHash",
      "outputs": [
        {
          "internalType": "bytes32",
          "name": "blockHash",
          "type": "bytes32"
        }
      ],
      "stateMutability": "view",
      "type": "function"
    },
    {
      "inputs": [
        {
          "internalType": "bool",
          "name": "requireSuccess",
          "type": "bool"
        },
        {
          "components": [
            {
              "internalType": "address",
              "name": "target",
              "type": "address"
            },
            {
              "internalType": "bytes",
              "name": "callData",
              "type": "bytes"
            }
          ],
          "internalType": "struct Multicall.Call[]",
          "name": "calls",
          "type": "tuple[]"
        }
      ],
      "name": "tryAggregate",
      "outputs": [
        {
          "components": [
            {
              "internalType": "bool",
              "name": "success",
              "type": "bool"
            },
            {
              "internalType": "bytes",
              "name": "returnData",
              "type": "bytes"
            }
          ],
          "internalType": "struct Multicall.Result[]",
          "name": "returnData",
          "type": "tuple[]"
        }
      ],
      "stateMutability": "payable",
      "type": "function"
    },
    {
      "inputs": [
        {
          "internalType": "bool",
          "name": "requireSuccess",
          "type": "bool"
        },
        {
          "components": [
            {
              "internalType": "address",
              "name": "target",
              "type": "address"
            },
            {
              "internalType": "bytes",
              "name": "callData",
              "type": "bytes"
            }
          ],
          "internalType": "struct Multicall.Call[]",
          "name": "calls",
          "type": "tuple[]"
        }
      ],
      "name": "tryBlockAndAggregate",
      "outputs": [
        {
          "internalType": "uint256",
          "name": "blockNumber",
          "type": "uint256"
        },
        {
          "internalType": "bytes32",
          "name": "blockHash",
          "type": "bytes32"
        },
        {
          "components": [
            {
              "internalType": "bool",
              "name": "success",
              "type": "bool"
            },
            {
              "internalType": "bytes",
              "name": "returnData",
              "type": "bytes"
            }
          ],
          "internalType": "struct Multicall.Result[]",
          "name": "returnData",
          "type": "tuple[]"
        }
      ],
      "stateMutability": "payable",
      "type": "function"
    }
  ],
  "bytecode": "0x608060405234801561001057600080fd5b50d3801561001d57600080fd5b50d2801561002a57600080fd5b50610dd58061003a6000396000f3fe6080604052600436106100e85760003560e01c80634d2301cc1161008a578063a8b0574e11610059578063a8b0574e146102c7578063bce38bd7146102fc578063c3077fa91461030f578063ee82ac5e1461032257600080fd5b80634d2301cc1461021857806372425d9d1461025a57806382ad56cb1461028757806386d516e81461029a57600080fd5b806327e86d6e116100c657806327e86d6e1461016a5780633408e4701461019c578063399542e9146101c957806342cbb15c146101eb57600080fd5b80630f28c97d146100ed578063174dea7114610129578063252dba4214610149575b600080fd5b3480156100f957600080fd5b50d3801561010657600080fd5b50d2801561011357600080fd5b50425b6040519081526020015b60405180910390f35b61013c610137366004610ab7565b61035b565b6040516101209190610c34565b61015c610157366004610ab7565b61054f565b604051610120929190610c4e565b34801561017657600080fd5b50d3801561018357600080fd5b50d2801561019057600080fd5b50436000190140610116565b3480156101a857600080fd5b50d380156101b557600080fd5b50d280156101c257600080fd5b5046610116565b6101dc6101d7366004610af9565b6106c9565b60405161012093929190610cb8565b3480156101f757600080fd5b50d3801561020457600080fd5b50d2801561021157600080fd5b5043610116565b34801561022457600080fd5b50d3801561023157600080fd5b50d2801561023e57600080fd5b5061011661024d366004610a70565b6001600160a01b03163190565b34801561026657600080fd5b50d3801561027357600080fd5b50d2801561028057600080fd5b5044610116565b61013c610295366004610ab7565b6106e4565b3480156102a657600080fd5b50d380156102b357600080fd5b50d280156102c057600080fd5b5045610116565b3480156102d357600080fd5b50d380156102e057600080fd5b50d280156102ed57600080fd5b50604051418152602001610120565b61013c61030a366004610af9565b61086c565b6101dc61031d366004610ab7565b610a05565b34801561032e57600080fd5b50d3801561033b57600080fd5b50d2801561034857600080fd5b50610116610357366004610b53565b4090565b60606000828067ffffffffffffffff81111561037957610379610d89565b6040519080825280602002602001820160405280156103bf57816020015b6040805180820190915260008152606060208201528152602001906001900390816103975790505b5092503660005b828110156104f15760008582815181106103e2576103e2610d73565b602002602001015190508787838181106103fe576103fe610d73565b90506020028101906104109190610d27565b6040810135958601959093506104296020850185610a70565b6001600160a01b0316816104406060870187610ce0565b60405161044e929190610c24565b60006040518083038185875af1925050503d806000811461048b576040519150601f19603f3d011682016040523d82523d6000602084013e610490565b606091505b5060208085019190915290151580845290850135176104e75762461bcd60e51b600052602060045260176024527f4d756c746963616c6c333a2063616c6c206661696c656400000000000000000060445260846000fd5b50506001016103c6565b508234146105465760405162461bcd60e51b815260206004820152601a60248201527f4d756c746963616c6c333a2076616c7565206d69736d6174636800000000000060448201526064015b60405180910390fd5b50505092915050565b436060828067ffffffffffffffff81111561056c5761056c610d89565b60405190808252806020026020018201604052801561059f57816020015b606081526020019060019003908161058a5790505b5091503660005b828110156106bf5760008787838181106105c2576105c2610d73565b90506020028101906105d49190610d5d565b92506105e36020840184610a70565b6001600160a01b03166105f96020850185610ce0565b604051610607929190610c24565b6000604051808303816000865af19150503d8060008114610644576040519150601f19603f3d011682016040523d82523d6000602084013e610649565b606091505b5086848151811061065c5761065c610d73565b60209081029190910101529050806106b65760405162461bcd60e51b815260206004820152601760248201527f4d756c746963616c6c333a2063616c6c206661696c6564000000000000000000604482015260640161053d565b506001016105a6565b5050509250929050565b43804060606106d986868661086c565b905093509350939050565b6060818067ffffffffffffffff81111561070057610700610d89565b60405190808252806020026020018201604052801561074657816020015b60408051808201909152600081526060602082015281526020019060019003908161071e5790505b5091503660005b8281101561054657600084828151811061076957610769610d73565b6020026020010151905086868381811061078557610785610d73565b90506020028101906107979190610d47565b92506107a66020840184610a70565b6001600160a01b03166107bc6040850185610ce0565b6040516107ca929190610c24565b6000604051808303816000865af19150503d8060008114610807576040519150601f19603f3d011682016040523d82523d6000602084013e61080c565b606091505b5060208084019190915290151580835290840135176108635762461bcd60e51b600052602060045260176024527f4d756c746963616c6c333a2063616c6c206661696c656400000000000000000060445260646000fd5b5060010161074d565b6060818067ffffffffffffffff81111561088857610888610d89565b6040519080825280602002602001820160405280156108ce57816020015b6040805180820190915260008152606060208201528152602001906001900390816108a65790505b5091503660005b828110156109fb5760008482815181106108f1576108f1610d73565b6020026020010151905086868381811061090d5761090d610d73565b905060200281019061091f9190610d5d565b925061092e6020840184610a70565b6001600160a01b03166109446020850185610ce0565b604051610952929190610c24565b6000604051808303816000865af19150503d806000811461098f576040519150601f19603f3d011682016040523d82523d6000602084013e610994565b606091505b5060208301521515815287156109f25780516109f25760405162461bcd60e51b815260206004820152601760248201527f4d756c746963616c6c333a2063616c6c206661696c6564000000000000000000604482015260640161053d565b506001016108d5565b5050509392505050565b6000806060610a16600186866106c9565b919790965090945092505050565b60008083601f840112610a3657600080fd5b50813567ffffffffffffffff811115610a4e57600080fd5b6020830191508360208260051b8501011115610a6957600080fd5b9250929050565b600060208284031215610a8257600080fd5b813574ffffffffffffffffffffffffffffffffffffffffff81168114610aa757600080fd5b6001600160a01b03169392505050565b60008060208385031215610aca57600080fd5b823567ffffffffffffffff811115610ae157600080fd5b610aed85828601610a24565b90969095509350505050565b600080600060408486031215610b0e57600080fd5b83358015158114610b1e57600080fd5b9250602084013567ffffffffffffffff811115610b3a57600080fd5b610b4686828701610a24565b9497909650939450505050565b600060208284031215610b6557600080fd5b5035919050565b600081518084526020808501808196508360051b8101915082860160005b85811015610bca57828403895281518051151585528501516040868601819052610bb681870183610bd7565b9a87019a9550505090840190600101610b8a565b5091979650505050505050565b6000815180845260005b81811015610bfd57602081850181015186830182015201610be1565b81811115610c0f576000602083870101525b50601f01601f19169290920160200192915050565b8183823760009101908152919050565b602081526000610c476020830184610b6c565b9392505050565b600060408201848352602060408185015281855180845260608601915060608160051b870101935082870160005b82811015610caa57605f19888703018452610c98868351610bd7565b95509284019290840190600101610c7c565b509398975050505050505050565b838152826020820152606060408201526000610cd76060830184610b6c565b95945050505050565b6000808335601e19843603018112610cf757600080fd5b83018035915067ffffffffffffffff821115610d1257600080fd5b602001915036819003821315610a6957600080fd5b60008235607e19833603018112610d3d57600080fd5b9190910192915050565b60008235605e19833603018112610d3d57600080fd5b60008235603e19833603018112610d3d57600080fd5b634e487b7160e01b600052603260045260246000fd5b634e487b7160e01b600052604160045260246000fdfea26474726f6e58221220385542993ca4a60941b611a7ad0b4c791b28c5615239ce500770af32907dfeff64736f6c63430008060033",
  "source": "// SPDX-License-Identifier: MIT\npragma solidity ^0.8.6;\nimport \"@openzeppelin/contracts/token/ERC20/ERC20.sol\";\nimport \"./Vault.sol\";\n\n\n\n/// @title Multicall3\n/// @notice Aggregate results from multiple function calls\n/// @dev Multicall & Multicall2 backwards-compatible\n/// @dev Aggregate methods are marked `payable` to save 24 gas per call\n/// @author Michael Elliot <mike@makerdao.com>\n/// @author Joshua Levine <joshua@makerdao.com>\n/// @author Nick Johnson <arachnid@notdot.net>\n/// @author Andreas Bigger <andreas@nascent.xyz>\n/// @author Matt Solomon <matt@mattsolomon.dev>\ncontract Multicall {\n    struct Call {\n        address target;\n        bytes callData;\n    }\n\n    struct Call3 {\n        address target;\n        bool allowFailure;\n        bytes callData;\n    }\n\n    struct Call3Value {\n        address target;\n        bool allowFailure;\n        uint256 value;\n        bytes callData;\n    }\n\n    struct Result {\n        bool success;\n        bytes returnData;\n    }\n\n    /// @notice Backwards-compatible call aggregation with Multicall\n    /// @param calls An array of Call structs\n    /// @return blockNumber The block number where the calls were executed\n    /// @return returnData An array of bytes containing the responses\n    function aggregate(Call[] calldata calls) public payable returns (uint256 blockNumber, bytes[] memory returnData) {\n        blockNumber = block.number;\n        uint256 length = calls.length;\n        returnData = new bytes[](length);\n        Call calldata call;\n        for (uint256 i = 0; i < length;) {\n            bool success;\n            call = calls[i];\n            (success, returnData[i]) = call.target.call(call.callData);\n            require(success, \"Multicall3: call failed\");\n            unchecked { ++i; }\n        }\n    }\n\n    /// @notice Backwards-compatible with Multicall2\n    /// @notice Aggregate calls without requiring success\n    /// @param requireSuccess If true, require all calls to succeed\n    /// @param calls An array of Call structs\n    /// @return returnData An array of Result structs\n    function tryAggregate(bool requireSuccess, Call[] calldata calls) public payable returns (Result[] memory returnData) {\n        uint256 length = calls.length;\n        returnData = new Result[](length);\n        Call calldata call;\n        for (uint256 i = 0; i < length;) {\n            Result memory result = returnData[i];\n            call = calls[i];\n            (result.success, result.returnData) = call.target.call(call.callData);\n            if (requireSuccess) require(result.success, \"Multicall3: call failed\");\n            unchecked { ++i; }\n        }\n    }\n\n    /// @notice Backwards-compatible with Multicall2\n    /// @notice Aggregate calls and allow failures using tryAggregate\n    /// @param calls An array of Call structs\n    /// @return blockNumber The block number where the calls were executed\n    /// @return blockHash The hash of the block where the calls were executed\n    /// @return returnData An array of Result structs\n    function tryBlockAndAggregate(bool requireSuccess, Call[] calldata calls) public payable returns (uint256 blockNumber, bytes32 blockHash, Result[] memory returnData) {\n        blockNumber = block.number;\n        blockHash = blockhash(block.number);\n        returnData = tryAggregate(requireSuccess, calls);\n    }\n\n    /// @notice Backwards-compatible with Multicall2\n    /// @notice Aggregate calls and allow failures using tryAggregate\n    /// @param calls An array of Call structs\n    /// @return blockNumber The block number where the calls were executed\n    /// @return blockHash The hash of the block where the calls were executed\n    /// @return returnData An array of Result structs\n    function blockAndAggregate(Call[] calldata calls) public payable returns (uint256 blockNumber, bytes32 blockHash, Result[] memory returnData) {\n        (blockNumber, blockHash, returnData) = tryBlockAndAggregate(true, calls);\n    }\n\n    /// @notice Aggregate calls, ensuring each returns success if required\n    /// @param calls An array of Call3 structs\n    /// @return returnData An array of Result structs\n    function aggregate3(Call3[] calldata calls) public payable returns (Result[] memory returnData) {\n        uint256 length = calls.length;\n        returnData = new Result[](length);\n        Call3 calldata calli;\n        for (uint256 i = 0; i < length;) {\n            Result memory result = returnData[i];\n            calli = calls[i];\n            (result.success, result.returnData) = calli.target.call(calli.callData);\n            assembly {\n                // Revert if the call fails and failure is not allowed\n                // `allowFailure := calldataload(add(calli, 0x20))` and `success := mload(result)`\n                if iszero(or(calldataload(add(calli, 0x20)), mload(result))) {\n                    // set \"Error(string)\" signature: bytes32(bytes4(keccak256(\"Error(string)\")))\n                    mstore(0x00, 0x08c379a000000000000000000000000000000000000000000000000000000000)\n                    // set data offset\n                    mstore(0x04, 0x0000000000000000000000000000000000000000000000000000000000000020)\n                    // set length of revert string\n                    mstore(0x24, 0x0000000000000000000000000000000000000000000000000000000000000017)\n                    // set revert string: bytes32(abi.encodePacked(\"Multicall3: call failed\"))\n                    mstore(0x44, 0x4d756c746963616c6c333a2063616c6c206661696c6564000000000000000000)\n                    revert(0x00, 0x64)\n                }\n            }\n            unchecked { ++i; }\n        }\n    }\n\n    /// @notice Aggregate calls with a msg value\n    /// @notice Reverts if msg.value is less than the sum of the call values\n    /// @param calls An array of Call3Value structs\n    /// @return returnData An array of Result structs\n    function aggregate3Value(Call3Value[] calldata calls) public payable returns (Result[] memory returnData) {\n        uint256 valAccumulator;\n        uint256 length = calls.length;\n        returnData = new Result[](length);\n        Call3Value calldata calli;\n        for (uint256 i = 0; i < length;) {\n            Result memory result = returnData[i];\n            calli = calls[i];\n            uint256 val = calli.value;\n            // Humanity will be a Type V Kardashev Civilization before this overflows - andreas\n            // ~ 10^25 Wei in existence << ~ 10^76 size uint fits in a uint256\n            unchecked { valAccumulator += val; }\n            (result.success, result.returnData) = calli.target.call{value: val}(calli.callData);\n            assembly {\n                // Revert if the call fails and failure is not allowed\n                // `allowFailure := calldataload(add(calli, 0x20))` and `success := mload(result)`\n                if iszero(or(calldataload(add(calli, 0x20)), mload(result))) {\n                    // set \"Error(string)\" signature: bytes32(bytes4(keccak256(\"Error(string)\")))\n                    mstore(0x00, 0x08c379a000000000000000000000000000000000000000000000000000000000)\n                    // set data offset\n                    mstore(0x04, 0x0000000000000000000000000000000000000000000000000000000000000020)\n                    // set length of revert string\n                    mstore(0x24, 0x0000000000000000000000000000000000000000000000000000000000000017)\n                    // set revert string: bytes32(abi.encodePacked(\"Multicall3: call failed\"))\n                    mstore(0x44, 0x4d756c746963616c6c333a2063616c6c206661696c6564000000000000000000)\n                    revert(0x00, 0x84)\n                }\n            }\n            unchecked { ++i; }\n        }\n        // Finally, make sure the msg.value = SUM(call[0...i].value)\n        require(msg.value == valAccumulator, \"Multicall3: value mismatch\");\n    }\n\n    /// @notice Returns the block hash for the given block number\n    /// @param blockNumber The block number\n    function getBlockHash(uint256 blockNumber) public view returns (bytes32 blockHash) {\n        blockHash = blockhash(blockNumber);\n    }\n\n    /// @notice Returns the block number\n    function getBlockNumber() public view returns (uint256 blockNumber) {\n        blockNumber = block.number;\n    }\n\n    /// @notice Returns the block coinbase\n    function getCurrentBlockCoinbase() public view returns (address coinbase) {\n        coinbase = block.coinbase;\n    }\n\n    /// @notice Returns the block difficulty\n    function getCurrentBlockDifficulty() public view returns (uint256 difficulty) {\n        difficulty = block.difficulty;\n    }\n\n    /// @notice Returns the block gas limit\n    function getCurrentBlockGasLimit() public view returns (uint256 gaslimit) {\n        gaslimit = block.gaslimit;\n    }\n\n    /// @notice Returns the block timestamp\n    function getCurrentBlockTimestamp() public view returns (uint256 timestamp) {\n        timestamp = block.timestamp;\n    }\n\n    /// @notice Returns the (ETH) balance of a given address\n    function getEthBalance(address addr) public view returns (uint256 balance) {\n        balance = addr.balance;\n    }\n\n    /// @notice Returns the block hash of the last block\n    function getLastBlockHash() public view returns (bytes32 blockHash) {\n        unchecked {\n            blockHash = blockhash(block.number - 1);\n        }\n    }\n\n    /// @notice Returns the chain id\n    function getChainId() public view returns (uint256 chainid) {\n        chainid = block.chainid;\n    }\n}\n\n// extend multicall with support for tronweb response\ncontract Helper is Multicall {\n    function balanceOf(address[] memory tokens, address user) public view returns (uint[] memory balance) {\n        uint[] memory returnData = new uint[](tokens.length);\n        for(uint256 i = 0; i < tokens.length; i++) {\n            returnData[i] = IERC20(tokens[i]).balanceOf(user);\n        }\n        return returnData;\n    }\n    \n    function tradingBalanceOf(address vault, address[] memory tokens, address user) public view returns(uint[] memory balance){\n        uint[] memory returnData = new uint[](tokens.length);\n        for(uint256 i = 0; i < tokens.length; i++) {\n            returnData[i] = Vault(vault).userTokenBalance(user, tokens[i]);\n        }\n        return returnData;\n    }\n}",
  "sourcePath": "/Users/prasad/projects/synthex/zexe/contracts/Helper.sol",
  "compiler": {
    "name": "solc",
    "version": "0.8.6+commit.0e36fba0.mod.Emscripten.clang"
  },
  "schemaVersion": "2.0.1",
  "updatedAt": "2022-11-09T06:35:03.726Z"
}