{
  "contractName": "System",
  "abi": [
    {
      "inputs": [],
      "stateMutability": "nonpayable",
      "type": "constructor"
    },
    {
      "inputs": [],
      "name": "admin",
      "outputs": [
        {
          "internalType": "address",
          "name": "",
          "type": "address"
        }
      ],
      "stateMutability": "view",
      "type": "function"
    },
    {
      "inputs": [],
      "name": "exchange",
      "outputs": [
        {
          "internalType": "contract Exchange",
          "name": "",
          "type": "address"
        }
      ],
      "stateMutability": "view",
      "type": "function"
    },
    {
      "inputs": [
        {
          "internalType": "address",
          "name": "_exchange",
          "type": "address"
        }
      ],
      "name": "setExchange",
      "outputs": [],
      "stateMutability": "nonpayable",
      "type": "function"
    },
    {
      "inputs": [
        {
          "internalType": "address",
          "name": "_vault",
          "type": "address"
        }
      ],
      "name": "setVault",
      "outputs": [],
      "stateMutability": "nonpayable",
      "type": "function"
    },
    {
      "inputs": [],
      "name": "vault",
      "outputs": [
        {
          "internalType": "contract Vault",
          "name": "",
          "type": "address"
        }
      ],
      "stateMutability": "view",
      "type": "function"
    }
  ],
  "bytecode": "0x608060405234801561001057600080fd5b50d3801561001d57600080fd5b50d2801561002a57600080fd5b50600080546001600160a01b031916331790556102978061004c6000396000f3fe608060405234801561001057600080fd5b50d3801561001d57600080fd5b50d2801561002a57600080fd5b50600436106100815760003560e01c8063d2f7265a1161006a578063d2f7265a146100ae578063f851a440146100dd578063fbfa77cf146100f057600080fd5b806367b1f5df146100865780636817031b1461009b575b600080fd5b61009961009436600461021a565b610103565b005b6100996100a936600461021a565b610191565b6001546100c1906001600160a01b031681565b6040516001600160a01b03909116815260200160405180910390f35b6000546100c1906001600160a01b031681565b6002546100c1906001600160a01b031681565b6000546001600160a01b031633146101625760405162461bcd60e51b815260206004820152600e60248201527f4e6f7420617574686f72697a656400000000000000000000000000000000000060448201526064015b60405180910390fd5b6001805473ffffffffffffffffffffffffffffffffffffffff19166001600160a01b0392909216919091179055565b6000546001600160a01b031633146101eb5760405162461bcd60e51b815260206004820152600e60248201527f4e6f7420617574686f72697a65640000000000000000000000000000000000006044820152606401610159565b6002805473ffffffffffffffffffffffffffffffffffffffff19166001600160a01b0392909216919091179055565b60006020828403121561022c57600080fd5b813574ffffffffffffffffffffffffffffffffffffffffff8116811461025157600080fd5b6001600160a01b0316939250505056fea26474726f6e58221220a586daffbd9fb19f1dac0ad93d8ee51b25ca6e010c6d9ed337ff26d93d4370ba64736f6c63430008060033",
  "source": "// SPDX-License-Identifier: MIT\npragma solidity ^0.8.6;\n\nimport './Vault.sol';\nimport './Exchange.sol';\n\ncontract System {\n    address public admin;\n    Exchange public exchange;\n    Vault public vault;\n\n    constructor() {\n        admin = msg.sender;\n    }\n\n    modifier onlyAdmin() {\n        require(msg.sender == admin, \"Not authorized\");\n        _;\n    }\n\n    function setExchange(address _exchange) external onlyAdmin {\n        exchange = Exchange(_exchange);\n    }\n\n    function setVault(address _vault) external onlyAdmin {\n        vault = Vault(_vault);\n    }\n}",
  "sourcePath": "/Users/prasad/projects/synthex/zexe/contracts/System.sol",
  "compiler": {
    "name": "solc",
    "version": "0.8.6+commit.0e36fba0.mod.Emscripten.clang"
  },
  "schemaVersion": "2.0.1",
  "updatedAt": "2022-11-02T11:18:25.293Z"
}