{
  "contractName": "Vault",
  "abi": [
    {
      "inputs": [
        {
          "internalType": "address",
          "name": "_system",
          "type": "address"
        }
      ],
      "stateMutability": "nonpayable",
      "type": "constructor"
    },
    {
      "anonymous": false,
      "inputs": [
        {
          "indexed": false,
          "internalType": "address",
          "name": "account",
          "type": "address"
        },
        {
          "indexed": false,
          "internalType": "address",
          "name": "token",
          "type": "address"
        },
        {
          "indexed": false,
          "internalType": "uint256",
          "name": "amount",
          "type": "uint256"
        }
      ],
      "name": "TokenWithdrawn",
      "type": "event"
    },
    {
      "anonymous": false,
      "inputs": [
        {
          "indexed": false,
          "internalType": "address",
          "name": "account",
          "type": "address"
        },
        {
          "indexed": false,
          "internalType": "address",
          "name": "token",
          "type": "address"
        },
        {
          "indexed": false,
          "internalType": "uint256",
          "name": "amount",
          "type": "uint256"
        }
      ],
      "name": "TokensDeposited",
      "type": "event"
    },
    {
      "inputs": [
        {
          "internalType": "address",
          "name": "token",
          "type": "address"
        },
        {
          "internalType": "uint256",
          "name": "amount",
          "type": "uint256"
        },
        {
          "internalType": "address",
          "name": "account",
          "type": "address"
        }
      ],
      "name": "decreaseBalance",
      "outputs": [],
      "stateMutability": "nonpayable",
      "type": "function"
    },
    {
      "inputs": [
        {
          "internalType": "address",
          "name": "token",
          "type": "address"
        },
        {
          "internalType": "uint256",
          "name": "amount",
          "type": "uint256"
        }
      ],
      "name": "deposit",
      "outputs": [],
      "stateMutability": "nonpayable",
      "type": "function"
    },
    {
      "inputs": [
        {
          "internalType": "address",
          "name": "token",
          "type": "address"
        }
      ],
      "name": "getBalance",
      "outputs": [
        {
          "internalType": "uint256",
          "name": "",
          "type": "uint256"
        }
      ],
      "stateMutability": "view",
      "type": "function"
    },
    {
      "inputs": [
        {
          "internalType": "address",
          "name": "token",
          "type": "address"
        },
        {
          "internalType": "uint256",
          "name": "amount",
          "type": "uint256"
        },
        {
          "internalType": "address",
          "name": "account",
          "type": "address"
        }
      ],
      "name": "increaseBalance",
      "outputs": [],
      "stateMutability": "nonpayable",
      "type": "function"
    },
    {
      "inputs": [
        {
          "internalType": "address",
          "name": "token",
          "type": "address"
        },
        {
          "internalType": "uint256",
          "name": "amount",
          "type": "uint256"
        },
        {
          "internalType": "address",
          "name": "account",
          "type": "address"
        }
      ],
      "name": "lockToken",
      "outputs": [],
      "stateMutability": "nonpayable",
      "type": "function"
    },
    {
      "inputs": [],
      "name": "system",
      "outputs": [
        {
          "internalType": "contract System",
          "name": "",
          "type": "address"
        }
      ],
      "stateMutability": "view",
      "type": "function"
    },
    {
      "inputs": [
        {
          "internalType": "address",
          "name": "token",
          "type": "address"
        },
        {
          "internalType": "uint256",
          "name": "amount",
          "type": "uint256"
        },
        {
          "internalType": "address",
          "name": "account",
          "type": "address"
        }
      ],
      "name": "unlockToken",
      "outputs": [],
      "stateMutability": "nonpayable",
      "type": "function"
    },
    {
      "inputs": [
        {
          "internalType": "address",
          "name": "",
          "type": "address"
        },
        {
          "internalType": "address",
          "name": "",
          "type": "address"
        }
      ],
      "name": "userTokenBalance",
      "outputs": [
        {
          "internalType": "uint256",
          "name": "",
          "type": "uint256"
        }
      ],
      "stateMutability": "view",
      "type": "function"
    },
    {
      "inputs": [
        {
          "internalType": "address",
          "name": "",
          "type": "address"
        },
        {
          "internalType": "address",
          "name": "",
          "type": "address"
        }
      ],
      "name": "userTokenBalanceInOrder",
      "outputs": [
        {
          "internalType": "uint256",
          "name": "",
          "type": "uint256"
        }
      ],
      "stateMutability": "view",
      "type": "function"
    },
    {
      "inputs": [
        {
          "internalType": "address",
          "name": "token",
          "type": "address"
        },
        {
          "internalType": "uint256",
          "name": "amount",
          "type": "uint256"
        }
      ],
      "name": "withdraw",
      "outputs": [],
      "stateMutability": "nonpayable",
      "type": "function"
    }
  ],
  "bytecode": "0x608060405234801561001057600080fd5b50d3801561001d57600080fd5b50d2801561002a57600080fd5b50604051610ded380380610ded8339810160408190526100499161006e565b600080546001600160a01b0319166001600160a01b03929092169190911790556100a7565b60006020828403121561008057600080fd5b81516001600160a81b038116811461009757600080fd5b6001600160a01b03169392505050565b610d37806100b66000396000f3fe608060405234801561001057600080fd5b50d3801561001d57600080fd5b50d2801561002a57600080fd5b50600436106100d85760003560e01c806395bf75fd11610090578063f3fef3a311610075578063f3fef3a3146101bf578063f4ac6275146101d2578063f8b2cb4f146101e557600080fd5b806395bf75fd14610169578063b47064c81461019457600080fd5b806347e7ef24116100c157806347e7ef2414610130578063480450a6146101435780635a9c78ab1461015657600080fd5b806309eb2728146100dd5780631379cdce146100f2575b600080fd5b6100f06100eb366004610b72565b61021b565b005b61011d610100366004610af7565b600260209081526000928352604080842090915290825290205481565b6040519081526020015b60405180910390f35b6100f061013e366004610b3d565b61031b565b6100f0610151366004610b72565b6103d5565b6100f0610164366004610b72565b6104d5565b60005461017c906001600160a01b031681565b6040516001600160a01b039091168152602001610127565b61011d6101a2366004610af7565b600160209081526000928352604080842090915290825290205481565b6100f06101cd366004610b3d565b6105a6565b6100f06101e0366004610b72565b610657565b61011d6101f3366004610aca565b3360009081526001602090815260408083206001600160a01b03949094168352929052205490565b60008054906101000a90046001600160a01b03166001600160a01b031663d2f7265a6040518163ffffffff1660e01b815260040160206040518083038186803b15801561026757600080fd5b505afa15801561027b573d6000803e3d6000fd5b505050506040513d601f19601f8201168201806040525081019061029f9190610be5565b6001600160a01b0316336001600160a01b0316146102bc57600080fd5b6001600160a01b038082166000908152600260209081526040808320938716835292905220546102ec9083610724565b6001600160a01b0391821660009081526002602090815260408083209690941682529490945292209190915550565b8061032557600080fd5b3360009081526001602090815260408083206001600160a01b03861684529091529020546103539082610724565b3360008181526001602090815260408083206001600160a01b03881680855292529091209290925561038791903084610737565b604080513381526001600160a01b03841660208201529081018290527fcbc4a4091b012bb1329c38bbbb15455f5cac5aa3673da0a7f38cd61a4f495517906060015b60405180910390a15050565b60008054906101000a90046001600160a01b03166001600160a01b031663d2f7265a6040518163ffffffff1660e01b815260040160206040518083038186803b15801561042157600080fd5b505afa158015610435573d6000803e3d6000fd5b505050506040513d601f19601f820116820180604052508101906104599190610be5565b6001600160a01b0316336001600160a01b03161461047657600080fd5b6001600160a01b038082166000908152600160209081526040808320938716835292905220546104a690836107ee565b6001600160a01b0391821660009081526001602090815260408083209690941682529490945292209190915550565b60008054906101000a90046001600160a01b03166001600160a01b031663d2f7265a6040518163ffffffff1660e01b815260040160206040518083038186803b15801561052157600080fd5b505afa158015610535573d6000803e3d6000fd5b505050506040513d601f19601f820116820180604052508101906105599190610be5565b6001600160a01b0316336001600160a01b03161461057657600080fd5b6001600160a01b038082166000908152600260209081526040808320938716835292905220546102ec90836107ee565b806105b057600080fd5b3360009081526001602090815260408083206001600160a01b03861684529091529020546105de90826107ee565b3360008181526001602090815260408083206001600160a01b0388168085529252909120929092556106119190836107fa565b604080513381526001600160a01b03841660208201529081018290527f8210728e7c071f615b840ee026032693858fbcd5e5359e67e438c890f59e5620906060016103c9565b60008054906101000a90046001600160a01b03166001600160a01b031663d2f7265a6040518163ffffffff1660e01b815260040160206040518083038186803b1580156106a357600080fd5b505afa1580156106b7573d6000803e3d6000fd5b505050506040513d601f19601f820116820180604052508101906106db9190610be5565b6001600160a01b0316336001600160a01b0316146106f857600080fd5b6001600160a01b038082166000908152600160209081526040808320938716835292905220546104a690835b60006107308284610c51565b9392505050565b6040516001600160a01b03808516602483015283166044820152606481018290526107e89085907f23b872dd00000000000000000000000000000000000000000000000000000000906084015b60408051601f198184030181529190526020810180517bffffffffffffffffffffffffffffffffffffffffffffffffffffffff167fffffffff0000000000000000000000000000000000000000000000000000000090931692909217909152610848565b50505050565b60006107308284610c69565b6040516001600160a01b0383166024820152604481018290526108439084907fa9059cbb0000000000000000000000000000000000000000000000000000000090606401610784565b505050565b600061089d826040518060400160405280602081526020017f5361666545524332303a206c6f772d6c6576656c2063616c6c206661696c6564815250856001600160a01b03166109329092919063ffffffff16565b80519091501561084357808060200190518101906108bb9190610bc3565b6108435760405162461bcd60e51b815260206004820152602a60248201527f5361666545524332303a204552433230206f7065726174696f6e20646964206e60448201527f6f7420737563636565640000000000000000000000000000000000000000000060648201526084015b60405180910390fd5b60606109418484600085610949565b949350505050565b6060824710156109c15760405162461bcd60e51b815260206004820152602660248201527f416464726573733a20696e73756666696369656e742062616c616e636520666f60448201527f722063616c6c00000000000000000000000000000000000000000000000000006064820152608401610929565b6001600160a01b0385163b610a185760405162461bcd60e51b815260206004820152601d60248201527f416464726573733a2063616c6c20746f206e6f6e2d636f6e74726163740000006044820152606401610929565b600080866001600160a01b03168587604051610a349190610c02565b60006040518083038185875af1925050503d8060008114610a71576040519150601f19603f3d011682016040523d82523d6000602084013e610a76565b606091505b5091509150610a86828286610a91565b979650505050505050565b60608315610aa0575081610730565b825115610ab05782518084602001fd5b8160405162461bcd60e51b81526004016109299190610c1e565b600060208284031215610adc57600080fd5b8135610ae781610cdb565b6001600160a01b03169392505050565b60008060408385031215610b0a57600080fd5b8235610b1581610cdb565b6001600160a01b039081169250602084013590610b3182610cdb565b92959216935090915050565b60008060408385031215610b5057600080fd5b8235610b5b81610cdb565b6001600160a01b0316946020939093013593505050565b600080600060608486031215610b8757600080fd5b8335610b9281610cdb565b6001600160a01b03908116935060208501359250604085013590610bb582610cdb565b808216925050509250925092565b600060208284031215610bd557600080fd5b8151801515811461073057600080fd5b600060208284031215610bf757600080fd5b8151610ae781610cdb565b60008251610c14818460208701610c80565b9190910192915050565b6020815260008251806020840152610c3d816040850160208701610c80565b601f01601f19169190910160400192915050565b60008219821115610c6457610c64610cac565b500190565b600082821015610c7b57610c7b610cac565b500390565b60005b83811015610c9b578181015183820152602001610c83565b838111156107e85750506000910152565b7f4e487b7100000000000000000000000000000000000000000000000000000000600052601160045260246000fd5b74ffffffffffffffffffffffffffffffffffffffffff81168114610cfe57600080fd5b5056fea26474726f6e58221220893b0b0f5fed35ea869402c876d49f7184acba323af673ca66805a73fe17fb7364736f6c63430008060033",
  "source": "// SPDX-License-Identifier: MIT\npragma solidity ^0.8.6;\n\nimport \"@openzeppelin/contracts/token/ERC20/utils/SafeERC20.sol\";\nimport \"@openzeppelin/contracts/token/ERC20/IERC20.sol\";\n// import {Errors} from \"./libraries/Errors.sol\";\nimport \"@openzeppelin/contracts/utils/math/SafeMath.sol\";\nimport './System.sol';\n\ncontract Vault {\n    using SafeERC20 for IERC20;\n    using SafeMath for uint256;\n    System public system;\n\n    event TokensDeposited(address account, address token, uint256 amount);\n    event TokenWithdrawn(address account, address token, uint256 amount);\n\n    constructor(address _system) {\n        system = System(_system);\n    }\n\n    mapping(address => mapping(address => uint256)) public userTokenBalance;\n    mapping(address => mapping(address => uint256)) public userTokenBalanceInOrder;\n\n    function deposit(address token, uint256 amount) external {\n        if (amount == 0) revert(); // Errors.ZeroAmt();\n        userTokenBalance[msg.sender][token] = userTokenBalance[msg.sender][token].add(amount);\n        IERC20(token).safeTransferFrom(msg.sender, address(this), amount);\n        emit TokensDeposited(msg.sender, token, amount);\n    }\n\n    function withdraw(address token, uint256 amount) external {\n        if (amount == 0) revert(); // Errors.ZeroAmt();\n        userTokenBalance[msg.sender][token] = userTokenBalance[msg.sender][token].sub(amount);\n        IERC20(token).safeTransfer(msg.sender, amount);\n        emit TokenWithdrawn(msg.sender, token, amount);\n    }\n\n    function getBalance(address token) public view returns (uint256) {\n        return userTokenBalance[msg.sender][token];\n    }\n\n    // Update sellers asset details only on LIMITSELL\n    function lockToken(\n        address token,\n        uint256 amount,\n        address account\n    ) external onlyExchanger {\n        userTokenBalanceInOrder[account][token] = userTokenBalanceInOrder[account][token].add(amount);\n    }\n\n    //Update data on order execution\n    function increaseBalance(\n        address token,\n        uint256 amount,\n        address account\n    ) external onlyExchanger {\n        userTokenBalance[account][token] = userTokenBalance[account][token].add(amount);\n    }\n\n    function decreaseBalance(\n        address token,\n        uint256 amount,\n        address account\n    ) external onlyExchanger {\n        userTokenBalance[account][token] = userTokenBalance[account][token].sub(amount);\n    }\n\n    // Update sellers asset details only on LIMITSELL\n    function unlockToken(\n        address token,\n        uint256 amount,\n        address account\n    ) external onlyExchanger {\n        userTokenBalanceInOrder[account][token] = userTokenBalanceInOrder[account][token].sub(amount);\n    }\n\n    modifier onlyExchanger() {\n        if(msg.sender != address(system.exchange())) revert(); // Errors.NotAuthorized();\n        _;\n    }\n}\n",
  "sourcePath": "/Users/prasad/projects/synthex/dex/contracts/Vault.sol",
  "compiler": {
    "name": "solc",
    "version": "0.8.6+commit.0e36fba0.mod.Emscripten.clang"
  },
  "schemaVersion": "2.0.1",
  "updatedAt": "2022-10-31T07:02:14.447Z"
}